:020000021000EC
:100000000000042035F601006DF601003DD9010025
:1000100071F6010049D901004FD90100000000002C
:10002000000000000000000000000000857D0100CD
:1000300079F60100000000001F7E01002F7E010004
:100040005D3402008DA201007FF601007FF6010001
:100050007FF601007FF601007FF601007FF60100C8
:100060007FF60100A50201007FF601007FF6010086
:100070007FF60100F13502007FF60100A5A2010024
:100080007FF601007FF601007FF601007FF6010098
:100090007FF601007FF601007FF601007FF6010088
:1000A0007FF601007FF60100C5020100E5020100B4
:1000B0007FF601007FF60100000000000000000054
:1000C0007FF601007FF601007FF601007FF6010058
:1000D0007FF601007FF601007FF601007FF6010048
:1000E0007FF601007FF601007FF6010000000000AE
:1000F000000000007FF60100000000007FF6010014
:1001000010B5054C237833B9044B13B10448AFF351
:1001100000800123237010BD20100020000000008B
:10012000EC58030008B5034B1BB103490348AFF378
:10013000008008BD0000000024100020EC580300DF
:10014000154B002B08BF134B9D46A3F5803A0021A9
:100150008B460F461348144A121A1BF0B9FB0F4B7B
:10016000002B00D098470E4B002B00D09847002062
:10017000002104000D000D48002802D00C480EF0AC
:1001800085F91AF0A9FE2000290009F0C5FE0EF03D
:100190007AF900BF00000800000004200000000001
:1001A000759E01002010002090B900208DE4010010
:1001B00000000000704700000278024B002143F865
:1001C000221070475C100020014B01221A7070470A
:1001D0008D100020014B01221A707047A0100020E2
:1001E000014B01221A7070478C1000200B680360CD
:1001F0004B6843608B68836070470C30704708B56C
:10020000FFF7FBFF0023036008BDC3680BB19B68C9
:100210001847704790F90930002B82B00DDB5A095E
:10022000012103F01F0301FA03F320320C4941F8C6
:100230002230BFF34F8FBFF36F8F4268017A0123E3
:1002400053604FF480338B40C2F8083350339B0027
:100250009BB20021D150D3580193019B02B070474B
:1002600000E100E010B5047A42684FF480310123C8
:10027000A1401360D360C2F8041390F90920002A4A
:1002800006DB510902F01F029340054A42F8213073
:10029000037A4268C16903F5A87342F8231010BDC0
:1002A00000E100E038B5064D6C683CB12046FFF730
:1002B000B1FFE36898476868FFF7D4FF38BD00BF17
:1002C0005C10002038B5064DEC683CB12046FFF7C5
:1002D000A1FFE3689847E868FFF7C4FF38BD00BF97
:1002E0005C10002038B5064D2C693CB12046FFF764
:1002F00091FFE36898472869FFF7B4FF38BD00BF56
:100300005C10002008B5304804F015FF00285AD0D2
:100310002D4804F032FF032855D8DFE800F0021D15
:1003200021502A4A13680133002B1360B8BF5B4287
:10033000032293FBF2F202EB42029B1A4FF0000100
:1003400001D1182004E0012B01D1172000E0162074
:10035000BDE8084007F0C8BC1C4A1368013BE3E74E
:100360001A4A1368013B002B1360B8BF5B429A071F
:1003700009D10021162007F0B7FC0121172007F052
:10038000B3FC0121DDE7032293FBF2F202EB420210
:100390009B1A012B06D10021172007F0A5FC012193
:1003A0001620ECE7022B0CBF00210121182007F0DA
:1003B0009BFC0121162007F097FC0121C5E7034AA9
:1003C00013680133CFE708BD201300207010002010
:1003D00038B507F0DBFB154B154C1B78012B054698
:1003E00018D008D3022B134A18D02368C31A93429B
:1003F0000FD9002117E023680F4AC31A934208D986
:100400000E4B197881F001010D20197007F06CFC7A
:10041000256038BD23680A4AC31AEFE72368C31A68
:100420009342F6D90121054BEEE700BFC41100202D
:10043000741000207F9698009F860100781000209D
:100440003F420F0010B50446FFF7DFFE204610BD07
:10045000044BC36003460A6843F8042B0022426041
:100460005A60704784FE020013B50446019121B919
:10047000FFF7C5FE204602B010BD01A9FFF7E8FF57
:10048000F8E70368184708B5FFF7FBFF08BD0368E6
:1004900070B5044663B1436A45691E1DAE4204D976
:1004A00055F8040B0EF00EFAF8E720680EF00AFA81
:1004B000204670BD10B504467830FFF7E8FF2046AF
:1004C00010BD000038B51D4D1D4A1E4C1E484FF092
:1004D000FF33202105F040F8284600F00BFF2246AC
:1004E0001A4928460DF0CDFF194803230370194B14
:1004F00043600022042102720174C2601A21D3F801
:1005000008254172144942F00302C860C3F8082567
:10051000D3F80425114922F00302C3F80425D3F8C7
:10052000102522F00F0242F00402C3F810250C4BF4
:1005300043612246BDE838400DF0A3BFC010002043
:10054000B71DC10400020020A4100020B504010062
:100550003C10002000A001405C100020B901010007
:100560000024744910B52DED028B012186B00D20B9
:1005700007F076FB0121162007F072FB01211720FE
:1005800007F06EFB0121182007F06AFB01211620FD
:1005900007F0AAFB0121172007F0A6FB0121182074
:1005A00007F0A2FB4FF4E1317348734C05F0CAFD2C
:1005B000204605F0FFFB10B9FFF70AFFF8E702211C
:1005C0006E4804F0DBFA30B96D496B4807F096F8D5
:1005D000FFF7FEFEFCE702AC6A492046FFF744FF46
:1005E0002146664804F0BEFE2046FFF72BFF664911
:1005F000614807F083F8654804F04EFB30B9644960
:100600005D4807F07BF8FFF7E3FEFCE761495A48D5
:1006100007F074F8604804F07FFC30B95F49564831
:1006200007F06CF8FFF7D4FEFCE75D49524807F08D
:1006300065F8594804F07FFD574804F0A1FB0322F8
:100640005849C0B205F028FB64220121564800F049
:1006500093FB554800F094FA6421534800F0E2FA05
:100660000221514800F0C8FA4F4800F04CFA01212D
:100670004D4800F0AFF94D4B93E8070084E80700C0
:10068000214649484A4C01F053F94A493A4807F093
:1006900035F8D4ED057A484BE360B2EE048AC7EE34
:1006A000886A2346B0EE007AF4EEC76AF1EE10FADB
:1006B00021D54249304807F009F841492E4806F053
:1006C000FCFF40492C4807F001F8D4ED057AC7EE4D
:1006D000887A17EE900A15F0ABF9022300930246D0
:1006E0000B46254807F0FAF83749234807F006F883
:1006F000FFF76EFEFCE7FCEEE77A616884ED067AB0
:10070000FBEEEF7A4FF48030FCEEE77A0122C4ED85
:10071000077A247A0A60A040CA60C1F8040393F9FA
:100720000910002906DB480901F01F018A4027490A
:1007300041F820205A68D9691B7A254C03F5A87323
:1007400042F8231007F022FA206007F01FFA23680E
:10075000C01A204B186007F019FA23681E49C01A06
:100760001E4B18601E4B044801221A7006F0C6FF8B
:1007700006B0BDEC028B10BDC81900204813002044
:10078000A8FE0200C9010100C2FE020018130020E9
:10079000D1FE0200ECFE020020130020FCFE02004D
:1007A00021FF0200E1010100C010002090FE0200C4
:1007B0003C1000203BFF0200D5010100A0FE02001A
:1007C0004AFF02009EFE020091FF020000E100E0ED
:1007D000C811002090100020C1FF0200C0110020AD
:1007E000C41100200000000070B5044607F0CEF9E7
:1007F000414B424D1B68C01A15F0F8F83AA3D3E9F3
:10080000002315F06DF915F01BFC3D4B28601A68AC
:10081000904265D018603B4A3B4E3C493C4803F04F
:10082000B3FD3C493A4803F0B8FE31463A4804F07B
:100830005FFA286815F0DAF82DA3D3E9002315F044
:100840004FF915F01DFC2F4B304A0146334800F09C
:1008500001FE3349314800F0C3F8324A2B492F4892
:1008600000F03DFB304A27492C4800F030F92F4B6F
:100870001B8823802B68C4F80230244B03CBC4F8B8
:100880000600C4F80A1018681E4BC4F80E0003CB0B
:10089000C4F8120018681F4BC4F81610C4F81A00E8
:1008A00003CBC4F81E0018681D4BC4F82210C4F80E
:1008B000260003CBC4F82A0018683368C4F82E1049
:1008C000C4F832002146C4F836303E22184804F0FD
:1008D0004DFE21463E221748BDE8704005F0D2BAD1
:1008E00070BD00BFAFF30080BB270F0BB5A6EF3F75
:1008F0008DEDB5A0F7C6B03EC811002090100020C5
:10090000C01100207C10002088100020A8110020B9
:10091000481300209410002018130020C01000205D
:10092000B41100209C110020901100209CFE0200B8
:10093000A4100020C819002000B50C4B1A7891B003
:1009400042B10B4A1278012A04D1002268461A707B
:10095000FFF74AFF074B1A781AB100221A70FFF707
:10096000D1FCFFF735FD11B05DF804FB8D100020C0
:10097000C41100208C1000204B680360436083602A
:10098000704700002DE9F04100F58478064600F13B
:1009900084054746BD4205D02C3F07F1140013F0F3
:1009A00041FDF7E7A8EB0505094CAD086C4324F0C1
:1009B00040446FF02B0303FB0484A64205D02C3C7B
:1009C00004F1140013F02EFDF7E73046BDE8F08186
:1009D000A38B2E3A80F865107047000000000000DD
:1009E0001FB50C4601A901F00FF8019815F020F889
:1009F0000FA3D3E9002315F073F815F041FB206035
:100A0000029815F015F80AA3D3E9002315F068F849
:100A100015F036FB6060039815F00AF804A3D3E9DB
:100A2000002315F05DF815F02BFBA06004B010BD9D
:100A3000F8C1631ADCA54C4090F8C03010B50446EC
:100A40000BB9012010BDD1ED017AD1ED006A91ED15
:100A5000027A67EEA77AE6EEA67AE7EE077A17EE55
:100A6000900A17F007F8D4ED187A07EE100A77EE1F
:100A7000677A94ED317A67EE877AB0EE007AF4EE19
:100A8000C77AF1EE10FADCDDB8EE007AF4EEC77A40
:100A9000F1EE10FA54BF01200020D3E790F8643043
:100AA000D1ED007A33B1C2ED007A4B6853608B68A8
:100AB00093607047F1EE677AC2ED007A4B6853603D
:100AC000D1ED027AF1EE677AC2ED027A7047FFF754
:100AD000E5BF00224260012280F820200022016050
:100AE00082604261C26082610261C261704700231C
:100AF00083604361C36083610361C361002343601A
:100B000080F8203070472430FFF7F1BF0023836066
:100B10004361C36083610361C361002343600123B8
:100B200080F8203070472DE9F04F85B004AB0025E8
:100B3000044643F8045D02AA01A90195029501F05B
:100B40006DFBD4E92298D4F89C30D4E920BA08F19E
:100B500004061F1DB74204D956F8040B0DF0B2FE6F
:100B6000F8E7C4E924BAC4E92698C4F8A450C4F844
:100B7000A85004F12400FFF7C9FF05B0BDE8F08FCD
:100B80002DE9F0432DED028B0446C7B0FFF7CBFFF4
:100B900094F8741004A801F0D7FD0FF25409D9E9B4
:100BA000008901AE04F1480537465434B0EE088A96
:100BB00004A9384601F067FDF6EC017A67EE887A01
:100BC00017EE900A14F034FF42464B4614F088FFAB
:100BD00015F056FA45F8040BA542E9D104A8FFF731
:100BE000D1FE47B0BDEC028BBDE8F083AFF30080CF
:100BF000F8C1631ADCA54C4038B50C460546FFF732
:100C000092FF631E632B02D8C5F8A04038BD03498C
:100C10000348BDE8384006F071BD00BF7200030014
:100C2000C819002038B504460D46FFF77CFF204662
:100C300040F8245FBDE83840FFF768BF00000000BF
:100C40002DE9F0432DED068B0446CDB00D46FFF7A0
:100C50006AFF94F874100AA801F076FD0AA901A8A9
:100C600001F018FD0AA904A801F025FD0AA907A8AA
:100C70009DED04AADDED05AA01F027FD0198DDED4B
:100C8000079A9DED088A14F0D3FE064628460F46C3
:100C900014F0BCFE8046894616F08CFE02460B46D8
:100CA0003046394615F046F815F0EAF909EE100A13
:100CB000029814F0BDFE06460F464046494616F01F
:100CC00079FE28EE088A02460B463046394615F072
:100CD00031F8AAEEAA8A15F0D3F908EE900A18EEB8
:100CE000100A16F0C7FE69EEA99A14F0A1FE20A31F
:100CF000D3E9002315F01EF8EAEE0A9A15F0C0F9C0
:100D000008EE100A19EE900A16F0B4FE14F090FEE8
:100D100017A3D3E9002315F00DF815F0B1F979EE1A
:100D2000086A07EE900A89EE267A20467821694300
:100D300078EEA76A84ED157A88EEA67A28EE088AFE
:100D400067EEA77AA9EE098AE8EEA87A84ED167A0A
:100D5000C4ED2F7A84ED2C8A40F8241FFFF7D6FECD
:100D60000AA8FFF70FFE4DB0BDEC068BBDE8F0837F
:100D700014AE47E17A94234070B50446C8B00D46DE
:100D80001646FFF7D0FE294684F8745006A801F0F5
:100D9000DBFC03AD06A9684601F083FC06A92846E2
:100DA00001F093FCD4ED317A6B462A46F3EC016AEC
:100DB000B2EC017AE6EEA67A9D42E7EE077AF5D12B
:100DC000C4ED317A17EE900A16F054FE07EE900A41
:100DD000B7EE007AC7EE277A31462046C4ED317A65
:100DE000FFF72EFF06A8FFF7CDFD48B070BD90F8C5
:100DF0002020034622BBD0ED057AF5EE407AF1EED5
:100E000010FA1DD1D0E90002824235DA91ED007A64
:100E1000D3ED027A77EE877A0132C3ED027A91ED53
:100E2000017AD3ED037A77EE877AC3ED037A91EDF9
:100E3000027AD3ED047A5A6077EE877AC3ED047AAA
:100E400093F82000B8B193ED057AD1ED007A77EEF2
:100E5000C77AC1ED007A93ED067AD1ED017A77EE8B
:100E6000C77AC1ED017A93ED077AD1ED027A77EE78
:100E7000C77AC1ED027A7047E2D107EE902AD3ED2E
:100E8000026AF8EEE77A012286EEA77A83F820203C
:100E9000D3ED036A83ED057A86EEA77AD3ED046A73
:100EA00083ED067A86EEA77A83ED077AC8E710B558
:100EB00090F8202001F10C03143000246AB1D1ED28
:100EC000007A90ED007A77EEC77AC1ED007A0431AE
:100ED000994200F10400F1D110BD0C60F7E738B57C
:100EE000FFF7DCFD90F865302BB111462430BDE8EA
:100EF0003840FFF7DCBF38BDF8B504462DED048B54
:100F000000680D4616F008FB09EE100A14F090FD7B
:100F10000022314B16F0B0FB064620680F4616F053
:100F2000FBFADFED2E7A95ED008A69EE277AB7EEAF
:100F3000007AA7EE897A08EE900A17EE100A14F0EC
:100F400077FD21A3D3E9002304460D4630463946F8
:100F500014F0C6FD02460B462046294614F00AFC52
:100F60001BA3D3E9002314F0BBFD9FED1D7ADFED39
:100F70001D7A28EE877A0446E7EE287A0D4667EE5A
:100F8000887A17EE900A14F053FD02460B4620466D
:100F9000294614F0EFFBDFED147A68EE277A044659
:100FA00067EE887A0D4617EE900A14F041FD02466E
:100FB0000B462046294614F0DDFB15F061F8BDEC28
:100FC000048BF8BDAFF30080000000E0F966F83E46
:100FD00000000000878F234000001040CFFBAC3B97
:100FE000DA1A973121364FB6BBF84A2B00000000C1
:100FF000D3ED007A91ED007A67EEA77A2DE9F843F8
:10100000E7EE077A05461E462DED028B17EE900A95
:1010100017680C4616F02EFD14F00AFD38A3D3E92C
:1010200000238046894614F0CDFF18B10FF2D00995
:10103000D9E90089384614F0FBFC42464B4616F0CD
:10104000B9FA15F01DF8D6ED007A2468F5EEC07AED
:10105000F1EE10FA804627EEA78A20462EDD14F026
:10106000E7FC29A3D3E9002306460F4614F038FD18
:1010700032463B4614F034FD064618EE100A0F4681
:1010800014F0D6FC02460B463046394614F072FB8B
:1010900016F090FC06460F4684F0004014F0C8FCA1
:1010A00032463B4616F086FA14F0EAFFBDEC028B9E
:1010B0006860C5F800802846BDE8F88314F0B8FCE5
:1010C00011A3D3E9002306460F4614F009FD32466A
:1010D0003B4614F005FD064618EE100A0F4614F0C4
:1010E000A7FC02460B463046394614F043FB16F087
:1010F00061FC064601F10047CEE700BFAFF3008078
:101100003A8C30E28E79453E8DEDB5A0F7C6B03E03
:10111000D0B514F08DFC1EA3D3E9002314F02AFBF4
:101120001DA3D3E9002316F047FA19A3D3E900233E
:1011300014F01EFB14F0A4FF044614F079FC14A371
:10114000D3E9002306460F4614F05AFF48B112A314
:10115000D3E900233046394614F00AFB14F090FF1F
:101160000446204614F064FC0DA3D3E90023064690
:101170000F4614F031FF48B107A3D3E900233046EE
:10118000394614F0F7FA14F07BFF04462046D0BD30
:10119000182D4454FB210940182D4454FB211940BB
:1011A000182D4454FB2109C0012908B506D9054B67
:1011B000054A06484FF4CD7118F010FF00EB81008E
:1011C00008BD00BF96000300F3050300B300030051
:1011D0004269436A9B1A9B105A1ED0E906315B1A7A
:1011E000DB1003EB821302698068101A03EBE00046
:1011F0007047000038B583680468032B0FD1C368BB
:1012000042681A4400250123022A4260C0E90253C1
:1012100005DD0F4B0F4A49210F4818F0DFFE8368A8
:10122000022B03DD0D4B0B4A4C21F5E7C268012A66
:1012300003D00B4B074A4D21EEE745685A1C03EBE0
:1012400043032B4404EB830382600A681A6038BDB1
:10125000120103003507030031020300610103009E
:10126000B8010300F8B5002304460360C0E9023367
:10127000C0E90433C0E90633C0E9083308234360FA
:1012800020200DF009FB65682060013D6D0800EB32
:10129000850706464FF400700DF0FEFA00F5007366
:1012A00046F82500E060C4E90703A060A06167611B
:1012B000236167622046F8BD08B5030705D0034BDC
:1012C000034A04486D2118F089FE08BDA8040300F4
:1012D000E70803009705030010B50446FFF7ECFF8D
:1012E0004FF07E53002223606260A260E3602046DC
:1012F00010BD000070B504468AB000F073FB42F6E2
:10130000E06104F12400FFF7E4FB4FF07E536365D6
:10131000A365184BE3650025174B2366012601A939
:1013200004F16800A564E564256584F8646084F8C8
:1013300065600295FFF720FB04F17800FFF792FF4C
:1013400001A9C4F8A060C4F8A450C4F8A85004F1DE
:10135000B000FFF7C1FF84F8C060C4F8C45001A812
:1013600000F040FB01A9204600F0B6FC20460AB080
:1013700070BD00BF000080BFCBA11C41D0E900239D
:101380009869D3ED046A126889000844D0ED007AA8
:10139000D868084490ED007AD6EE877A0A4493ED37
:1013A0000A7A67EE877AC2ED007A704708B503685B
:1013B00001EB4102022903EB820305D90D4B0E4AD2
:1013C0000E487A2118F00AFE426893ED027AD2EDB7
:1013D000027AD2ED016A67EE877A93ED017AE6EE42
:1013E000877AD2ED006A93ED007AE6EE877A17EEFF
:1013F000900A08BD01040300F9070300AC030300D1
:101400000368406810B51C6804EB8104FFF7CEFF49
:10141000206010BD10B54B680C688AB0CDE9063469
:101420000893032309930AAB049043F8280D002185
:10143000019301A805ABCDE902320594FFF7E0FF67
:1014400001A80121FFF7DCFF022101A8FFF7D8FF67
:101450000AB010BD2DE9F04F2DED048BB1B01D4643
:1014600008EE901A114602AA0446FFF717FB294618
:1014700005AAFFF713FB02A92430FFF7B8FC0025EB
:101480000DF19008002800F0BA81D4ED177AF5EE3E
:10149000C07AF1EE10FAC0F2A681259508AD41465A
:1014A0002846FFF769FADDED027A94ED127AF0EE44
:1014B000E76AF4EEC76AF1EE10FAC8BFCDED087A1C
:1014C000DDED037A94ED137AF0EEE76AF4EEC76A85
:1014D000F1EE10FAC8BFCDED097ADDED047AD4ED56
:1014E000146AB0EEE77AF4EEC76A0FAFF1EE10FAC5
:1014F0002146384648BFCDED0A7A00F079FA94EDDE
:10150000178AC24B289301AE04F1680332462BA818
:101510000BA938EEC88A0C932A901E9727950B9733
:10152000FFF778FF00210BA88DED2E8A0195CDE9FC
:101530000B68CDF834D00E95FFF720FF01210BA8E2
:10154000FFF71CFF02210BA8FFF718FF29462046D2
:1015500000F05AFF07AB06AA05A93846FFF748FD79
:10156000D4F89820D4F89030083A934204F17809DE
:1015700000F0A2801BB197E8030083E80300083362
:10158000C4F89030002604F1A407D4E9240398425B
:1015900002BFD4F89C3053F8040C00F500703146BB
:1015A0000838FFF701FE314605463846FFF7FCFDD7
:1015B00095ED007AD0ED007A77EE877AC0ED007A6B
:1015C000002E00F0FB804846FFF702FED4F8A03062
:1015D00098422CD9D4F8805000212846FFF7E4FD2A
:1015E000002182463846FFF7DFFD9AED007AD0ED04
:1015F000007A77EEC77A3146C0ED007A2846FFF7C9
:10160000D3FD314682463846FFF7CEFD9AED007A8B
:10161000D0ED007AD4F8883077EEC77A083B9D4247
:10162000C0ED007A00F0CC800835C4F88050414607
:10163000204600F0E9F905A92046FFF7FDF9A0B31F
:101640004846FFF7C5FD07EE900A94ED2A7AD4EDDF
:10165000296A9DED248A94ED159AF8EE677AC7EE13
:10166000279A86EEA77A78EE477A17EE900AFFF768
:101670004FFD07EE900AA9EE678A94ED169A8DED5C
:10168000188A9DED258A78EE697A17EE900AFFF7A1
:101690003FFD07EE900AA9EE678A26AB19AA18A9A2
:1016A0008DED198A204600F0B9FDC4ED178A31B0DE
:1016B000BDEC048BBDE8F08FD4F89C20A06FE36FE5
:1016C000111AA3EBA101012932D8D4F88C10A2EB96
:1016D000010A4FEAAA0A0AF1010A0AF10105B3EB6D
:1016E000450F47D95D1B6D0800EB8505131DA94209
:1016F000A3EB010237D98B4202D028461AF084F8B6
:101700002B68C4F8843003F50073C4F888300AF1FC
:101710008043013B05EB830255F82330C4F8943035
:1017200003F50073C4F88C50C4F89C20C4F89830BA
:101730004FF40070D4F89C500DF0AEF86860D4F807
:1017400090301BB197E8030083E80300D4F89C3085
:101750001A1D5B68C4F89C2003F50072C4F894302D
:10176000C4F898200CE78B424FEA8A00C8D0801A50
:101770002844C3E7002B14BF1E46012602331E4433
:10178000B6F1804F01D312F0CBFEB0000DF084F81B
:10179000D4F89C20D4F88C10751B04326D088A4252
:1017A000834600EB850503D0521A28461AF02CF820
:1017B000A06F0DF087F8C4E91EB6A1E70126E4E6A4
:1017C000D4F884000DF07EF8D4F88C301A1D5B68D4
:1017D000C4F88C2003F50072C4F88430C4F8882063
:1017E000C4F8803023E707AB06AA05A94046FFF7F7
:1017F000FFFB30AB25AA43F8605D414652E70F95E9
:1018000018952495434618AA0FA94BE735FA8E3C44
:101810002DE9F0432DED048B804697B00846144621
:101820000D4615F0D3FD0090284615F075FE09EE23
:10183000900A0190204615F0C9FD08EE100A0290AA
:10184000204615F069FE28EE698A00220123CDE9C1
:101850000A2308EE900A16A90C9318EE103A0DF11F
:10186000240941F84C3DB1EE689A0DAF48460997FE
:101870008DED0D9AFFF7BEFCDDED007ADDED026A1D
:1018800066EEA76A16A916EE903A41F8483DFFF7B2
:10189000B1FC02A9FFF7AEFC9DED017A27EE097AB3
:1018A00016A917EE103A41F8443DFFF7A3FCDDED11
:1018B000007A67EEA87A16AD17EE903A45F8403DEB
:1018C00016AC29460026FFF795FC44F83C6D2146EE
:1018D000FFF790FC6946FFF78DFC01A9FFF78AFC32
:1018E0000A9B0C9A1344032B02D10B9B032B05D0AC
:1018F0000B4B0C4A0C487C2118F070FB0B4B0996E3
:1019000040462A4621460A960B93CDE90779FFF710
:1019100081FD404617B0BDEC048BBDE8F08300BFED
:10192000D4FF0200D0060300310203003FED9838D7
:10193000F0B50E4685B00446FFF7F5F8306814F0B0
:1019400077F815A3D3E9002314F0CAF814F098FB34
:1019500004AD45F8100D706814F06AF80EA3D3E9D1
:10196000002314F0BDF814F08BFB06F108010746C4
:101970002846FFF7C1FA01AD20663A46009928468D
:10198000FFF746FF95E8070004F1680383E80700C6
:1019900005B0F0BDAFF30080399D52A246DF913F04
:1019A0004368C268D3ED067A92ED020A92ED017A9D
:1019B00020EE270AD3ED037AA7EE270A92ED007AEC
:1019C000D3ED007AA7EE270A704700234FF07E522E
:1019D000026043608360C360026143618361C361ED
:1019E0000262704713B501A9FFF7EFFF02B010BD07
:1019F00070B50D46064604460FCD0FC40FCD0FC47B
:101A00002B682360304670BDD0ED047A90ED037AE8
:101A100067EEA77A70B5E7EE077A044646692DEDC2
:101A2000028B17EE900A0D4616F024F80146304658
:101A300016F01EF821690646E06816F019F808EE5F
:101A4000100A216AA068B1EE488A16F011F885EDF7
:101A5000028ABDEC028B80F000402E60686070BD91
:101A60002DE9F74F0FF2900BDBE900AB24A7D7E984
:101A70000067044600F10C05206813F0D9FF3246D8
:101A80003B4613F077FE1CA3D3E9002315F094FD29
:101A900032463B4613F06CFE14F0F2FA019013F05C
:101AA000C7FF32463B468046894614F0A9FA48B142
:101AB00052465B464046494613F05AFE14F0E0FA9F
:101AC00020600BE010A3D3E900234046494614F000
:101AD00083FA48B9DDED017AC4ED007A0434AC42F2
:101AE000CAD103B0BDE8F08F52465B464046494636
:101AF00013F040FEE2E700BF182D4454FB211940CB
:101B0000182D4454FB210940182D4454FB2109C0D1
:101B100008B50346D0E90002D9680A44032A02D175
:101B20009B68032B05D0034B034A04487C2118F023
:101B300055FA08BDD4FF0200730903003102030007
:101B400070B500260660D1ED027A8AB00022F1EE6F
:101B5000677A0123CDE907230C4609930AA917EEFA
:101B6000903A054641F8243D069006A8FFF742FB4F
:101B7000211DFFF73FFB04F10801FFF73BFB0AA91A
:101B800041F8206DFFF736FBD4ED007AF1EE677A6D
:101B90000AA917EE903A41F81C3DFFF72BFBD4ED54
:101BA000017AF1EE677A17EE903A0AA941F8183DEA
:101BB000FFF720FB2146FFF71DFB0AA941F8146D32
:101BC000FFF718FB06A8FFF7A3FF28460AB070BD71
:101BD00010B5D0E90034626894ED027A1B68890080
:101BE0000A44D2ED006AC6EE877A0B44C3ED007A50
:101BF00010BD10B58AB00B6803938B6804930AABD1
:101C0000044643F8240D0990069306A802AB002170
:101C10000793CDF820D0FFF7DBFF06A80121FFF7DF
:101C2000D7FF06A80221FFF7D3FF06A80321FFF77D
:101C3000CFFF06A80421FFF7CBFF06A80521FFF779
:101C4000C7FF06A80621FFF7C3FF06A80721FFF775
:101C5000BFFF06A80821FFF7BBFF20460AB010BD52
:101C600043681B6889000B441A6803681B681944A1
:101C70000A6070477FB506ABCDE9042043F8140D28
:101C8000009102A800210293CDF80CD0FFF7E8FFE5
:101C900002A80121FFF7E4FF02A80221FFF7E0FFFD
:101CA00002A80321FFF7DCFF02A80421FFF7D8FFF9
:101CB00002A80521FFF7D4FF02A80621FFF7D0FFF5
:101CC00002A80721FFF7CCFF08210DEB0100FFF769
:101CD000C7FF07B05DF804FB884213B5044602D085
:101CE00001AAFFF7C7FF204602B010BD10B5046877
:101CF000406824689FED0C7AD0ED026A02EB420343
:101D000091420B4402694FEA83031C44F7EE007AC8
:101D1000134418BFF0EE477A93ED007AE6EE877A27
:101D2000C4ED007A10BD00BF00000000002210B515
:101D300011460446FFF7DAFF204600220121FFF793
:101D4000D5FF204600220221FFF7D0FF20460122C6
:101D50000021FFF7CBFF012211462046FFF7C6FF07
:101D6000204601220221FFF7C1FF20460222002166
:101D7000FFF7BCFF204602220121FFF7B7FF022236
:101D800011462046FFF7B2FF10BD000010B501EB71
:101D900082040460C0E9021200240121022AC0E981
:101DA000044105D9034B044A04487A2118F016F976
:101DB00010BD00BF010403006F0B0300AC03030060
:101DC00010B502EB420401EB840481600021C0E9FC
:101DD0000312022A4FF003010460416105D9034B4D
:101DE000034A04487A2118F0F9F810BD01040300F1
:101DF0004B0C0300AC0303002DE9F04117460268C9
:101E0000D0F8048007EB470698B0731816680CA842
:101E10000A460CAC414606EB8306FFF7B7FF0FCC32
:101E200012AD0FC594E803003A4685E80300D8F8E0
:101E3000241006A8FFF7C4FF129B029301A8069B7B
:101E40000493FFF7ADFD86ED000A18B0BDE8F08100
:101E500010B5002204460121FFF7CEFF20460022E4
:101E60000221FFF7C9FF204601220021FFF7C4FF2E
:101E7000012211462046FFF7BFFF20460122022122
:101E8000FFF7BAFF204602220021FFF7B5FF2046E8
:101E900002220121FFF7B0FF022211462046FFF780
:101EA000ABFF10BD2DE9F04117460268D0F8048061
:101EB00007EB470698B0731816680CA80A460CACD6
:101EC000D8F8001006EB8306FFF760FF0FCC12ADC9
:101ED0000FC594E803003A4685E80300D8F80410DB
:101EE00006A8FFF76DFF129B029301A8069B0493BF
:101EF000FFF756FD86ED000A18B0BDE8F08100B589
:101F0000D1E900238DB0CDE90723CDE909230323CF
:101F10000B930CAB002243F8280D039307AB0493FB
:101F200001ABCDE90530114603A8FFF7BBFF03A8BD
:101F300000220121FFF7B6FF03A800220221FFF7CC
:101F4000B1FF03A801220021FFF7ACFF01221146D7
:101F500003A8FFF7A7FF03A801220221FFF7A2FFB2
:101F600003A802220021FFF79DFF03A802220121FE
:101F7000FFF798FF0222114603A8FFF793FF0DB069
:101F80005DF804FBF0B593B00F4605AC054620465E
:101F90001646FFF7B4FFBB681093CDE90E34032358
:101FA000119312AB002243F8485D114601A8CDE918
:101FB0000134CDE90365FFF71FFF01A8FFF748FFD4
:101FC00013B0F0BD2DE9F04F2DED028BB5B09FEDB4
:101FD000928A019310AB01252B9300230DF1D00BB6
:101FE000CDE92C3518EE103A4BF8B03D8A46F7EEA5
:101FF000008A039059462BA891460DF1D0082E95E2
:10200000CDED108AFFF7F6F818EE103A48F8AC3D1F
:102010004146FFF7EFF834AF18EE103A47F8A83D05
:102020003946FFF7E7F80446DAF8000015F0CEF974
:1020300034AB43F8A40D204619460093FFF7DAF8B5
:102040000646DAF8000080F0004015F065FA34AC7E
:1020500044F8A00D30462146FFF7CCF834AE18EE18
:10206000103A46F89C3D3146FFF7C4F80290DAF882
:10207000000080F0004015F04FFA34AA80F00040D4
:1020800042F86C0D029B049211461846FFF7B2F815
:102090000290DAF8000015F099F90DF1D00A029BD0
:1020A0004AF8480D18465146FFF7A4F82BA8FFF749
:1020B0002FFDD9F8000015F089F9049A2B9200231E
:1020C000CDE92C35059234AB18EE102A43F8B42D27
:1020D000199019462BA804932E95FFF78BF80290C0
:1020E000D9F8000080F0004015F016FA80F00040AA
:1020F000089059460298FFF77DF841468DED098A10
:10210000FFF778F83946CDED0A8AFFF773F80099A2
:102110008DED0B8AFFF76EF80290D9F8000080F081
:10212000004015F0F9F921460C900298FFF762F88B
:1021300031468DED0D8AFFF75DF80290D9F8000069
:1021400015F044F9514622900298FFF753F82BA856
:10215000FFF7DEFC019BD3F80090484615F036F9F6
:102160000023229089F00040CDE92C352E95CDF842
:10217000ACA015F0D1F934A941F8B80D2BA8FFF7A0
:1021800039F8049B8DED078A1946FFF733F8019B58
:102190000546186880F0004015F0BEF980F0004058
:1021A000594608902846FFF725F8019B0546186810
:1021B00015F00CF9414609902846FFF71BF83946FF
:1021C0008DED0A8AFFF716F800998DED0B8AFFF75F
:1021D00011F821468DED0C8AFFF70CF83146CDED54
:1021E0000D8AFFF707F82BA8FFF792FC059A0F92CC
:1021F00010AB224631462BA80E93CDF834A0FFF742
:10220000C1FE32462BA90398FFF734FD35B0BDEC73
:10221000028BBDE8F08F00BF000000001FB5044630
:10222000096812681B68019101A802920393FFF7E5
:1022300017FC03AB02AA01A92046FFF7C3FE04B0B6
:1022400010BD4369D0ED017A1A44036902EB4202E2
:1022500019440A44C16801EB820292ED007A67EEEC
:10226000277A17EE900A7047F0B52DED028B022900
:1022700091B00C468768C66805D91C4B1C4A1D489E
:102280007A2117F0ABFE41696846FFF799FDCDE969
:102290000A640024009D08972246214607A80C9452
:1022A0000E95FFF7CEFF214608EE100A012207A87F
:1022B000FFF7C7FF022208EE900A214607A8FFF7A2
:1022C000C0FFD5ED027A07EE100A67EE277A95ED8A
:1022D000017AE8EE877A95ED007AE8EE077A17EE54
:1022E000900A11B0BDEC028BF0BD00BF01040300E9
:1022F000D8090300AC03030038B50568406802EB59
:10230000420463182C6804EB8304FFF7ADFFD4ED9F
:10231000007A07EE100A77EE877AC4ED007A38BDAE
:10232000D1ED027AD1ED016A91ED007A67EEA77ADC
:10233000F0B5E6EEA67A04460D462DED028BE7EEEB
:10234000077A9FB012AE17EE900A15F093FB08EED5
:10235000100AB5EEC08AF1EE10FA08D831462046D0
:10236000FFF733FB20461FB0BDEC028BF0BD2946C2
:10237000304609ADFFF7E4FB05A928468DED078A35
:102380000596FFF736FC18EE100A15F0C5F807465B
:1023900018EE100A15F01AF814971EAF07EE900AFF
:1023A00047F8684D03ABB7EE008A05A838EE678A98
:1023B000169507930193CDE905760894FFF7B6FCCF
:1023C000019B1595CDE90447CDE907340322179504
:1023D000CDE91B558DED148A8DED198A1D92069657
:1023E00000252A46002105A8FFF786FF2A4601217D
:1023F00005A8FFF781FF2A46022105A80135FFF74E
:102400007BFF032DEDD1ADE730B597B004AD0446A9
:102410002846FFF785FF02A90DA8CDE90245FFF781
:102420006EFD01AA0DA92046FFF724FC17B030BDB0
:1024300000F1080373B50360044608460D4619F021
:102440001FFE0F2805EB0006019007D9002201A905
:10245000204611F0C3FF019B2060A360324629464D
:10246000206811F0E7FF019B22686360002120468D
:10247000D15402B070BD000038B52DED048B08EECC
:10248000103A00F11C0343610023044609EE101AC0
:1024900000F114058361037747490A9808EE902AF2
:1024A00012F02AF8002859D119EE100A13F0C0FAD8
:1024B0003BA3D3E9002313F013FB3BA3D3E9002391
:1024C00013F038FC13F0DCFD206018EE900A13F0D6
:1024D000AFFA33A3D3E9002313F002FB0022374BFA
:1024E00013F028FC13F0CCFD606018EE100A13F016
:1024F0009FFA2BA3D3E9002313F0F2FA2CA3D3E91C
:10250000002313F017FC13F0BBFDA060089813F034
:102510008FFA23A3D3E9002313F0E2FA22A3D3E92D
:10252000002313F007FC13F0ABFDE060099813F0F3
:102530007FFA1BA3D3E9002313F0D2FA1AA3D3E93D
:10254000002313F0F7FB13F09BFD20610A99284646
:1025500011F07EFFBDEC048B204638BD18490A9867
:1025600011F0CAFF0028F1D1DFED167A9DED087A4F
:1025700027EE277A29EE279A84ED037A9DED097AD2
:1025800084ED009A68EEA78A28EE278A67EE277AFC
:10259000C4ED018A84ED028AC4ED047AD6E700BF57
:1025A000399D52A246DF913F000000000020AC4060
:1025B00000000000005E0A41260D030000004E40AE
:1025C0002B0D0300AE6A24372DE9F043DFF83C9071
:1025D0008BB00546044600F1840804AE0027494646
:1025E0003046FFF725FF00231A461946204602967B
:1025F00001970097FFF740FF2C34304611F012FF8F
:10260000A045ECD128460BB0BDE8F083260D0300B1
:102610000B6810B503604B6843608B688360CB68C0
:10262000C3600B69036104461431143011F010FFCC
:10263000204610BDF8B5044604F1840715460E4641
:10264000FFF7C2FF3846FFF7BFFF31462046FFF7CE
:10265000DFFF314604F12C00FFF7DAFF314604F1C9
:102660005800FFF7D5FF29463846FFF7D1FF294626
:1026700004F1B000FFF7CCFF294604F1DC00FFF7BE
:10268000C7FF2046F8BDCA6802608A6B42604A6E86
:10269000826070474A6802600A6B4260CA6D82605D
:1026A0007047D1F884200260D1F8B0204260D1F8A0
:1026B000DC2082607047D1F894200260D1F8C020FD
:1026C0004260D1F8EC2082607047D1F8902002601F
:1026D000D1F8BC204260D1F8E82082607047F8B59C
:1026E000074600F1140501F1140401F1980654F8AD
:1026F000143C45F8143C54F8103C45F8103C54F890
:102700000C3C45F80C3C54F8083C45F8083C54F89F
:10271000043C45F8043C214628462C3411F0CEFEFA
:10272000B44205F12C05E2D13846F8BD38B504466F
:102730000D46FFF7D4FF05F1840104F18400FFF793
:10274000CEFF204638BD000070B5EEB005462CAC7B
:10275000042900F2E880DFE801F0550337759300A3
:102760007F492046FFF764FE7E497F4B01914FF081
:102770007C520091029416A8FFF77EFE204611F0CD
:1027800051FE7A492046FFF753FE794B79497A4A40
:102790000093029401914FF0824321A8FFF76CFE51
:1027A000204611F03FFE21AA16A92046FFF742FF5E
:1027B00021462846FFF7BAFF2046FEF7E3F826A891
:1027C00011F030FE1BA8A9E065492046FFF730FE56
:1027D0006A496B4B6B4A0191009302946A4B16A8AD
:1027E000FFF74AFE204611F01DFE60492046FFF724
:1027F0001FFE4FF080436549009302940191624BA4
:10280000634ACAE756492046FFF712FE564B01932A
:102810005F4B604A009300215F4B029416A8FFF7BC
:102820002BFE204611F0FEFD50492046FFF700FE2A
:102830005A4B01935A4A5B4B009302944FF07E53DC
:102840000021AAE746492046FFF7F2FD524B0193CB
:10285000524B554A00930021544B029416A8FFF79F
:102860000BFE204611F0DEFD40492046FFF7E0FD5B
:102870004F4B01934F4B009302944F4B4F4ADFE76E
:1028800037492046FFF7D4FD434B0193434B464A5B
:1028900000930021454B02940BA8FFF7EDFD204665
:1028A00011F0C0FD31492046FFF7C2FD404B0193B6
:1028B000404B424A009300213F4B029416A8FFF779
:1028C000DBFD204611F0AEFD05AE16AA0BA9204691
:1028D000FFF7B0FE22493046FFF7AAFD384B0193BF
:1028E000384B394A00930021384B029621A8FFF754
:1028F000C3FD304611F096FD21A942A8FFF788FEDE
:1029000021462846FFF712FF26A811F08BFD20462E
:10291000FEF738F81BA811F085FD10A811F082FD14
:1029200028466EB070BD00260D492046FFF780FD99
:102930003346274A029431460196009616A8FFF7BF
:102940009BFD204611F06EFD08492046FFF770FD03
:10295000204B0093029401963346324631461CE7E1
:10296000260D030000007A43000034422B0D0300C3
:1029700000803B450000FA4400005C4300004842F0
:10298000000016435A64BB3E0000704100000C4436
:102990000000C8429A99193E0000A04100009643E9
:1029A000000020420000FA43CDCCCC3E0000E040C5
:1029B0000000AF4300007A449A9959400000AA42AF
:1029C0000000204014AEA341CDCC4C3DCDCC2C40DA
:1029D0000B045C4000002F444A780B7843EA022342
:1029E0000380CA788B7843EA022343804A790B79C3
:1029F00043EA02238380704782B00388ADF8003039
:102A00004388ADF802308388ADF8043091F8272070
:102A100091F824305B00E2B902AA134433F8083C71
:102A2000038091F8253002AA02EB430391F8282095
:102A300033F9083C9AB9438091F8263002AA02EB98
:102A4000430391F8292033F9083C52B9838002B03E
:102A5000704702AA134433F8083C5B42E0E75B424C
:102A6000E9E75B42F2E748B1836B3BB1C36B2BB143
:102A7000006CB0FA80F04009404270474FF0FF30E0
:102A800070472DE9F04804460025231ADBB299422D
:102A900002D82846BDE8F08814F8013B012B0FD07E
:102AA00006D3022B11D0202B14D06FF00705ECE7D2
:102AB000D2E9006746F0010BBC46C2E900BCE4E77E
:102AC000D2E9006746F0020BF6E7D2E9006746F06C
:102AD000040BF1E7D2E90067B34647F0010CECE7DD
:102AE00010B588B104788C423FBF0170197841F06D
:102AF000010119700178914204D902701A7842F0EC
:102B000002021A70002001E04FF0FF3010BD2DE9E5
:102B1000F0418046A0B018460D4616461C46FFF709
:102B2000A2FF50BB49B3637A0BB948F08008E27A40
:102B30006368A76B324469464046B84794F847300B
:102B4000A072012B0CBF4FF4E1700220236C61686E
:102B5000984794F90A0098B92A46511B8BB29E42B5
:102B600002D820B0BDE8F081E37A20AF3B440B44AB
:102B700013F8803C02F8013BEFE74FF0FF30F0E73D
:102B80006FF00100EDE7000007B5034601220DF1EB
:102B900007011B20FFF7BBFF48B99DF80730C3F3BF
:102BA0008203013BDBB2022B9CBF024AD05603B02A
:102BB0005DF804FB300D030013B5002304460846FE
:102BC000ADF80430FFF74FFFB8B90B46022201A958
:102BD0004020FFF79CFF70B99DF80430DA09A2701D
:102BE000C3F3021203F00F0323709DF805306270E7
:102BF00003F00303E37002B010BD4FF0FF30FAE7BB
:102C000013B5002304460846ADF80430FFF72BFF48
:102C1000E8B90B46022201A94220FFF778FFA0B9CC
:102C20009DF80430DA09A270C3F380126271C3F315
:102C3000011203F00F0323709DF805306270C3F397
:102C4000C00203F00703E270237102B010BD4FF021
:102C5000FF30FAE7F8B5054618460E461C46FFF762
:102C600002FF20BB19B3637A0BB905F07F056368D7
:102C7000E76B31462846B84794F84730A072012BDD
:102C80000CBF4FF4E1700220236C616898477C2DE3
:102C900006D1337813F0010318BF012384F84730BD
:102CA00094F90A00002818BF6FF00100F8BD4FF03A
:102CB000FF30FBE773B515461E460446A0B1C1F3CD
:102CC000430249098DF804208DF80510022201A95C
:102CD0005B20FFF7BFFF28B933462A4621465E2016
:102CE000FFF7B8FF02B070BD4FF0FF30FAE773B5E1
:102CF00002AC002304F8013D06460D460B460122B6
:102D000021465920FFF703FF60B99DF8070020F026
:102D1000010030438DF807002B460122214659203F
:102D2000FFF798FF02B070BDF7B50D4605F1080634
:102D300004460021334601220230ADF80410FFF7AB
:102D4000CFFE002838D1A378671C012B0CBF0322CB
:102D50000722014633463846FFF7C2FE60BB0C220D
:102D600001212046FFF7BCFE30BB03220146A0181C
:102D7000FFF7B6FE00BB6378A2781B0103F0700377
:102D800043EAC213227802F00F0213438DF8043095
:102D9000E2789DF8053002F0030223F003031343A9
:102DA0008DF8053002222B4601A94020FFF752FF83
:102DB00010B92846FFF7E8FE03B0F0BD73B50D4625
:102DC00005F1080604460021334601220230ADF821
:102DD0000410FFF785FE002857D101460322601C2E
:102DE000FFF77EFE002850D101460122601DFFF74B
:102DF00077FE002849D10D2206212046FFF770FEFC
:102E0000002842D101460122E01CFFF769FE00289C
:102E10003BD104220146A018FFF762FEA8BB9DF833
:102E20000430A27803F07F0343EAC213627992016F
:102E300002F0400223F0400313436278120102F0D3
:102E4000300223F030031343227823F00F0302F003
:102E50000F0213438DF80430E378DB0003F008021F
:102E60009DF8053003F0F0031343227902F00702C6
:102E700013438DF8053002222B4601A94220FFF7AB
:102E8000E9FE10B92846FFF77FFE02B070BD37B5E6
:102E90000023054608460C468DF80730FFF7E3FD92
:102EA000F0B90B4601220DF107017C20FFF72FFE40
:102EB000B0B99DF8070005F0010520F00100284396
:102EC0008DF80700234601220DF107017C20FFF752
:102ED000C1FE38B99DF8073003F0010384F847308C
:102EE00003B030BD6FF00C00FAE773B50023044661
:102EF00008460D46ADF804308DF80630FFF7B3FDF7
:102F000000285ED1002C5CD02678731E022B5BD883
:102F10000B46032201A95320FFF7F9FD00284ED1EB
:102F200006F0FD03012B1BD1A3785B0003F0020226
:102F30009DF8043003F0F9031343E278920002F0A5
:102F4000040213432279D20002F0080203F0E703DF
:102F500013436279120102F0100213438DF804301A
:102F6000023E012E1BD8A3795B0003F002029DF8FC
:102F7000053003F0F9031343E279920002F00402F2
:102F80001343227AD20002F0080203F0E70313434E
:102F9000627A120102F0100213438DF805309DF899
:102FA0000630627823F0010302F0010213438DF82A
:102FB000063003222B4601A95320FFF74BFE02B037
:102FC00070BD4FF0FF30FAE76FF00B00F7E713B575
:102FD000002304460846ADF80430FFF744FD80B9ED
:102FE0007CB10B46022201A91C20FFF790FD30B9ED
:102FF0009DF805209DF8043043EA0223238002B0A7
:1030000010BD4FF0FF30FAE72DE9F043174685B0C9
:103010000446002200233846CDE90223FFF723FDB2
:10302000002852D1002C50D002AA2046FFF729FDDB
:10303000002847D104AE3B4606F8090D012231466F
:103040007D20DDE90289FFF762FD00283AD10023E7
:1030500008F0010213431EBF9DF8073043F004033C
:103060008DF8073008F00202002313431EBF9DF8BD
:10307000073043F002038DF8073008F00402002304
:1030800013431EBF9DF8073043F001038DF807304E
:10309000002209F00103134318BF9DF8073008F020
:1030A000070418BF43F0080309F0010518BF8DF8A5
:1030B000073054EA050305D03B46012231467D2006
:1030C000FFF7C8FD05B0BDE8F0834FF0FF30F9E72A
:1030D0002DE9F04188B00E4605460021142203A8D0
:1030E0008DF8071018F0F4FB3046FFF7BCFC002801
:1030F00040F09880002D00F09580334601220DF1BC
:1031000007017D20FFF703FD00287DD19DF80740D2
:1031100014F0010F14BF4FF008084FF0000814F02E
:10312000040718BF08F1060714F002041CBF08F1D9
:103130000604E419B8F1000F07D0002F75D0002C59
:1031400014BF14220E22042005E0002F72D0002CA0
:103150005DD106220C20334603A9FFF7D8FC0028D6
:1031600052D1ADF808008DF80A00B8F1000F0BD06D
:103170000DF10B0205F1170305F11F0112F8010F04
:1031800003F8010F9942F9D147B103ABB91F1944B4
:103190002846FFF721FC3146FFF72EFC14B305F15A
:1031A0000C04B8F1000F4CD00DF11A012046FFF7C6
:1031B00013FC298AB6F84420B5F90C3012FB01F251
:1031C0004FF4007192FBF1F212B29B1AB3F5004F6B
:1031D00023DA13F5004F23DB1BB2AB8131462046C7
:1031E000FFF70AFC3346032202A91820FFF78FFCE1
:1031F00050B99DF809309DF80A201B0243EA0243AA
:103200009DF8082013432B6208B0BDE8F0810C2222
:103210001046A0E70DF11201C8E747F6FF73DCE79F
:103220000A4BDAE74FF0FF30EEE7002C14BF142210
:10323000082288E7002C0BBF2246062220461220D7
:1032400089E7002FE6D103A9B0E700BF0080FFFFA8
:1032500010B504460846FFF706FC40B93CB10B46E2
:10326000012221460320BDE81040FFF750BC4FF07B
:10327000FF3010BDF7B502AC002304F8013D06464F
:103280000F4615461346214601225820FFF73FFC02
:10329000B0B9032F19D83301022FD8B29DF80730E7
:1032A00011D0032F0ED0012F1ABF30438343334375
:1032B0008DF8073001222B4621465820FFF7CAFC23
:1032C00003B0F0BD33430343F2E76FF00B00F7E7C1
:1032D00070B5054608460C46FFF7C5FB60B95DB101
:1032E0000B6C07484968984723462946012221204C
:1032F000BDE87040FFF70BBC4FF0FF3070BD00BF62
:10330000E0220200F7B5002304468DF80730FFF7EE
:10331000AAFB00287DD1B4F84A60002E79D0E38959
:10332000DA0744BF03F1FF33E381E389012B9CBF3C
:103330000223E38121460020E789FFF7A8FD034629
:1033400060BB2146FFF7D3FC034638BBB6FBF7F55D
:1033500007FB156515F0FF0523D0751BADB20746B9
:10336000BD4220D9D3B92069E28923463946384481
:10337000FFF7A0FCE28917440346BFB2F0E72069DB
:10338000E289234629462844FFF794FCE289154444
:103390000346ADB2AE420ED9002BF0D0184603B0B2
:1033A000F0BD0546F6E7002BF8D10222E789E2815D
:1033B000AE4220D8E781002BF0D121460120FFF753
:1033C00096FC03460028E9D121460120FFF75FFD66
:1033D00003460028E2D121460DF10700FFF778FFF0
:1033E00003460028DAD19DF8072012F0010F08BF2C
:1033F0006FF00803D2E7002BDCD12069E289234675
:1034000029462844FFF756FCE28915440346ADB22D
:10341000CEE74FF0FF33C1E737B5B6238DF806305E
:10342000002305468DF80730FFF71DFB0446B8B9A9
:1034300001222B460DF106017E20FFF70BFC2B6CC1
:10344000696804464FF4FA609847012285F84720DE
:1034500034B96B7A3BB12846FFF754FF044660B19C
:10346000204603B030BD20462B460DF10701FFF783
:103470004EFB04460028F3D1EDE700220023C5E906
:103480000C23EDE713B500238DF807300446FFF752
:10349000EAFA034668B9637A012284F847205BB1EF
:1034A000234601220DF107010020FFF730FB034600
:1034B00058B1184602B010BD23460DF10701FFF7C1
:1034C00026FB03460028F4D1EAE79DF8072021787F
:1034D00091420BD1102222730122E275054A208508
:1034E00062622046FFF798FF0346E2E722706FF022
:1034F0000203DEE7000102002DE9F74314468DF8D0
:1035000007008946002942D0002A40D0127DC3B26C
:103510009A423FD9234601220DF107012F20FFF7E0
:1035200099FB30BBE3890F2B2AD8DA0748BF03F198
:10353000FF334FF0000648BFE3813027B046102527
:10354000E089AAB2824209EB0801234614D302465D
:103550003846FFF7DCFAA57BA8442F445FFA88F8C9
:10356000FFB22E44F6B2C6F11005EDB208B9002D37
:10357000E6D103B0BDE8F0833846FFF7C8FAF0E7BC
:103580002346102249463020FFF7C1FAF1E74FF0F9
:10359000FF30EEE76FF00900EBE77FB50E4604461B
:1035A00010220021684618F093F9B57D0023DAB2A5
:1035B000AA4202D36FF007000FE003EB4302316A27
:1035C00088188A5C092A03F10103F0D185784078D4
:1035D00032466946FFF790FF08B104B070BD04ABF6
:1035E0001D4415F8103C03F001022270C3F34002A1
:1035F0006270C3F38002C3F3C203A270E370ECE70E
:103600002DE9F043074687B010461646FFF72BFA20
:10361000044600286ED1002F6CD03D1D92F84780E3
:1036200007EB01170437BD4203D1204607B0BDE8C0
:10363000F08315F8043C032B07D9B8F1010F04D12E
:1036400031460020FFF723FC044674BB15F8043C08
:10365000092B48D0292B0ED11022214602A818F0A0
:1036600037F9B6F848309B0608D496F816C02346BA
:10367000DAB294451BD86FF00704D6E7334601222F
:103680000DF107011E20FFF742FA08BB9DF8073035
:1036900013F0400F18BF803B2B80B8F1010F04D10D
:1036A00031464046FFF7F3FB04461035BBE703EB1A
:1036B0004302316A88188A5C292A03F10103D7D1B1
:1036C00090F802904078324602A9FFF715FF08B142
:1036D0000446AAE706AB994419F8102C02F07F03C0
:1036E00012F0400FD6E731462846FFF756FF002874
:1036F000D3D0EDE74FF0FF3497E71FB5B0F848306F
:103700009B07044611D5FFF7AEF988B904A8292311
:1037100000F8103D22460121FFF772FF18B9BDF8ED
:103720000430A4F8443004B010BD6FF00700FAE78D
:103730004FF0FF30F7E7F0B5577D0023DCB2A7422A
:1037400001D800200DE003EB4305D6697419755DBF
:103750008D4203F10103F1D123880380A3788370A4
:103760000120F0BD2DE9F04F044687B01046154604
:10377000FFF779F9002840F05681002C00F05381C2
:103780004FF0340818FB014892F847A0DFF89CB2CC
:10379000A61C08F10208814602AFB04505D1BAF176
:1037A000010F00F03A8100241AE0BAF1010F10D0A5
:1037B00016F8023C092B00F2EA80DFE813F015004E
:1037C0001B002000E800E800E800E800E800E8004E
:1037D000D90029460020FFF75AFB04460028E7D00D
:1037E000204607B0BDE8F08F29463046FFF79CFA27
:1037F0000446A7E029463046FFF7E0FAF8E705F16E
:1038000008030B220121701DFFF76AF90446002806
:10381000E6D12B46012239466B20FFF778F90446A2
:103820000028DDD133789DF808205B0122F02002CA
:1038300003F0200313438DF8083001222B4639464C
:103840006B20FFF707FA04460028C9D1ADF808003D
:103850008DF804002B46022239464B20FFF757F91A
:1038600004460028BCD19DF80830F27903F001032A
:1038700043EA42038DF808309DF80930727803F06E
:103880007F0343EAC213B278920102F0400223F0B0
:1038900040031343F278920002F00C0223F00C0371
:1038A0001343327923F0030302F0030213438DF82C
:1038B00009301524294601A8FFF7CAFC00284BD17E
:1038C0009DF804305B0747D42B46394602224B2033
:1038D000FFF7C0F92B6C696804464FF47A7098477B
:1038E000002C7FF47DAF73788BBBEC752B4606F113
:1038F000080101224D20FFF7ADF92B6C69680446E1
:103900004FF47A709847002C7FF46AAF2B4601225F
:1039100039464420FFF7FBF8044698B97379B27929
:1039200003F00F0343EA02138DF8083039462B46A3
:1039300001224420FFF78EF92B6C696804464FF48E
:103940007A7098473436002C3FF427AF48E70123BC
:10395000EB75F3782B76D9E72B6C696842F210701F
:10396000013C984714F0FF04A4D16FF00E0437E730
:1039700010220021384617F0ABFF2A46092101A882
:10398000ADF804908DF80690FFF7D5FE10B96FF0F2
:10399000070425E739469DF80500FFF7ADFD04460D
:1039A0000028CFD19DF80630B6F800C05A0810B2F2
:1039B000CCF30A0C37F8101001EA0B0141EA0C01B4
:1039C00027F81010501CB6F802C037F81010CCF3CE
:1039D0000A0C01EA0B0141EA0C0127F81010901CB7
:1039E000B6F804C037F81010CCF30A0C01EA0B014A
:1039F00041EA0C010332C3EB420327F8101003F035
:103A0000FF03E2B2934206D82B46102239463020FB
:103A1000FFF720F9ECE60134F3E729465046FFF7BB
:103A200036FA0446DCE64FF0FF34D9E600F8FFFF33
:103A30002DE9F041804686B010461546FFF713F891
:103A400020B14FF0FF3006B0BDE8F081B8F1000FB3
:103A5000F7D0342616FB018692F8477008F102046D
:103A60000236B44203D1012F73D00020EBE714F8E3
:103A7000023C032B0CD8022B73D014F8023C092B08
:103A80006CD8DFE803F00E16706B6B6B6B6B6B1B07
:103A9000012FF2D129460020FFF7F9F90028D2D1F1
:103AA000EBE729462046FFF787F8002800F0A680BC
:103AB000C9E729462046FFF7A3F8F6E710220021C0
:103AC00002A817F005FF00232A46092101A8ADF836
:103AD00004308DF80630FFF72EFE00283ED002A9F4
:103AE0009DF80500FFF708FD0028ACD19DF80630D1
:103AF00006A95A1C51FA82F212F8101C06AA1A449E
:103B000012F8102C42EA0122C2F30A0206A922800E
:103B1000DA1C51FA82F2991C12F8100C06AA52FA19
:103B200081F111F8102C42EA0022C2F30A0206A920
:103B300062805A1D043351FA82F251FA83F312F86B
:103B4000102C13F8103C43EA0223C3F30A03A380AA
:103B500054E029463846FFF79AF974E76FF00700FA
:103B600071E7012F96D02846FEF77DFF00287FF4ED
:103B700068AF2B46012202A96B20FEF7C8FF002880
:103B80007FF461AF9DF80830ADF80800C3F340132F
:103B9000237002222B4602A94B20FEF7B8FF002813
:103BA0007FF451AF9DF808305B08E3719DF8093050
:103BB000C3F38011DA09A170C3F3810103F0030399
:103BC0006270E17023714AB92B46012204F10801A9
:103BD0004D20FEF79CFF00287FF435AF2B460122D5
:103BE00002A94420FEF793FF00287FF42CAF9DF834
:103BF00008301A0903F00F03A2716371343430E7FF
:103C000048B1836B3BB1C36B2BB1006CB0FA80F051
:103C10004009404270474FF0FF30704710B50446EE
:103C2000FFF7EEFF034610BB24222270104AA26465
:103C3000627A02B90123E37223690BB90D4B236148
:103C40002046FFF71FFC90B90B4BE3610B4B23623F
:103C500041F20813A3820723A375094BE3650823E8
:103C600084F860302046BDE81040FFF746BD10BD27
:103C700003000020330D0300332D0300662D0300E5
:103C80000402002058B1C3684BB103693BB14369DA
:103C90002BB14068B0FA80F04009404270474FF0C5
:103CA000FF30704710F5805F30B502D0D38C19B962
:103CB0000BB9194830BD19469B0393FBF1F1A1F5EF
:103CC000804109B201FB01F3802493FBF4F392F8E5
:103CD000244092F92550E401614305FB03114FF4A0
:103CE000007391FBF3F192F91A3001F58011A033C2
:103CF00059434FF4805391FBF3F14FF40053484381
:103D000090FBF3F092F9183000B200EBC3001023DF
:103D100090FBF3F000B2CDE70080FFFF10F5805F6D
:103D200030B502D0D38C19B90BB9194830BD19463A
:103D30009B0393FBF1F1A1F5804109B201FB01F373
:103D4000802493FBF4F392F8244092F92550E40187
:103D5000614305FB03114FF4007391FBF3F192F9FA
:103D60001B3001F58011A03359434FF4805391FB70
:103D7000F3F14FF40053484390FBF3F092F91930FC
:103D800000B200EBC300102390FBF3F000B2CDE7CC
:103D90000080FFFF10F5804F70B529D0B2F91E40AA
:103DA00034B3938B23B319B3D68C0EB3B2F922502C
:103DB0008E1B4900451B4B43108C03F5004304EB5D
:103DC000234310FB06F0042290FBF2F0C0EBC53059
:103DD00090FBF3F0074B9842B8BF184647F6FF73C5
:103DE0009842A8BF1846102390FBF3F000B270BDB4
:103DF0000148FBE70180FFFF0080FFFFF8B50746A1
:103E000018461D46FFF73EFF044640B939B132B1AE
:103E10002E696B683846B04728722046F8BD4FF0CF
:103E2000FF34FAE7F8B5064618461C46FFF72AFFA6
:103E3000054660B959B16378E768012B18BF46F0B1
:103E4000800663683046B84720722846F8BD4FF0B8
:103E5000FF35FAE773B502AC002304F8013D0646CE
:103E60000D460B46012221464B20FFF7DBFF78B9B8
:103E70009DF8073023F0010333438DF8073001220A
:103E80002B4621464B20FFF7B9FF08B985F82A6079
:103E900002B070BD38B50446FFF7F4FE054660B9C0
:103EA00094F82A304BB921460120FFF7D3FF63690C
:103EB0006168054640F6B8309847284638BD10B5C9
:103EC00086B004460023014601208DF80330FFF739
:103ED000C1FF002857D16369616840F6B830984740
:103EE000234601220DF103014020FFF79BFF00282C
:103EF00049D19DF80330322B47D12370ADF804002F
:103F0000CDE902000490ADF814002346022201A975
:103F10005D20FFF787FFB0BB2346042202A9622081
:103F2000FFF780FF78BB23460A2203A96820FFF72A
:103F300079FF40BB9DF8043023769DF80530637609
:103F40009DF80A30A3769DF80B30E376BDF80E306D
:103F5000A383BDF80C30E383BDF812302384BDF891
:103F6000083063849DF8153084F824309DF81430AF
:103F700084F825309DF811309DF810201B0203F4C1
:103F8000FE431343E38406B010BD6FF00100FAE76F
:103F900037B50B4604460D4601220DF107014C20B2
:103FA000FFF740FF80B99DF80700640020F006008D
:103FB00004F0060420438DF807002B4601220DF182
:103FC00007014C20FFF71AFF03B030BD37B50B4691
:103FD00005460C4601220DF107014C20FFF722FF98
:103FE00088B92B789DF80720DB0022F0380203F017
:103FF000380313438DF80730012223460DF10701E2
:104000004C20FFF7FBFE03B030BD73B50546023010
:104010000E46FFF7DBFF98B902ACEB7804F8013DE0
:104020000122334621465120FFF7E8FE40B92B79A3
:104030008DF807300122334621465220FFF7DEFE7D
:1040400002B070BD10B5024608460C46FFF71AFED6
:10405000034640BB5378042B23D8DFE803F0030D5D
:1040600022151D000846FFF715FF0346D8B9214663
:10407000BDE81040FFF78CBF0846FFF70BFF034673
:1040800088B921460120F3E70846FFF703FF0346FE
:1040900048B921460320EBE70020BDE81040FFF7B8
:1040A000D9BE6FF00203184610BD08B50246084697
:1040B000FFF7E8FD28BB5379013B032B1FD8DFE84E
:1040C00003F0020C1218002393700123D3701371B4
:1040D0001046BDE80840FFF798BF00239370042303
:1040E000D3700723F3E7052393701723D370292395
:1040F000EDE7002393700723D3700D23E7E76FF0FC
:10410000020008BD13B500230446CDE900330822A0
:104110000B464B206946FFF785FE80BB9DF80730B4
:1041200023719DF80630E3709DF8053023749DF8E7
:104130000430E3739DF80330C3F3C2022270DA093E
:10414000A271C3F38012E271C3F380022272C3F33F
:10415000400203F00103A3729DF802306272DA0993
:10416000E272C3F380122273C3F3C20203F00703A7
:10417000A3739DF801306273C3F3C203A37002B04E
:1041800010BD2DE9F7430023CDE9003307460B4668
:104190000E46082269464220FFF744FE804690BB47
:1041A0009DF802509DF903209DF905909DF8064069
:1041B0009DF800309DF90100ED088DF8025045EAA8
:1041C00042159DF8042052088DF8042042EAC919CE
:1041D0009DF80720A408DB088DF8064044EA821405
:1041E00043EA4010324621468DF80030FFF75AFD71
:1041F000214638802846FFF791FD214678804846C1
:10420000FFF7C8FDB880404603B0BDE8F08313B5A2
:104210000346044601220DF107014820FFF702FE84
:1042200080B9234601220DF106014A20FFF7FAFD6D
:1042300040B99DF8073003F001029DF8063043EACB
:104240000223238502B010BD2DE9F04180461746B8
:104250001C460E4629B3531E1F2B22D820682579F1
:1042600003682946DB6A98472068036841461B6853
:104270009847206803685B6B984790B9206803688B
:104280003A462946DB6B98473546C7B2AB1B9BB213
:104290009F420AD9206803685B69984705F8010BBB
:1042A000F4E74FF0FF30BDE8F0810020FBE77047F6
:1042B00013B5044600F138010DF10600FEF787FE44
:1042C000BDF80630B4F8CC00184300F40040C3F346
:1042D0000E03A4F8CC3002B010BD13B5044600F1B3
:1042E00038010DF10600FEF772FEBDF80630B4F895
:1042F000CC00184300F4804023F48043A4F8CC3071
:1043000002B010BD0000000000B58FB00EAB00225F
:1043100003F8342D012100F138021846FFF788FB1D
:104320009DF806300120984011F070FB04A3D3E9FA
:10433000002311F0D5FB11F0A3FE0FB05DF804FBD4
:10434000F6285C8FC2F5D83F10B58EB00EAB0124B5
:1043500003F8344D00F1380221461846FFF768FB98
:104360009DF8060004FA00F011F050FB04A3D3E915
:10437000002311F0B5FB11F083FE0EB010BD00BF9D
:10438000F6285C8FC2F5D83F30B58BB00D4600F1F2
:10439000380101A81446FEF79BFEBDF91030DFED91
:1043A000257A9FED256A07EE103AB8EEC77ABDF977
:1043B0001230C7EE276AB0FA80F0400907EE103AD3
:1043C000B8EEC77AC5ED006AC7EE276ABDF91430AA
:1043D00007EE103AB8EEC77AC5ED016AC7EE276A54
:1043E000BDF9043007EE103AB8EEC77AC5ED026A9F
:1043F00027EE067ADFED116ABDF9063027EE267A40
:1044000084ED007A07EE103ABDF9083007EE903AD5
:10441000B8EEC77AF8EEE77A27EE067A67EE867A84
:1044200027EE267A67EEA67A84ED017AC4ED027A49
:104430000BB030BD6F12834200000039CBA11C418C
:1044400010B50446A030FFF7E2FEB4F8C80000F44F
:10445000807010BD7FB500F1A00101A8FFF752FEEA
:104460009DF80620072A9BBF034B03EB8203002025
:10447000186807B05DF804FB942D030070B59EB07A
:104480004FF48073ADF800304FF001130193002317
:1044900001264FF484728DF81030022440F201138B
:1044A00001A80D46ADF80860ADF81220ADF8143043
:1044B0008DF84460ADF84620ADF848308DF84A409C
:1044C000FEF713FD80B92A4631460420FEF7D2FEDE
:1044D00050B92A46214604A8FFF744F920B92A46D4
:1044E00021466846FEF790FD1EB070BD10B586B03F
:1044F000002301A80C468DF80530FFF7A3FD30B965
:104500000323214601A88DF80930FFF7CEFD06B040
:1045100010BD03F049BB08B501210D2003F0A0FB3D
:1045200000210D2003F0E0FB642003F03BFB0121A0
:104530000D2003F0D9FB642003F034FBF0E710B545
:10454000282104460AF0C0F9204610BDF8B50746F8
:1045500015461E460C46E9B1531E1F2B1AD830686B
:1045600031790368DB6A98473068036839461B680D
:10457000984725443068A542036804D01B6814F8A6
:10458000011B9847F6E75B6B9847003018BF012086
:104590004042F8BD4FF0FF30FBE7036837B59B6939
:1045A00005460C46984700B305F1A0016846FFF7A1
:1045B000E8FDBDF9003007EE903ABDF90230F8EEA3
:1045C000E77AB0FA80F0C4ED017A07EE903ABDF9CF
:1045D0000430F8EEE77A5B42C4ED007A07EE903AD9
:1045E000F8EEE77A4009C4ED027A03B030BD006806
:1045F00070470022C26070470C307047CB68C360C0
:104600000BB15B681847704730B5C46887B00D467A
:10461000002C00F0968201F12203222B00F282820C
:10462000DFE813F070026002500240023002200204
:1046300010020002F001E001D00190018001700140
:104640006001500140013001200110010001F00023
:10465000E000D000C000B000A0009000800070001A
:1046600060005000400023008F02BE4903A803F001
:104670008DF90A224FF0FF31684603F0A6F969462A
:1046800003A803F0E7F9B84903F0F0F90146204622
:1046900003F02AF8684603F02EF903A803F02BF97B
:1046A000FFF739FFAF4903A803F070F90A226FF052
:1046B0000101684603F089F9694603A803F0CAF9C5
:1046C000AA49E1E7A74903A803F060F90A226FF0BD
:1046D0000201684603F079F9694603A803F0BAF9C4
:1046E000A349D1E79F4903A803F050F90A226FF0CC
:1046F0000301684603F069F9694603A803F0AAF9C3
:104700009C49C1E7974903A803F040F90A226FF0DA
:104710000401684603F059F9694603A803F09AF9C1
:104720009549B1E78F4903A803F030F90A226FF0E9
:104730000501684603F049F9694603A803F08AF9C0
:104740008E49A1E7874903A803F020F90A226FF0F8
:104750000601684603F039F9694603A803F07AF9BF
:10476000874991E77F4903A803F010F90A226FF007
:104770000701684603F029F9694603A803F06AF9BE
:10478000804981E7774903A803F000F90A226FF016
:104790000801684603F019F9694603A803F05AF9BD
:1047A000794971E76F4903A803F0F0F80A226FF026
:1047B0000901684603F009F9694603A803F04AF9BC
:1047C000724961E7674903A803F0E0F80A226FF035
:1047D0000A01684603F0F9F8694603A803F03AF9BC
:1047E0006B4951E75F4903A803F0D0F80A226FF044
:1047F0000B01684603F0E9F8694603A803F02AF9BB
:10480000644941E7574903A803F0C0F80A226FF052
:104810000C01684603F0D9F8694603A803F01AF9B9
:104820005D4931E74F4903A803F0B0F80A226FF061
:104830000D01684603F0C9F8694603A803F00AF9B8
:10484000564921E7474903A803F0A0F80A226FF070
:104850000E01684603F0B9F8694603A803F0FAF8B8
:104860004F4911E73F4903A803F090F80A226FF07F
:104870000F01684603F0A9F8694603A803F0EAF8B7
:10488000484901E7374903A803F080F80A226FF08E
:104890001001684603F099F8694603A803F0DAF8B6
:1048A0004149F1E62F4903A803F070F80A226FF09E
:1048B0001101684603F089F8694603A803F0CAF8B5
:1048C0003A49E1E6274903A803F060F80A226FF0AD
:1048D0001201684603F079F8694603A803F0BAF8B4
:1048E0003349D1E61F4903A803F050F80A226FF0BC
:1048F0001301684603F069F8694603A803F0AAF8B3
:104900002C49C1E6174903A803F040F80A226FF0CA
:104910001401684603F059F8694603A803F09AF8B1
:104920002549B1E60F4903A803F030F80A226FF0D9
:104930001501684603F049F8694603A803F08AF8B0
:104940001E49A1E6074903A803F020F80A226FF0E8
:104950001601684603F039F8694603A803F07AF8AF
:10496000174991E6B42D0300BC2D0300CD2D0300A3
:10497000E72D0300FC2D03000D2E03002D2E030058
:104980004C2E0300712E0300842E0300A42E03007E
:10499000B62E0300CE2E0300E82E03000F2F0300D7
:1049A000332F0300462F03005B2F03006F2F0300FC
:1049B000902F0300A72F0300B92F0300CC2F030073
:1049C000DA2F0300604903A802F0E0FF0A226FF02B
:1049D0001701684602F0F9FF694603A803F03AF8A8
:1049E0005A4951E6584903A802F0D0FF0A226FF055
:1049F0001801684602F0E9FF694603A803F02AF8A7
:104A0000534941E6504903A802F0C0FF0A226FF063
:104A10001901684602F0D9FF694603A803F01AF8A5
:104A20004C4931E6484903A802F0B0FF0A226FF072
:104A30001A01684602F0C9FF694603A803F00AF8A4
:104A4000454921E6404903A802F0A0FF0A226FF081
:104A50001B01684602F0B9FF694603A802F0FAFF9D
:104A60003E4911E6384903A802F090FF0A226FF090
:104A70001C01684602F0A9FF694603A802F0EAFF9C
:104A8000374901E6304903A802F080FF0A226FF09F
:104A90001D01684602F099FF694603A802F0DAFF9B
:104AA0003049F1E5284903A802F070FF0A226FF0AF
:104AB0001E01684602F089FF694603A802F0CAFF9A
:104AC0002949E1E5204903A802F060FF0A226FF0BE
:104AD0001F01684602F079FF694603A802F0BAFF99
:104AE0002249D1E5184903A802F050FF0A226FF0CD
:104AF0002001684602F069FF694603A802F0AAFF98
:104B00001B49C1E5104903A802F040FF0A226FF0DB
:104B10002101684602F059FF694603A802F09AFF96
:104B20001449B1E5084903A802F030FF0A222946DA
:104B3000684602F04AFF694603A802F08BFF0E495F
:104B4000A2E507B030BD00BFB42D0300F82F03006D
:104B500018300300253003003630030046300300D0
:104B60005F3003007A30030092300300AA30030064
:104B7000C4300300E4300300FD300300F8B5044600
:104B80008068304F0368DB690E46984704F12802BD
:104B900068230121DFF8B4C0E2631E222A4884F8AA
:104BA000383084F84110A4F846200025A26884F823
:104BB0002C3084F8A110102304F13001012EC4F828
:104BC00070C06767A067A564A26284F8A030C4E9DA
:104BD0002BC7C4F8B400C4F8A410226384F834309E
:104BE00015D004F138073846FFF718F80146054696
:104BF0002046FFF709FD236839465B6A204698473F
:104C000005436DB229462046FFF7FEFC9EB104F134
:104C1000A0063046FFF753F9284341B22046FFF77C
:104C2000F3FC236831461B6A204698470546014637
:104C30002046FFF7E9FCB5FA85F0400984F820002A
:104C4000F8BD00BF4D450100134501004942010078
:104C500070B50446006803680D46DB6A5C2198471E
:104C60002068036829461B6898472068036800216C
:104C70001B6B984768B9206803680122DB6B5C21D5
:104C80009847012805D120680368BDE870405B693A
:104C900018474FF0FF3070BD10B504460068036838
:104CA000DB6998470F212046FFF7D2FFB12814BFD8
:104CB00000200120207110BD70B504460068036813
:104CC0000E46DB6A5C21154698472068036831462A
:104CD0001B6898472068036829461B689847206826
:104CE00003685B6B9847B0FA80F0400970BD000024
:104CF0002DE9F041057904460E461DB900252846E8
:104D0000BDE8F08101221121FFF7D6FF11212046D5
:104D1000FFF79EFFC307F1D428212046FFF798FF35
:104D2000292107462046FFF793FF2A218046204687
:104D3000FFF78EFF000440EA0820384310F066FEBB
:104D40000022034B10F0F6FF11F09AF93060D6E71D
:104D50000000E44010B5094C82600022C0E9004127
:104D6000027342738273C273C0E90422C0E906224F
:104D700014214FF0FF32C0E9081210BDE8310300E2
:104D80008068704738B50446406803680D46DB6AA2
:104D9000392198476068036829461B68984760680E
:104DA00003685B6B9847B0FA80F0400938BD70B576
:104DB0000446406803680E46DB6A39211546984769
:104DC0006068036831461B68984760680368294635
:104DD0001B689847606803685B6B9847B0FA80F07F
:104DE000400970BD0A468021FFF7E1BF70B5054656
:104DF0001646FFF7C7FF044610B90024204670BDD1
:104E0000686803680122DB6B39219847686803688A
:104E10001B6998470028F0D0686803685B69984769
:104E20003070EBE737B50D460DF10702AB210446B4
:104E3000FFF7DCFF60B19DF807305DB143F002037E
:104E40008DF807309DF80720AB212046FFF7AFFF14
:104E500003B030BD23F00203F2E70A468021FFF7DA
:104E6000C5BF13B50DF107010446FFF7F6FF50B1BA
:104E70009DF80710CB0706D441F0010120468DF8BC
:104E80000710FFF7AFFF02B010BD13B50DF107011A
:104E90000446FFF7E2FF50B19DF807100B0706D458
:104EA00041F0080120468DF80710FFF79BFF02B084
:104EB00010BD13B50DF107010446FFF7CEFF28B171
:104EC0009DF807104B0603D50123237302B010BDD4
:104ED00041F0400120468DF80710FFF783FF207353
:104EE000F4E737B50D460DF10702AB210446FFF795
:104EF0007DFF60B19DF807305DB143F001038DF88F
:104F000007309DF80720AB212046FFF750FF03B084
:104F100030BD23F00103F2E737B50446406803686B
:104F2000DB6998470DF1070292212046FFF75EFFEB
:104F300018B90025284603B030BD9DF80730AB2BCB
:104F4000F7D100212046FFF74DFF0028F1D0FF22C6
:104F500083212046FFF72BFF0028EAD08F22A621CD
:104F60002046FFF724FF0028E3D08F228E21204621
:104F7000FFF71DFF0028DCD001212046FFF752FF7C
:104F80000028D6D001212046FFF7ABFF0028D0D063
:104F90002046FFF766FF0028CBD02046FFF775FFBD
:104FA0000028C6D0FC2281212046FFF700FF002800
:104FB000BFD002228F212046FFF7F9FE0028B8D08B
:104FC0000A2002F0EFFD2046FFF74BFF05460028C0
:104FD000AFD0A0680028ADDB0021C0B202F040FED7
:104FE000A8E72DE9F041074690461E46FFF7CAFEA6
:104FF000B8B1786803683246DB6B3921984746447C
:105000004446786803681B69A4EB0805984748B1D3
:10501000B44206D0786803685B69984704F8010BCE
:10502000EFE700252846BDE8F08113B5AF210DF16B
:1050300007020446FFF7DAFE70B19DF80730DB0780
:105040000DD50DF10702AE212046FFF7CFFE48B186
:105050009DF8070002B010BD4FF0FF30FAE76FF087
:105060000100F7E76FF00200F4E72DE9F041044694
:10507000A0B000252046FFF7D8FF031E57DD9B0098
:1050800003F0FC036A46FC212046FFF7AAFFC0B2EA
:1050900000284CD0032301261F464FF0020C9842F3
:1050A000E8DD0DEB030111F8032C11F802EC11F807
:1050B000018C1DF803101D2A2AD8BEF11D0F27D818
:1050C000B8F11D0F24D81D2922D8D4E9062EE67385
:1050D00012B9BEF1000F19D02169511A6269AEEB05
:1050E0000202D4F820E0CEF100088845C8BFC4F819
:1050F00024C08E45B8BF6762C4E904559045C4E931
:105100000655C8BF66629645B8BF65620433C6E7F8
:10511000A2EB0E0294F80FE06261A1EB080121619D
:10512000BEF1000FF2D0E573C4E90612EEE70020ED
:1051300020B0BDE8F081037B10B504460BB9FFF742
:10514000B8FEA068002811DBC0B202F0F5FD90B9EE
:105150002046FFF78AFF637B1BB100212046FFF743
:10516000C0FE606A013018BF012005E02046FFF74D
:105170005CFF0028ECDC002010BD03464FF0FF323E
:10518000406A5A62704710B500210446FFF731FAB1
:10519000204610BD70B5094B03600025FF2304466F
:1051A0000371C56010300E46FFF7EDFF0B2384F846
:1051B00020506562A6602371204670BDB83103009F
:1051C00008B5FBF73FF908BD10B5044B044640F89D
:1051D000103BFBF737F9204610BD00BFB831030084
:1051E000884238B5044606D00D46FBF70EF829462E
:1051F0002046FFF703FA204638BD10B50446FFF7F6
:10520000FDF9204610BD08B5FFF7F6F9006800303B
:1052100018BF012008BD00001FB590F82030F3B181
:1052200000F110042046FFF7EEFFC0B121466846AA
:10523000FFF7E3FF10210B4807F0AEFB044658B11F
:105240006946FFF7DAFF0849204607F048FD224685
:105250000649044807F060FC6846FBF7F3F804B021
:1052600010BD00BFD4110020C1510100B95401008C
:1052700010B4D0E9003409686210E40701EB0200C1
:1052800048BF8A585DF8044B48BFD358184708B543
:1052900001460430FFF7ECFF08BD0000034AC2607E
:1052A000034607C983E80700704700BF882D030045
:1052B00010B586B004460391684606A980E80C0044
:1052C00001E90C00204603A9FFF7E8FF204606B0DD
:1052D00010BD37B56C4684E80C0094E80C00054618
:1052E000FFF7E6FF284603B030BD10B4D0E9003424
:1052F00009686210E40701EB020048BF8A585DF8B4
:10530000044B48BFD358184708B501460430FFF78F
:10531000ECFF08BD034AC260034607C983E80700E3
:10532000704700BF7C2D030010B586B00446039182
:10533000684606A980E80C0001E90C00204603A994
:10534000FFF7E8FF204606B010BD37B56C4684E88D
:105350000C0094E80C000546FFF7E6FF284603B072
:1053600030BD00002DE9F04190F9043001338AB0DE
:105370000646884669D0364C2378BFF35B8FDB073F
:1053800011D4204609F090F868B1012296F9041072
:10539000304805F0D3F9204609F0A8F82E4A2F49E5
:1053A0002C4809F06EF82E4F3D78BFF35B8F15F057
:1053B000010524D1384609F077F800B3294C2A4B6F
:1053C000204640F8043BFFF7DEFE294604F140008A
:1053D00009F0ACFC04F1540009F046FC234B0093A7
:1053E0004FF4407228212B46204609F019FD38461B
:1053F00009F07CF8184A1E49204609F042F8414657
:1054000006F11000FFF7ECFE00241A4B0293039400
:1054100002AB0CCB184906A8FFF75BFF06A91148A1
:1054200009F066FD06A8FBF70DF8144BCDE904342E
:1054300004AB0CCB314606A8FFF787FF054806A949
:1054400005F0B8F906A8FAF7FDFF0AB0BDE8F0814B
:10545000CC110020301200200002002079A70100AA
:10546000D01100205C120020304B030014310300E7
:10547000A1EE010061C80100D41100201952010001
:1054800010B50446FFF7BFFE28B940F202220649D4
:10549000064808F005FCE068FFF7A9F80346204637
:1054A000BDE81040184700BF99310300A431030044
:1054B00008B5FFF7E5FF08BD08B5FFF7F9FF08BD20
:1054C00008B5FFF7E4FE08BD08B5FFF7F9FF08BD12
:1054D00008B5FFF719FF08BD08B5FFF7F9FF08BDCC
:1054E00070B5144D144C154E00224FF4027128462D
:1054F00007F0BAF92846124D1249224608F0C1FFBA
:1055000029463046FFF746FE22460F49304608F04E
:10551000B8FF0E4B00221D601A710D4B29461A224E
:105520001846FFF717FC22460A491846BDE87040A6
:1055300008F0A7BFD411002000020020481300206B
:105540005416002097C80100C9510100181300200B
:1055500020130020AF42010010B5C0E9001207314E
:105560008360C9080023C360016110BD2DE9F041CB
:1055700006680569846806F1FF3C012303FA0CFC08
:10558000B340013BA2EB050E8846083EA8EB01059F
:1055900075450EDA18F8015BB5406C4008250CEA39
:1055A000040703EA44040FB147687C40013DF6D18B
:1055B000ECE700250369AB4209DDD61A013B5B1B12
:1055C0004F19DB0024FA03F3BB550135F2E7BDE8C0
:1055D000F081002070470368C9B21B681847490072
:1055E0000023C161C0F82C327047036801211B6B96
:1055F000184710B403689C6B0123A4465DF8044B64
:105600006047D0F82C32B3F5807F1FBF5A1CC0F81A
:105610002C22C01880F82C1114BF012000207047E4
:10562000D0F8280170477047C0F830127047C0F8B2
:1056300034127047D0F82831A3B1D0F828318BB19B
:10564000D0F82431D0F8242103440132D2B293F8A7
:105650002030C0F82421D0F82821013AC0F82821B0
:10566000184670474FF0FF307047D0F828312BB103
:10567000D0F82431184490F8200070474FF0FF30E4
:10568000704738B503685B6A04469847A82009F05C
:1056900003F994F9192094F91810054604F0B6FF9F
:1056A000656138BD38B5D0F82C3214461A44B2F5CD
:1056B000807F88BFC3F58074054600F5967022464A
:1056C000184416F007F8D5F82C322344C5F82C32CC
:1056D000204638BD38B5044640690D4608B104F08F
:1056E00091FE206920B12946BDE8384004F0E4BFAE
:1056F00038BD10B50446406920B10368DB6898479F
:105700000023636123699BB1D4F8380209F093FB4D
:10571000D4F8380209F0B0FBD4F8380210B10368AD
:105720005B6898474821206909F0CEF8002323617F
:1057300010BD1FB50246D0F82C32D469406981F003
:10574000010100913BB9012303AA214604F08BFE1D
:10575000C0B204B010BD02F59672214604F064FE9A
:10576000002814BF02200020F3E770B5C2B0B2F5E4
:10577000807F83F0010328BF4FF48072009302AE54
:1057800004461546134649003246406904F06BFE54
:10579000C8B9A84218D0D4F82831B3F5807F10D00A
:1057A000D4F82031325C234483F82020D4F820310F
:1057B0000133DBB2C4F82031D4F828310133C4F806
:1057C00028310130E5E70025284642B070BD30B5EC
:1057D0000446BDB00025206904F077FF0328FAD8FD
:1057E000DFE800F04A021212D4F8343203B19847CD
:1057F000D4F82C22002AEED004F59671206904F02A
:1058000068FFC4F82C52E6E7C4F82051F022C4F82F
:1058100024516946C4F82851206904F058FF002239
:1058200082421DDAD4F82831B3F5807F18D0D4F83D
:105830002831B3F5807F11D0D4F820311DF8021043
:10584000234483F82010D4F820310133DBB2C4F8AC
:105850002031D4F828310133C4F828310132DFE790
:10586000D4F82831002BB6DDD4F83032002BB2D07A
:10587000D4F828019847AEE702F0A6F9ABE700009C
:1058800038B500254FF47A730446C0E901530D4B37
:105890000360C0E904550176427629464FF48072D0
:1058A000203016F015F8C4F82051C4F82C52C4F872
:1058B0002451C4F83052C4F82851C4F83452204658
:1058C00038BD00BF1032030010B4D0E900340968BD
:1058D0006210E40701EB020048BF8A585DF8044BF0
:1058E00048BFD358184708B501460430FFF7ECFF0E
:1058F00008BD0000034AC260034607C983E80700E9
:10590000704700BFF031030010B586B00446039124
:10591000684606A980E80C0001E90C00204603A9AE
:10592000FFF7E8FF204606B010BD37B56C4684E8A7
:105930000C0094E80C000546FFF7E6FF284603B08C
:1059400030BD000070B5036888B05B6A05460E463E
:105950009847482008F0A0FF95F9192095F91810EC
:10596000044604F08FFE71002C61204604F0A6FE70
:10597000BC2008F091FF164B044640F8043BFFF7AB
:1059800002FC002104F1400009F0D0F904F15400B8
:1059900009F06AF90F4B0093204600234FF4006290
:1059A000182109F03DFA0C4B02930023039302AB3C
:1059B0000CCB294604A8C5F83842FFF7B6FF04A966
:1059C000204609F095FA04A8FAF73CFD08B070BD2E
:1059D000304B0300FC310300CF57010008B5FFF73F
:1059E00082FF08BD08B5FFF7F9FF08BD10B512200A
:1059F00002F0A0F80446132002F09CF8214602466B
:105A00000848FFF73DFF1E2002F094F804461F20CF
:105A100002F090F821460246BDE810400248FFF728
:105A20002FBF00BF181400205416002030B5A1F17C
:105A30001004002500F00F02D3B2092ACCBF37337F
:105A400030338B73CD7302398C424FEA1010F1D191
:105A500030BD22207047000030B5012185B01920EB
:105A600002F0FEF80121192002F03EF94FF08043C8
:105A70000022C3F85C2503F588334FF48032C3F865
:105A800048230121C3F80823212002F0E9F801216D
:105A9000202002F0E5F80121212002F025F90A205A
:105AA00002F080F80121202002F01EF9212002F0EE
:105AB00041F81F2886BF00F01F00154B4FF0A04390
:105AC00000F5E07040F2033243F82020114B012230
:105AD0001A60114A1368002BFCD0104B0024C3F845
