:020000021000EC
:100000000000042099EE0100D1EE0100A1D1010011
:10001000D5EE0100ADD10100B3D101000000000018
:100020000000000000000000000000005976010000
:10003000DDEE010000000000F3760100037701000F
:10004000C12C0200619B0100E3EE0100E3EE010020
:10005000E3EE0100E3EE0100E3EE0100E3EE010058
:10006000E3EE010099020100E3EE0100E3EE01007E
:10007000E3EE0100552E0200E3EE0100799B010042
:10008000E3EE0100E3EE0100E3EE0100E3EE010028
:10009000E3EE0100E3EE0100E3EE0100E3EE010018
:1000A000E3EE0100E3EE0100B9020100D902010014
:1000B000E3EE0100E3EE010000000000000000009C
:1000C000E3EE0100E3EE0100E3EE0100E3EE0100E8
:1000D000E3EE0100E3EE0100E3EE0100E3EE0100D8
:1000E000E3EE0100E3EE0100E3EE0100000000009A
:1000F00000000000E3EE010000000000E3EE01005C
:1001000010B5054C237833B9044B13B10448AFF351
:1001100000800123237010BD20100020000000008B
:100120001451030008B5034B1BB103490348AFF357
:10013000008008BD000000002410002014510300BE
:10014000154B002B08BF134B9D46A3F5803A0021A9
:100150008B460F461348144A121A1AF0F1FF0F4B40
:10016000002B00D098470E4B002B00D09847002062
:10017000002104000D000D48002802D00C480DF0AD
:10018000B7FD1AF0DDFA2000290009F02FFB0DF071
:10019000ACFD00BF000008000000042000000000CB
:1001A000499701002010002068B90020F1DC01000F
:1001B00000000000704700000278024B002143F865
:1001C000221070475C100020014B01221A7070470A
:1001D00090100020014B01221A707047A4100020DB
:1001E0000B6803604B6843608B68836070470C301A
:1001F000704708B5FFF7FBFF0023036008BDC36825
:100200000BB19B681847704790F90930002B82B0FA
:100210000DDB5A09012103F01F0301FA03F3203219
:100220000C4941F82230BFF34F8FBFF36F8F426804
:10023000017A012353604FF480338B40C2F80833B6
:1002400050339B009BB20021D150D3580193019BA6
:1002500002B0704700E100E010B5047A42684FF444
:1002600080310123A1401360D360C2F8041390F9D8
:100270000920002A06DB510902F01F029340054ABB
:1002800042F82130037A4268C16903F5A87342F845
:10029000231010BD00E100E038B5064D6C683CB19C
:1002A0002046FFF7B1FFE36898476868FFF7D4FF7F
:1002B00038BD00BF5C10002038B5064DEC683CB17D
:1002C0002046FFF7A1FFE3689847E868FFF7C4FFFF
:1002D00038BD00BF5C10002038B5064D2C693CB11C
:1002E0002046FFF791FFE36898472869FFF7B4FFBE
:1002F00038BD00BF5C10002038B507F0D7F8154BAB
:10030000154C1B78012B054618D008D3022B134A35
:1003100018D02368C31A93420FD9002117E023682D
:100320000F4AC31A934208D90E4B197881F0010184
:100330000D20197007F068F9256038BD23680A4A56
:10034000C31AEFE72368C31A9342F6D90121054B7C
:10035000EEE700BF98120020701000207F969800F2
:100360009F860100741000203F420F0010B5044624
:10037000FFF745FF204610BD10B5044B044640F87A
:10038000103BFFF7F3FF204610BD00BFF829030024
:10039000044BC36003460A6843F8042B0022426002
:1003A0005A60704704F7020013B50446019121B961
:1003B000FFF71FFF204602B010BD01A9FFF7E8FFBD
:1003C000F8E70368184708B5FFF7FBFF08BD0368A7
:1003D00070B5044663B1436A45691E1DAE4204D937
:1003E00055F8040B0DF0A0FEF8E720680DF09CFE18
:1003F000204670BD10B504467830FFF7E8FF204670
:1004000010BD000070B5254D254E264C264A2748C4
:100410004FF0FF33202104F0CBFD2946304604F095
:1004200017FC2246224930460DF05DFC2946214D3D
:10043000214804F07FFB284600F0D4FE22461F49E5
:1004400028460DF050FC1E48032303701D4B4360EB
:100450000022042102720174C2601A21D3F8082517
:100460004172194942F00302C860C3F80825D3F865
:100470000425164922F00302C3F80425D3F81025F9
:1004800022F00F0242F00402C3F81025104B436122
:100490002246BDE870400DF026BC00BF28160020A3
:1004A000C811002000020020B71DC104A8100020C0
:1004B00079030100C010002088100020F50301001E
:1004C0003C10002000A001405C100020B901010098
:1004D0000024744910B52DED028B012186B00D204A
:1004E00007F04EF84FF4E1316648664C05F0BAFA71
:1004F000204605F0EFF810B9FFF7FEFEF8E70221FD
:10050000614804F0ADFA30B960495E4806F086FDF6
:10051000FFF7F2FEFCE702AC5D492046FFF744FF1F
:100520002146594804F070FC2046FFF71FFF594947
:10053000544806F073FD584804F024FB30B957497D
:10054000504806F06BFDFFF7D7FEFCE754494D48D5
:1005500006F064FD64220121524800F085FB5148F9
:1005600000F086FA64214F4800F0D4FA02214D4889
:1005700000F0BAFA4B4800F03EFA0121494800F079
:10058000A3F9494B93E8070084E807002146454852
:10059000464C01F045F946493A4806F03FFDD4ED96
:1005A000057A444BE360B2EE048AC7EE886A2346BC
:1005B000B0EE007AF4EEC76AF1EE10FA21D53E49AA
:1005C000304806F013FD3D492E4806F006FD3C4933
:1005D0002C4806F00BFDD4ED057AC7EE887A17EEAD
:1005E000900A14F057FE0223009302460B4625485A
:1005F00006F004FE3349234806F010FDFFF77CFEA9
:10060000FCE7FCEEE77A616884ED067AFBEEEF7AB0
:100610004FF48030FCEEE77A0122C4ED077A247AA9
:100620000A60A040CA60C1F8040393F909100029C8
:1006300006DB480901F01F018A40234941F82020C8
:100640005A68D9691B7A214C03F5A87342F8231024
:1006500006F02CFF206006F029FF2368C01A1C4B0F
:10066000186006F023FF23681A49C01A1A4B186055
:100670001A4B044801221A7006F0D0FC06B0BDECFB
:10068000028B10BD9C190020C811002028F7020021
:10069000C901010042F702008810002051F7020052
:1006A0006CF70200C010002010F702003C10002080
:1006B0007CF70200D501010020F702008BF7020051
:1006C0001EF70200D2F7020000E100E09C120020B9
:1006D0009410002002F80200C0110020981200209F
:1006E000474B1A7870B50446002A7FD0454A1278E5
:1006F000012A7BD100221A7006F0D8FE424B434DEE
:100700001B68C01A14F0A4FD39A3D3E9002314F028
:1007100019FE15F0C7F83E4B28601A68904265D064
:1007200018603C4A3C4E3D493D4803F0A5FD3D491B
:100730003B4803F0A3FE31463B4804F04FFA2868DB
:1007400014F086FD2CA3D3E9002314F0FBFD15F073
:10075000C9F8304B314A0146344800F0F3FD3449C2
:10076000324800F0B5F8334A2C49304800F02FFBEE
:10077000314A28492D4800F022F9304B1B8823804C
:100780002B68C4F80230254B03CBC4F80600C4F82C
:100790000A1018681F4BC4F80E0003CBC4F81200EF
:1007A0001868204BC4F81610C4F81A0003CBC4F81C
:1007B0001E0018681E4BC4F82210C4F8260003CB94
:1007C000C4F82A0018683368C4F82E10C4F8320040
:1007D0002146C4F836303E22194804F0F3FB214686
:1007E0003E221848BDE8704004F0DCBF70BD00BF79
:1007F000BB270F0BB5A6EF3F8DEDB5A0F7C6B03EFA
:1008000090100020981200209C12002094100020CC
:10081000C01100207810002084100020A8110020B2
:10082000C81100209810002088100020C01000205F
:10083000B41100209C110020901100201CF7020030
:10084000A81000209C19002000B591B06846FFF761
:1008500047FF054B1A780AB100221A70FFF74CFDCA
:1008600011B05DF804FB00BFA41000204B680360CA
:1008700043608360704700002DE9F04100F5847803
:10088000064600F184054746BD4205D02C3F07F1DE
:10089000140013F0F9F9F7E7A8EB0505094CAD08CA
:1008A0006C4324F040446FF02B0303FB0484A64206
:1008B00005D02C3C04F1140013F0E6F9F7E73046BC
:1008C000BDE8F081A38B2E3A80F8651070470000D8
:1008D0001FB50C4601A901F00FF8019814F0DAFCDD
:1008E0000FA3D3E9002314F02DFD14F0FBFF2060CB
:1008F000029814F0CFFC0AA3D3E9002314F022FDE0
:1009000014F0F0FF6060039814F0C4FC04A3D3E972
:10091000002314F017FD14F0E5FFA06004B010BD33
:10092000F8C1631ADCA54C4090F8C03010B50446FD
:100930000BB9012010BDD1ED017AD1ED006A91ED26
:10094000027A67EEA77AE6EEA67AE7EE077A17EE66
:10095000900A16F0C3FCD4ED187A07EE100A77EE71
:10096000677A94ED317A67EE877AB0EE007AF4EE2A
:10097000C77AF1EE10FADCDDB8EE007AF4EEC77A51
:10098000F1EE10FA54BF01200020D3E790F8643054
:10099000D1ED007A33B1C2ED007A4B6853608B68B9
:1009A00093607047F1EE677AC2ED007A4B6853604E
:1009B000D1ED027AF1EE677AC2ED027A7047FFF765
:1009C000E5BF00224260012280F820200022016061
:1009D00082604261C26082610261C261704700232D
:1009E00083604361C36083610361C361002343602B
:1009F00080F8203070472430FFF7F1BF0023836078
:100A00004361C36083610361C361002343600123C9
:100A100080F8203070472DE9F04F85B004AB0025F9
:100A2000044643F8045D02AA01A90195029501F06C
:100A30006DFBD4E92298D4F89C30D4E920BA08F1AF
:100A400004061F1DB74204D956F8040B0DF06CFBC9
:100A5000F8E7C4E924BAC4E92698C4F8A450C4F855
:100A6000A85004F12400FFF7C9FF05B0BDE8F08FDE
:100A70002DE9F0432DED028B0446C7B0FFF7CBFF05
:100A800094F8741004A801F0D7FD0FF25409D9E9C5
:100A9000008901AE04F1480537465434B0EE088AA7
:100AA00004A9384601F067FDF6EC017A67EE887A12
:100AB00017EE900A14F0EEFB42464B4614F042FC4F
:100AC00014F010FF45F8040BA542E9D104A8FFF784
:100AD000D3FE47B0BDEC028BBDE8F083AFF30080DE
:100AE000F8C1631ADCA54C4038B50C460546FFF743
:100AF00092FF631E632B02D8C5F8A04038BD03499E
:100B00000348BDE8384006F089BA00BFB3F80200D8
:100B10009C19002038B504460D46FFF77CFF20469F
:100B200040F8245FBDE83840FFF768BF00000000D0
:100B30002DE9F0432DED068B0446CDB00D46FFF7B1
:100B40006AFF94F874100AA801F076FD0AA901A8BA
:100B500001F018FD0AA904A801F025FD0AA907A8BB
:100B60009DED04AADDED05AA01F027FD0198DDED5C
:100B7000079A9DED088A14F08DFB064628460F461D
:100B800014F076FB8046894616F048FB02460B4679
:100B90003046394614F000FD14F0A4FE09EE100AA8
:100BA000029814F077FB06460F464046494616F079
:100BB00035FB28EE088A02460B463046394614F0CB
:100BC000EBFCAAEEAA8A14F08DFE08EE900A18EE4D
:100BD000100A16F083FB69EEA99A14F05BFB20A3C0
:100BE000D3E9002314F0D8FCEAEE0A9A14F07AFE56
:100BF00008EE100A19EE900A16F070FB14F04AFB8A
:100C000017A3D3E9002314F0C7FC14F06BFE79EEB0
:100C1000086A07EE900A89EE267A20467821694311
:100C200078EEA76A84ED157A88EEA67A28EE088A0F
:100C300067EEA77AA9EE098AE8EEA87A84ED167A1B
:100C4000C4ED2F7A84ED2C8A40F8241FFFF7D6FEDE
:100C50000AA8FFF711FE4DB0BDEC068BBDE8F0838E
:100C600014AE47E17A94234070B50446C8B00D46EF
:100C70001646FFF7D0FE294684F8745006A801F006
:100C8000DBFC03AD06A9684601F083FC06A92846F3
:100C900001F093FCD4ED317A6B462A46F3EC016AFD
:100CA000B2EC017AE6EEA67A9D42E7EE077AF5D13C
:100CB000C4ED317A17EE900A16F010FB07EE900A99
:100CC000B7EE007AC7EE277A31462046C4ED317A76
:100CD000FFF72EFF06A8FFF7CFFD48B070BD90F8D4
:100CE0002020034622BBD0ED057AF5EE407AF1EEE6
:100CF00010FA1DD1D0E90002824235DA91ED007A76
:100D0000D3ED027A77EE877A0132C3ED027A91ED64
:100D1000017AD3ED037A77EE877AC3ED037A91ED0A
:100D2000027AD3ED047A5A6077EE877AC3ED047ABB
:100D300093F82000B8B193ED057AD1ED007A77EE03
:100D4000C77AC1ED007A93ED067AD1ED017A77EE9C
:100D5000C77AC1ED017A93ED077AD1ED027A77EE89
:100D6000C77AC1ED027A7047E2D107EE902AD3ED3F
:100D7000026AF8EEE77A012286EEA77A83F820204D
:100D8000D3ED036A83ED057A86EEA77AD3ED046A84
:100D900083ED067A86EEA77A83ED077AC8E710B569
:100DA00090F8202001F10C03143000246AB1D1ED39
:100DB000007A90ED007A77EEC77AC1ED007A0431BF
:100DC000994200F10400F1D110BD0C60F7E738B58D
:100DD000FFF7DCFD90F865302BB111462430BDE8FB
:100DE0003840FFF7DCBF38BDF8B504462DED048B65
:100DF00000680D4615F0C2FF09EE100A14F04AFA19
:100E00000022314B16F06CF8064620680F4615F0AC
:100E1000B5FFDFED2E7A95ED008A69EE277AB7EE01
:100E2000007AA7EE897A08EE900A17EE100A14F0FD
:100E300031FA21A3D3E9002304460D463046394652
:100E400014F080FA02460B462046294614F0C4F8F6
:100E50001BA3D3E9002314F075FA9FED1D7ADFED93
:100E60001D7A28EE877A0446E7EE287A0D4667EE6B
:100E7000887A17EE900A14F00DFA02460B462046C7
:100E8000294614F0A9F8DFED147A68EE277A0446B3
:100E900067EE887A0D4617EE900A14F0FBF90246C9
:100EA0000B462046294614F097F814F01BFDBDECC4
:100EB000048BF8BDAFF30080000000E0F966F83E57
:100EC00000000000878F234000001040CFFBAC3BA8
:100ED000DA1A973121364FB6BBF84A2B00000000D2
:100EE000D3ED007A91ED007A67EEA77A2DE9F84309
:100EF000E7EE077A05461E462DED028B17EE900AA7
:100F000017680C4616F0EAF914F0C4F938A3D3E9CF
:100F100000238046894614F087FC18B10FF2D009EF
:100F2000D9E90089384614F0B5F942464B4615F028
:100F300073FF14F0D7FCD6ED007A2468F5EEC07A82
:100F4000F1EE10FA804627EEA78A20462EDD14F037
:100F5000A1F929A3D3E9002306460F4614F0F2F9BC
:100F600032463B4614F0EEF9064618EE100A0F46DC
:100F700014F090F902460B463046394614F02CF82E
:100F800016F04CF906460F4684F0004014F082F942
:100F900032463B4615F040FF14F0A4FCBDEC028B3A
:100FA0006860C5F800802846BDE8F88314F072F93F
:100FB00011A3D3E9002306460F4614F0C3F93246C5
:100FC0003B4614F0BFF9064618EE100A0F4614F01F
:100FD00061F902460B463046394613F0FDFF16F024
:100FE0001DF9064601F10047CEE700BFAFF30080D0
:100FF0003A8C30E28E79453E8DEDB5A0F7C6B03E15
:10100000D0B514F047F91EA3D3E9002313F0E4FF91
:101010001DA3D3E9002315F001FF19A3D3E9002391
:1010200013F0D8FF14F05EFC044614F033F914A357
:10103000D3E9002306460F4614F014FC48B112A36E
:10104000D3E900233046394613F0C4FF14F04AFCBC
:101050000446204614F01EF90DA3D3E900230646EA
:101060000F4614F0EBFB48B107A3D3E90023304649
:10107000394613F0B1FF14F035FC04462046D0BDCC
:10108000182D4454FB210940182D4454FB211940CC
:10109000182D4454FB2109C0012908B506D9054B78
:1010A000054A06484FF4CD7118F0CCFB00EB8100E7
:1010B00008BD00BFD7F8020034FE0200F4F80200B9
:1010C0004269436A9B1A9B105A1ED0E906315B1A8B
:1010D000DB1003EB821302698068101A03EBE00057
:1010E0007047000038B583680468032B0FD1C368CC
:1010F00042681A4400250123022A4260C0E90253D3
:1011000005DD0F4B0F4A49210F4818F09BFB836800
:10111000022B03DD0D4B0B4A4C21F5E7C268012A77
:1011200003D00B4B074A4D21EEE745685A1C03EBF1
:1011300043032B4404EB830382600A681A6038BDC2
:1011400053F9020076FF020072FA0200A2F90200CF
:10115000F9F90200F8B5002304460360C0E9023340
:10116000C0E90433C0E90633C0E90833082343600B
:1011700020200CF0C3FF65682060013D6D0800EB86
:10118000850706464FF400700CF0B8FF00F50073B9
:1011900046F82500E060C4E90703A060A06167612C
:1011A000236167622046F8BD08B5030705D0034BED
:1011B000034A04486D2118F045FB08BDE9FC020014
:1011C00028010300D8FD020010B50446FFF7ECFF2C
:1011D0004FF07E53002223606260A260E3602046ED
:1011E00010BD000070B504468AB000F073FB42F6F3
:1011F000E06104F12400FFF7E4FB4FF07E536365E8
:10120000A365184BE3650025174B2366012601A94A
:1012100004F16800A564E564256584F8646084F8D9
:1012200065600295FFF722FB04F17800FFF792FF5B
:1012300001A9C4F8A060C4F8A450C4F8A85004F1EF
:10124000B000FFF7C1FF84F8C060C4F8C45001A823
:1012500000F040FB01A9204600F0B6FC20460AB091
:1012600070BD00BF000080BFCBA11C41D0E90023AE
:101270009869D3ED046A126889000844D0ED007AB9
:10128000D868084490ED007AD6EE877A0A4493ED48
:101290000A7A67EE877AC2ED007A704708B503686C
:1012A00001EB4102022903EB820305D90D4B0E4AE3
:1012B0000E487A2118F0C6FA426893ED027AD2ED10
:1012C000027AD2ED016A67EE877A93ED017AE6EE53
:1012D000877AD2ED006A93ED007AE6EE877A17EE10
:1012E000900A08BD42FC02003A000300EDFB020038
:1012F0000368406810B51C6804EB8104FFF7CEFF5B
:10130000206010BD10B54B680C688AB0CDE906347A
:101310000893032309930AAB049043F8280D002196
:10132000019301A805ABCDE902320594FFF7E0FF78
:1013300001A80121FFF7DCFF022101A8FFF7D8FF78
:101340000AB010BD2DE9F04F2DED048BB1B01D4654
:1013500008EE901A114602AA0446FFF717FB294629
:1013600005AAFFF713FB02A92430FFF7B8FC0025FC
:101370000DF19008002800F0BA81D4ED177AF5EE4F
:10138000C07AF1EE10FAC0F2A681259508AD41466B
:101390002846FFF76BFADDED027A94ED127AF0EE53
:1013A000E76AF4EEC76AF1EE10FAC8BFCDED087A2D
:1013B000DDED037A94ED137AF0EEE76AF4EEC76A96
:1013C000F1EE10FAC8BFCDED097ADDED047AD4ED67
:1013D000146AB0EEE77AF4EEC76A0FAFF1EE10FAD6
:1013E0002146384648BFCDED0A7A00F079FA94EDEF
:1013F000178AC24B289301AE04F1680332462BA82A
:101400000BA938EEC88A0C932A901E9727950B9744
:10141000FFF778FF00210BA88DED2E8A0195CDE90D
:101420000B68CDF834D00E95FFF720FF01210BA8F3
:10143000FFF71CFF02210BA8FFF718FF29462046E3
:1014400000F05AFF07AB06AA05A93846FFF748FD8A
:10145000D4F89820D4F89030083A934204F17809EF
:1014600000F0A2801BB197E8030083E80300083373
:10147000C4F89030002604F1A407D4E9240398426C
:1014800002BFD4F89C3053F8040C00F500703146CC
:101490000838FFF701FE314605463846FFF7FCFDE8
:1014A00095ED007AD0ED007A77EE877AC0ED007A7C
:1014B000002E00F0FB804846FFF702FED4F8A03073
:1014C00098422CD9D4F8805000212846FFF7E4FD3B
:1014D000002182463846FFF7DFFD9AED007AD0ED15
:1014E000007A77EEC77A3146C0ED007A2846FFF7DA
:1014F000D3FD314682463846FFF7CEFD9AED007A9D
:10150000D0ED007AD4F8883077EEC77A083B9D4258
:10151000C0ED007A00F0CC800835C4F88050414618
:10152000204600F0E9F905A92046FFF7FDF9A0B330
:101530004846FFF7C5FD07EE900A94ED2A7AD4EDF0
:10154000296A9DED248A94ED159AF8EE677AC7EE24
:10155000279A86EEA77A78EE477A17EE900AFFF779
:101560004FFD07EE900AA9EE678A94ED169A8DED6D
:10157000188A9DED258A78EE697A17EE900AFFF7B2
:101580003FFD07EE900AA9EE678A26AB19AA18A9B3
:101590008DED198A204600F0B9FDC4ED178A31B0EF
:1015A000BDEC048BBDE8F08FD4F89C20A06FE36FF6
:1015B000111AA3EBA101012932D8D4F88C10A2EBA7
:1015C000010A4FEAAA0A0AF1010A0AF10105B3EB7E
:1015D000450F47D95D1B6D0800EB8505131DA9421A
:1015E000A3EB010237D98B4202D0284619F044FD03
:1015F0002B68C4F8843003F50073C4F888300AF10E
:101600008043013B05EB830255F82330C4F8943046
:1016100003F50073C4F88C50C4F89C20C4F89830CB
:101620004FF40070D4F89C500CF068FD6860D4F85A
:1016300090301BB197E8030083E80300D4F89C3096
:101640001A1D5B68C4F89C2003F50072C4F894303E
:10165000C4F898200CE78B424FEA8A00C8D0801A61
:101660002844C3E7002B14BF1E46012602331E4444
:10167000B6F1804F01D312F085FBB0000CF03EFDB7
:10168000D4F89C20D4F88C10751B04326D088A4263
:10169000834600EB850503D0521A284619F0ECFC6E
:1016A000A06F0CF041FDC4E91EB6A1E70126E4E6F7
:1016B000D4F884000CF038FDD4F88C301A1D5B6827
:1016C000C4F88C2003F50072C4F88430C4F8882074
:1016D000C4F8803023E707AB06AA05A94046FFF708
:1016E000FFFB30AB25AA43F8605D414652E70F95FA
:1016F00018952495434618AA0FA94BE735FA8E3C56
:101700002DE9F0432DED048B804697B00846144632
:101710000D4615F08DFA0090284615F02FFB09EEC6
:10172000900A0190204615F083FA08EE100A029004
:10173000204615F023FB28EE698A00220123CDE91B
:101740000A2308EE900A16A90C9318EE103A0DF130
:10175000240941F84C3DB1EE689A0DAF484609970F
:101760008DED0D9AFFF7BEFCDDED007ADDED026A2E
:1017700066EEA76A16A916EE903A41F8483DFFF7C3
:10178000B1FC02A9FFF7AEFC9DED017A27EE097AC4
:1017900016A917EE103A41F8443DFFF7A3FCDDED22
:1017A000007A67EEA87A16AD17EE903A45F8403DFC
:1017B00016AC29460026FFF795FC44F83C6D2146FF
:1017C000FFF790FC6946FFF78DFC01A9FFF78AFC43
:1017D0000A9B0C9A1344032B02D10B9B032B05D0BD
:1017E0000B4B0C4A0C487C2118F02CF80B4B09963B
:1017F00040462A4621460A960B93CDE90779FFF722
:1018000081FD404617B0BDEC048BBDE8F08300BFFE
:1018100015F8020011FF020072FA02003FED98383D
:10182000F0B50E4685B00446FFF7F5F8306813F0C2
:1018300031FD15A3D3E9002313F084FD14F052F811
:1018400004AD45F8100D706813F024FD0EA3D3E924
:10185000002313F077FD14F045F806F10801074660
:101860002846FFF7C1FA01AD20663A46009928469E
:10187000FFF746FF95E8070004F1680383E80700D7
:1018800005B0F0BDAFF30080399D52A246DF913F15
:101890004368C268D3ED067A92ED020A92ED017AAE
:1018A00020EE270AD3ED037AA7EE270A92ED007AFD
:1018B000D3ED007AA7EE270A704700234FF07E523F
:1018C000026043608360C360026143618361C361FE
:1018D0000262704713B501A9FFF7EFFF02B010BD18
:1018E00070B50D46064604460FCD0FC40FCD0FC48C
:1018F0002B682360304670BDD0ED047A90ED037AFA
:1019000067EEA77A70B5E7EE077A044646692DEDD3
:10191000028B17EE900A0D4615F0E0FC01463046AA
:1019200015F0DAFC21690646E06815F0D5FC08EEF2
:10193000100A216AA068B1EE488A15F0CDFC85ED49
:10194000028ABDEC028B80F000402E60686070BDA2
:101950002DE9F74F0FF2900BDBE900AB24A7D7E995
:101960000067044600F10C05206813F093FC324632
:101970003B4613F031FB1CA3D3E9002315F04EFACC
:1019800032463B4613F026FB13F0ACFF019013F0F8
:1019900081FC32463B468046894613F063FF48B1DE
:1019A00052465B464046494613F014FB13F09AFF3B
:1019B00020600BE010A3D3E900234046494613F012
:1019C0003DFF48B9DDED017AC4ED007A0434AC4244
:1019D000CAD103B0BDE8F08F52465B464046494647
:1019E00013F0FAFAE2E700BF182D4454FB21194026
:1019F000182D4454FB210940182D4454FB2109C0E3
:101A000008B50346D0E90002D9680A44032A02D186
:101A10009B68032B05D0034B034A04487C2117F035
:101A200011FF08BD15F80200B401030072FA0200AC
:101A300070B500260660D1ED027A8AB00022F1EE80
:101A4000677A0123CDE907230C4609930AA917EE0B
:101A5000903A054641F8243D069006A8FFF742FB60
:101A6000211DFFF73FFB04F10801FFF73BFB0AA92B
:101A700041F8206DFFF736FBD4ED007AF1EE677A7E
:101A80000AA917EE903A41F81C3DFFF72BFBD4ED65
:101A9000017AF1EE677A17EE903A0AA941F8183DFB
:101AA000FFF720FB2146FFF71DFB0AA941F8146D43
:101AB000FFF718FB06A8FFF7A3FF28460AB070BD82
:101AC00010B5D0E90034626894ED027A1B68890091
:101AD0000A44D2ED006AC6EE877A0B44C3ED007A61
:101AE00010BD10B58AB00B6803938B6804930AABE2
:101AF000044643F8240D0990069306A802AB002182
:101B00000793CDF820D0FFF7DBFF06A80121FFF7F0
:101B1000D7FF06A80221FFF7D3FF06A80321FFF78E
:101B2000CFFF06A80421FFF7CBFF06A80521FFF78A
:101B3000C7FF06A80621FFF7C3FF06A80721FFF786
:101B4000BFFF06A80821FFF7BBFF20460AB010BD63
:101B500043681B6889000B441A6803681B681944B2
:101B60000A6070477FB506ABCDE9042043F8140D39
:101B7000009102A800210293CDF80CD0FFF7E8FFF6
:101B800002A80121FFF7E4FF02A80221FFF7E0FF0E
:101B900002A80321FFF7DCFF02A80421FFF7D8FF0A
:101BA00002A80521FFF7D4FF02A80621FFF7D0FF06
:101BB00002A80721FFF7CCFF08210DEB0100FFF77A
:101BC000C7FF07B05DF804FB884213B5044602D096
:101BD00001AAFFF7C7FF204602B010BD10B5046888
:101BE000406824689FED0C7AD0ED026A02EB420354
:101BF00091420B4402694FEA83031C44F7EE007ADA
:101C0000134418BFF0EE477A93ED007AE6EE877A38
:101C1000C4ED007A10BD00BF00000000002210B526
:101C200011460446FFF7DAFF204600220121FFF7A4
:101C3000D5FF204600220221FFF7D0FF20460122D7
:101C40000021FFF7CBFF012211462046FFF7C6FF18
:101C5000204601220221FFF7C1FF20460222002177
:101C6000FFF7BCFF204602220121FFF7B7FF022247
:101C700011462046FFF7B2FF10BD000010B501EB82
:101C800082040460C0E9021200240121022AC0E992
:101C9000044105D9034B044A04487A2117F0D2FDC8
:101CA00010BD00BF42FC0200B0030300EDFB0200C8
:101CB00010B502EB420401EB840481600021C0E90D
:101CC0000312022A4FF003010460416105D9034B5E
:101CD000034A04487A2117F0B5FD10BD42FC02000A
:101CE0008C040300EDFB02002DE9F0411746026869
:101CF000D0F8048007EB470698B0731816680CA854
:101D00000A460CAC414606EB8306FFF7B7FF0FCC43
:101D100012AD0FC594E803003A4685E80300D8F8F1
:101D2000241006A8FFF7C4FF129B029301A8069B8C
:101D30000493FFF7ADFD86ED000A18B0BDE8F08111
:101D400010B5002204460121FFF7CEFF20460022F5
:101D50000221FFF7C9FF204601220021FFF7C4FF3F
:101D6000012211462046FFF7BFFF20460122022133
:101D7000FFF7BAFF204602220021FFF7B5FF2046F9
:101D800002220121FFF7B0FF022211462046FFF791
:101D9000ABFF10BD2DE9F04117460268D0F8048072
:101DA00007EB470698B0731816680CA80A460CACE7
:101DB000D8F8001006EB8306FFF760FF0FCC12ADDA
:101DC0000FC594E803003A4685E80300D8F80410EC
:101DD00006A8FFF76DFF129B029301A8069B0493D0
:101DE000FFF756FD86ED000A18B0BDE8F08100B59A
:101DF000D1E900238DB0CDE90723CDE909230323E1
:101E00000B930CAB002243F8280D039307AB04930C
:101E100001ABCDE90530114603A8FFF7BBFF03A8CE
:101E200000220121FFF7B6FF03A800220221FFF7DD
:101E3000B1FF03A801220021FFF7ACFF01221146E8
:101E400003A8FFF7A7FF03A801220221FFF7A2FFC3
:101E500003A802220021FFF79DFF03A8022201210F
:101E6000FFF798FF0222114603A8FFF793FF0DB07A
:101E70005DF804FBF0B593B00F4605AC054620466F
:101E80001646FFF7B4FFBB681093CDE90E34032369
:101E9000119312AB002243F8485D114601A8CDE929
:101EA0000134CDE90365FFF71FFF01A8FFF748FFE5
:101EB00013B0F0BD2DE9F04F2DED028BB5B09FEDC5
:101EC000928A019310AB01252B9300230DF1D00BC7
:101ED000CDE92C3518EE103A4BF8B03D8A46F7EEB6
:101EE000008A039059462BA891460DF1D0082E95F3
:101EF000CDED108AFFF7F6F818EE103A48F8AC3D31
:101F00004146FFF7EFF834AF18EE103A47F8A83D16
:101F10003946FFF7E7F80446DAF8000014F088FEC7
:101F200034AB43F8A40D204619460093FFF7DAF8C6
:101F30000646DAF8000080F0004014F01FFF34ACD1
:101F400044F8A00D30462146FFF7CCF834AE18EE29
:101F5000103A46F89C3D3146FFF7C4F80290DAF893
:101F6000000080F0004014F009FF34AA80F0004027
:101F700042F86C0D029B049211461846FFF7B2F826
:101F80000290DAF8000014F053FE0DF1D00A029B23
:101F90004AF8480D18465146FFF7A4F82BA8FFF75A
:101FA0002FFDD9F8000014F043FE049A2B92002371
:101FB000CDE92C35059234AB18EE102A43F8B42D38
:101FC000199019462BA804932E95FFF78BF80290D1
:101FD000D9F8000080F0004014F0D0FE80F00040FE
:101FE000089059460298FFF77DF841468DED098A21
:101FF000FFF778F83946CDED0A8AFFF773F80099B4
:102000008DED0B8AFFF76EF80290D9F8000080F092
:10201000004014F0B3FE21460C900298FFF762F8DE
:1020200031468DED0D8AFFF75DF80290D9F800007A
:1020300014F0FEFD514622900298FFF753F82BA8AA
:10204000FFF7DEFC019BD3F80090484614F0F0FD4A
:102050000023229089F00040CDE92C352E95CDF853
:10206000ACA014F08BFE34A941F8B80D2BA8FFF7F3
:1020700039F8049B8DED078A1946FFF733F8019B69
:102080000546186880F0004014F078FE80F00040AB
:10209000594608902846FFF725F8019B0546186821
:1020A00014F0C6FD414609902846FFF71BF8394653
:1020B0008DED0A8AFFF716F800998DED0B8AFFF770
:1020C00011F821468DED0C8AFFF70CF83146CDED65
:1020D0000D8AFFF707F82BA8FFF792FC059A0F92DD
:1020E00010AB224631462BA80E93CDF834A0FFF753
:1020F000C1FE32462BA90398FFF734FD35B0BDEC85
:10210000028BBDE8F08F00BF000000001FB5044641
:10211000096812681B68019101A802920393FFF7F6
:1021200017FC03AB02AA01A92046FFF7C3FE04B0C7
:1021300010BD4369D0ED017A1A44036902EB4202F3
:1021400019440A44C16801EB820292ED007A67EEFD
:10215000277A17EE900A7047F0B52DED028B022911
:1021600091B00C468768C66805D91C4B1C4A1D48AF
:102170007A2117F067FB41696846FFF799FDCDE9C1
:102180000A640024009D08972246214607A80C9463
:102190000E95FFF7CEFF214608EE100A012207A890
:1021A000FFF7C7FF022208EE900A214607A8FFF7B3
:1021B000C0FFD5ED027A07EE100A67EE277A95ED9B
:1021C000017AE8EE877A95ED007AE8EE077A17EE65
:1021D000900A11B0BDEC028BF0BD00BF42FC0200C2
:1021E00019020300EDFB020038B50568406802EBF8
:1021F000420463182C6804EB8304FFF7ADFFD4EDB1
:10220000007A07EE100A77EE877AC4ED007A38BDBF
:10221000D1ED027AD1ED016A91ED007A67EEA77AED
:10222000F0B5E6EEA67A04460D462DED028BE7EEFC
:10223000077A9FB012AE17EE900A15F04FF808EE2D
:10224000100AB5EEC08AF1EE10FA08D831462046E1
:10225000FFF733FB20461FB0BDEC028BF0BD2946D3
:10226000304609ADFFF7E4FB05A928468DED078A46
:102270000596FFF736FC18EE100A14F07FFD0746AE
:1022800018EE100A14F0D4FC14971EAF07EE900A53
:1022900047F8684D03ABB7EE008A05A838EE678AA9
:1022A000169507930193CDE905760894FFF7B6FCE0
:1022B000019B1595CDE90447CDE907340322179515
:1022C000CDE91B558DED148A8DED198A1D92069668
:1022D00000252A46002105A8FFF786FF2A4601218E
:1022E00005A8FFF781FF2A46022105A80135FFF75F
:1022F0007BFF032DEDD1ADE730B597B004AD0446BB
:102300002846FFF785FF02A90DA8CDE90245FFF792
:102310006EFD01AA0DA92046FFF724FC17B030BDC1
:1023200000F1080373B50360044608460D4619F032
:10233000E7FA0F2805EB0006019007D9002201A952
:10234000204611F07DFC019B2060A36032462946A7
:10235000206811F0A1FC019B2268636000212046E7
:10236000D15402B070BD000038B52DED048B08EEDD
:10237000103A00F11C0343610023044609EE101AD1
:1023800000F114058361037747490A9808EE902A03
:1023900011F0E4FC002859D119EE100A12F07AFF6E
:1023A0003BA3D3E9002312F0CDFF3BA3D3E90023E5
:1023B00013F0F2F813F096FA206018EE900A12F07B
:1023C00069FF33A3D3E9002312F0BCFF0022374B8F
:1023D00013F0E2F813F086FA606018EE100A12F0BB
:1023E00059FF2BA3D3E9002312F0ACFF2CA3D3E9B0
:1023F000002313F0D1F813F075FAA060089812F0DA
:1024000049FF23A3D3E9002312F09CFF22A3D3E9C1
:10241000002313F0C1F813F065FAE060099812F098
:1024200039FF1BA3D3E9002312F08CFF1AA3D3E9D1
:10243000002313F0B1F813F055FA20610A992846E9
:1024400011F038FCBDEC048B204638BD18490A98C1
:1024500011F084FC0028F1D1DFED167A9DED087AA9
:1024600027EE277A29EE279A84ED037A9DED097AE3
:1024700084ED009A68EEA78A28EE278A67EE277A0D
:10248000C4ED018A84ED028AC4ED047AD6E700BF68
:10249000399D52A246DF913F000000000020AC4071
:1024A00000000000005E0A416705030000004E4086
:1024B0006C050300AE6A24372DE9F043DFF83C9049
:1024C0008BB00546044600F1840804AE0027494657
:1024D0003046FFF725FF00231A461946204602968C
:1024E00001970097FFF740FF2C34304611F0CCFBEA
:1024F000A045ECD128460BB0BDE8F083670503008A
:102500000B6810B503604B6843608B688360CB68D1
:10251000C3600B69036104461431143011F0CAFB27
:10252000204610BDF8B5044604F1840715460E4652
:10253000FFF7C2FF3846FFF7BFFF31462046FFF7DF
:10254000DFFF314604F12C00FFF7DAFF314604F1DA
:102550005800FFF7D5FF29463846FFF7D1FF294637
:1025600004F1B000FFF7CCFF294604F1DC00FFF7CF
:10257000C7FF2046F8BDCA6802608A6B42604A6E97
:10258000826070474A6802600A6B4260CA6D82606E
:102590007047D1F884200260D1F8B0204260D1F8B1
:1025A000DC2082607047D1F894200260D1F8C0200E
:1025B0004260D1F8EC2082607047D1F89020026030
:1025C000D1F8BC204260D1F8E82082607047F8B5AD
:1025D000074600F1140501F1140401F1980654F8BE
:1025E000143C45F8143C54F8103C45F8103C54F8A1
:1025F0000C3C45F80C3C54F8083C45F8083C54F8B1
:10260000043C45F8043C214628462C3411F088FB54
:10261000B44205F12C05E2D13846F8BD38B5044680
:102620000D46FFF7D4FF05F1840104F18400FFF7A4
:10263000CEFF204638BD000070B5EEB005462CAC8C
:10264000042900F2E880DFE801F0550337759300B4
:102650007F492046FFF764FE7E497F4B01914FF092
:102660007C520091029416A8FFF77EFE204611F0DE
:102670000BFB7A492046FFF753FE794B79497A4A9A
:102680000093029401914FF0824321A8FFF76CFE62
:10269000204611F0F9FA21AA16A92046FFF742FFB9
:1026A00021462846FFF7BAFF2046FEF7E5F826A8A0
:1026B00011F0EAFA1BA8A9E065492046FFF730FEB1
:1026C0006A496B4B6B4A0191009302946A4B16A8BE
:1026D000FFF74AFE204611F0D7FA60492046FFF77F
:1026E0001FFE4FF080436549009302940191624BB5
:1026F000634ACAE756492046FFF712FE564B01933C
:102700005F4B604A009300215F4B029416A8FFF7CD
:102710002BFE204611F0B8FA50492046FFF700FE84
:102720005A4B01935A4A5B4B009302944FF07E53ED
:102730000021AAE746492046FFF7F2FD524B0193DC
:10274000524B554A00930021544B029416A8FFF7B0
:102750000BFE204611F098FA40492046FFF7E0FDB5
:102760004F4B01934F4B009302944F4B4F4ADFE77F
:1027700037492046FFF7D4FD434B0193434B464A6C
:1027800000930021454B02940BA8FFF7EDFD204676
:1027900011F07AFA31492046FFF7C2FD404B019310
:1027A000404B424A009300213F4B029416A8FFF78A
:1027B000DBFD204611F068FA05AE16AA0BA92046EB
:1027C000FFF7B0FE22493046FFF7AAFD384B0193D0
:1027D000384B394A00930021384B029621A8FFF765
:1027E000C3FD304611F050FA21A942A8FFF788FE38
:1027F00021462846FFF712FF26A811F045FA204689
:10280000FEF73AF81BA811F03FFA10A811F03CFAB5
:1028100028466EB070BD00260D492046FFF780FDAA
:102820003346274A029431460196009616A8FFF7D0
:102830009BFD204611F028FA08492046FFF770FD5D
:10284000204B0093029401963346324631461CE7F2
:102850006705030000007A43000034426C05030062
:1028600000803B450000FA4400005C430000484201
:10287000000016435A64BB3E0000704100000C4447
:102880000000C8429A99193E0000A04100009643FA
:10289000000020420000FA43CDCCCC3E0000E040D6
:1028A0000000AF4300007A449A9959400000AA42C0
:1028B0000000204014AEA341CDCC4C3DCDCC2C40EB
:1028C0000B045C4000002F444A780B7843EA022353
:1028D0000380CA788B7843EA022343804A790B79D4
:1028E00043EA02238380704782B00388ADF800304A
:1028F0004388ADF802308388ADF8043091F8272082
:1029000091F824305B00E2B902AA134433F8083C82
:10291000038091F8253002AA02EB430391F82820A6
:1029200033F9083C9AB9438091F8263002AA02EBA9
:10293000430391F8292033F9083C52B9838002B04F
:10294000704702AA134433F8083C5B42E0E75B425D
:10295000E9E75B42F2E748B1836B3BB1C36B2BB154
:10296000006CB0FA80F04009404270474FF0FF30F1
:1029700070472DE9F04804460025231ADBB299423E
:1029800002D82846BDE8F08814F8013B012B0FD08F
:1029900006D3022B11D0202B14D06FF00705ECE7E3
:1029A000D2E9006746F0010BBC46C2E900BCE4E78F
:1029B000D2E9006746F0020BF6E7D2E9006746F07D
:1029C000040BF1E7D2E90067B34647F0010CECE7EE
:1029D00010B588B104788C423FBF0170197841F07E
:1029E000010119700178914204D902701A7842F0FD
:1029F00002021A70002001E04FF0FF3010BD2DE9F7
:102A0000F0418046A0B018460D4616461C46FFF71A
:102A1000A2FF50BB49B3637A0BB948F08008E27A51
:102A20006368A76B324469464046B84794F847301C
:102A3000A072012B0CBF4FF4E1700220236C61687F
:102A4000984794F90A0098B92A46511B8BB29E42C6
:102A500002D820B0BDE8F081E37A20AF3B440B44BC
:102A600013F8803C02F8013BEFE74FF0FF30F0E74E
:102A70006FF00100EDE7000007B5034601220DF1FC
:102A800007011B20FFF7BBFF48B99DF80730C3F3D0
:102A90008203013BDBB2022B9CBF024AD05603B03B
:102AA0005DF804FB7105030013B5002304460846D6
:102AB000ADF80430FFF74FFFB8B90B46022201A969
:102AC0004020FFF79CFF70B99DF80430DA09A2702E
:102AD000C3F3021203F00F0323709DF805306270F8
:102AE00003F00303E37002B010BD4FF0FF30FAE7CC
:102AF00013B5002304460846ADF80430FFF72BFF5A
:102B0000E8B90B46022201A94220FFF778FFA0B9DD
:102B10009DF80430DA09A270C3F380126271C3F326
:102B2000011203F00F0323709DF805306270C3F3A8
:102B3000C00203F00703E270237102B010BD4FF032
:102B4000FF30FAE7F8B5054618460E461C46FFF773
:102B500002FF20BB19B3637A0BB905F07F056368E8
:102B6000E76B31462846B84794F84730A072012BEE
:102B70000CBF4FF4E1700220236C616898477C2DF4
:102B800006D1337813F0010318BF012384F84730CE
:102B900094F90A00002818BF6FF00100F8BD4FF04B
:102BA000FF30FBE773B515461E460446A0B1C1F3DE
:102BB000430249098DF804208DF80510022201A96D
:102BC0005B20FFF7BFFF28B933462A4621465E2027
:102BD000FFF7B8FF02B070BD4FF0FF30FAE773B5F2
:102BE00002AC002304F8013D06460D460B460122C7
:102BF00021465920FFF703FF60B99DF8070020F038
:102C0000010030438DF807002B4601222146592050
:102C1000FFF798FF02B070BDF7B50D4605F1080645
:102C200004460021334601220230ADF80410FFF7BC
:102C3000CFFE002838D1A378671C012B0CBF0322DC
:102C40000722014633463846FFF7C2FE60BB0C221E
:102C500001212046FFF7BCFE30BB03220146A0182D
:102C6000FFF7B6FE00BB6378A2781B0103F0700388
:102C700043EAC213227802F00F0213438DF80430A6
:102C8000E2789DF8053002F0030223F003031343BA
:102C90008DF8053002222B4601A94020FFF752FF94
:102CA00010B92846FFF7E8FE03B0F0BD73B50D4636
:102CB00005F1080604460021334601220230ADF832
:102CC0000410FFF785FE002857D101460322601C3F
:102CD000FFF77EFE002850D101460122601DFFF75C
:102CE00077FE002849D10D2206212046FFF770FE0D
:102CF000002842D101460122E01CFFF769FE0028AE
:102D00003BD104220146A018FFF762FEA8BB9DF844
:102D10000430A27803F07F0343EAC2136279920180
:102D200002F0400223F0400313436278120102F0E4
:102D3000300223F030031343227823F00F0302F014
:102D40000F0213438DF80430E378DB0003F0080230
:102D50009DF8053003F0F0031343227902F00702D7
:102D600013438DF8053002222B4601A94220FFF7BC
:102D7000E9FE10B92846FFF77FFE02B070BD37B5F7
:102D80000023054608460C468DF80730FFF7E3FDA3
:102D9000F0B90B4601220DF107017C20FFF72FFE51
:102DA000B0B99DF8070005F0010520F001002843A7
:102DB0008DF80700234601220DF107017C20FFF763
:102DC000C1FE38B99DF8073003F0010384F847309D
:102DD00003B030BD6FF00C00FAE773B50023044672
:102DE00008460D46ADF804308DF80630FFF7B3FD08
:102DF00000285ED1002C5CD02678731E022B5BD895
:102E00000B46032201A95320FFF7F9FD00284ED1FC
:102E100006F0FD03012B1BD1A3785B0003F0020237
:102E20009DF8043003F0F9031343E278920002F0B6
:102E3000040213432279D20002F0080203F0E703F0
:102E400013436279120102F0100213438DF804302B
:102E5000023E012E1BD8A3795B0003F002029DF80D
:102E6000053003F0F9031343E279920002F0040203
:102E70001343227AD20002F0080203F0E70313435F
:102E8000627A120102F0100213438DF805309DF8AA
:102E90000630627823F0010302F0010213438DF83B
:102EA000063003222B4601A95320FFF74BFE02B048
:102EB00070BD4FF0FF30FAE76FF00B00F7E713B586
:102EC000002304460846ADF80430FFF744FD80B9FE
:102ED0007CB10B46022201A91C20FFF790FD30B9FE
:102EE0009DF805209DF8043043EA0223238002B0B8
:102EF00010BD4FF0FF30FAE72DE9F043174685B0DB
:102F00000446002200233846CDE90223FFF723FDC3
:102F1000002852D1002C50D002AA2046FFF729FDEC
:102F2000002847D104AE3B4606F8090D0122314680
:102F30007D20DDE90289FFF762FD00283AD10023F8
:102F400008F0010213431EBF9DF8073043F004034D
:102F50008DF8073008F00202002313431EBF9DF8CE
:102F6000073043F002038DF8073008F00402002315
:102F700013431EBF9DF8073043F001038DF807305F
:102F8000002209F00103134318BF9DF8073008F031
:102F9000070418BF43F0080309F0010518BF8DF8B6
:102FA000073054EA050305D03B46012231467D2017
:102FB000FFF7C8FD05B0BDE8F0834FF0FF30F9E73B
:102FC0002DE9F04188B00E4605460021142203A8E1
:102FD0008DF8071018F0B4F83046FFF7BCFC002855
:102FE00040F09880002D00F09580334601220DF1CD
:102FF00007017D20FFF703FD00287DD19DF80740E4
:1030000014F0010F14BF4FF008084FF0000814F03F
:10301000040718BF08F1060714F002041CBF08F1EA
:103020000604E419B8F1000F07D0002F75D0002C6A
:1030300014BF14220E22042005E0002F72D0002CB1
:103040005DD106220C20334603A9FFF7D8FC0028E7
:1030500052D1ADF808008DF80A00B8F1000F0BD07E
:103060000DF10B0205F1170305F11F0112F8010F15
:1030700003F8010F9942F9D147B103ABB91F1944C5
:103080002846FFF721FC3146FFF72EFC14B305F16B
:103090000C04B8F1000F4CD00DF11A012046FFF7D7
:1030A00013FC298AB6F84420B5F90C3012FB01F262
:1030B0004FF4007192FBF1F212B29B1AB3F5004F7C
:1030C00023DA13F5004F23DB1BB2AB8131462046D8
:1030D000FFF70AFC3346032202A91820FFF78FFCF2
:1030E00050B99DF809309DF80A201B0243EA0243BB
:1030F0009DF8082013432B6208B0BDE8F0810C2234
:103100001046A0E70DF11201C8E747F6FF73DCE7B0
:103110000A4BDAE74FF0FF30EEE7002C14BF142221
:10312000082288E7002C0BBF2246062220461220E8
:1031300089E7002FE6D103A9B0E700BF0080FFFFB9
:1031400010B504460846FFF706FC40B93CB10B46F3
:10315000012221460320BDE81040FFF750BC4FF08C
:10316000FF3010BDF7B502AC002304F8013D064660
:103170000F4615461346214601225820FFF73FFC13
:10318000B0B9032F19D83301022FD8B29DF80730F8
:1031900011D0032F0ED0012F1ABF30438343334386
:1031A0008DF8073001222B4621465820FFF7CAFC34
:1031B00003B0F0BD33430343F2E76FF00B00F7E7D2
:1031C00070B5054608460C46FFF7C5FB60B95DB112
:1031D0000B6C07484968984723462946012221205D
:1031E000BDE87040FFF70BBC4FF0FF3070BD00BF73
:1031F000E0220200F7B5002304468DF80730FFF700
:10320000AAFB00287DD1B4F84A60002E79D0E3896A
:10321000DA0744BF03F1FF33E381E389012B9CBF4D
:103220000223E38121460020E789FFF7A8FD03463A
:1032300060BB2146FFF7D3FC034638BBB6FBF7F56E
:1032400007FB156515F0FF0523D0751BADB20746CA
:10325000BD4220D9D3B92069E28923463946384492
:10326000FFF7A0FCE28917440346BFB2F0E72069EC
:10327000E289234629462844FFF794FCE289154455
:103280000346ADB2AE420ED9002BF0D0184603B0C3
:10329000F0BD0546F6E7002BF8D10222E789E2816E
:1032A000AE4220D8E781002BF0D121460120FFF764
:1032B00096FC03460028E9D121460120FFF75FFD77
:1032C00003460028E2D121460DF10700FFF778FF01
:1032D00003460028DAD19DF8072012F0010F08BF3D
:1032E0006FF00803D2E7002BDCD12069E289234686
:1032F00029462844FFF756FCE28915440346ADB23F
:10330000CEE74FF0FF33C1E737B5B6238DF806306F
:10331000002305468DF80730FFF71DFB0446B8B9BA
:1033200001222B460DF106017E20FFF70BFC2B6CD2
:10333000696804464FF4FA609847012285F84720EF
:1033400034B96B7A3BB12846FFF754FF044660B1AD
:10335000204603B030BD20462B460DF10701FFF794
:103360004EFB04460028F3D1EDE700220023C5E917
:103370000C23EDE713B500238DF807300446FFF763
:10338000EAFA034668B9637A012284F847205BB100
:10339000234601220DF107010020FFF730FB034611
:1033A00058B1184602B010BD23460DF10701FFF7D2
:1033B00026FB03460028F4D1EAE79DF80720217890
:1033C00091420BD1102222730122E275054A208519
:1033D00062622046FFF798FF0346E2E722706FF033
:1033E0000203DEE7000102002DE9F74314468DF8E1
:1033F00007008946002942D0002A40D0127DC3B27E
:103400009A423FD9234601220DF107012F20FFF7F1
:1034100099FB30BBE3890F2B2AD8DA0748BF03F1A9
:10342000FF334FF0000648BFE3813027B046102538
:10343000E089AAB2824209EB0801234614D302466E
:103440003846FFF7DCFAA57BA8442F445FFA88F8DA
:10345000FFB22E44F6B2C6F11005EDB208B9002D48
:10346000E6D103B0BDE8F0833846FFF7C8FAF0E7CD
:103470002346102249463020FFF7C1FAF1E74FF00A
:10348000FF30EEE76FF00900EBE77FB50E4604462C
:1034900010220021684617F053FEB57D0023DAB2F2
:1034A000AA4202D36FF007000FE003EB4302316A38
:1034B00088188A5C092A03F10103F0D185784078E5
:1034C00032466946FFF790FF08B104B070BD04AB07
:1034D0001D4415F8103C03F001022270C3F34002B2
:1034E0006270C3F38002C3F3C203A270E370ECE71F
:1034F0002DE9F043074687B010461646FFF72BFA32
:10350000044600286ED1002F6CD03D1D92F84780F4
:1035100007EB01170437BD4203D1204607B0BDE8D1
:10352000F08315F8043C032B07D9B8F1010F04D13F
:1035300031460020FFF723FC044674BB15F8043C19
:10354000092B48D0292B0ED11022214602A817F0B2
:10355000F7FDB6F848309B0608D496F816C0234607
:10356000DAB294451BD86FF00704D6E73346012240
:103570000DF107011E20FFF742FA08BB9DF8073046
:1035800013F0400F18BF803B2B80B8F1010F04D11E
:1035900031464046FFF7F3FB04461035BBE703EB2B
:1035A0004302316A88188A5C292A03F10103D7D1C2
:1035B00090F802904078324602A9FFF715FF08B153
:1035C0000446AAE706AB994419F8102C02F07F03D1
:1035D00012F0400FD6E731462846FFF756FF002885
:1035E000D3D0EDE74FF0FF3497E71FB5B0F8483080
:1035F0009B07044611D5FFF7AEF988B904A8292323
:1036000000F8103D22460121FFF772FF18B9BDF8FE
:103610000430A4F8443004B010BD6FF00700FAE79E
:103620004FF0FF30F7E7F0B5577D0023DCB2A7423B
:1036300001D800200DE003EB4305D6697419755DD0
:103640008D4203F10103F1D123880380A3788370B5
:103650000120F0BD2DE9F04F044687B01046154615
:10366000FFF779F9002840F05681002C00F05381D3
:103670004FF0340818FB014892F847A0DFF89CB2DD
:10368000A61C08F10208814602AFB04505D1BAF187
:10369000010F00F03A8100241AE0BAF1010F10D0B6
:1036A00016F8023C092B00F2EA80DFE813F015005F
:1036B0001B002000E800E800E800E800E800E8005F
:1036C000D90029460020FFF75AFB04460028E7D01E
:1036D000204607B0BDE8F08F29463046FFF79CFA38
:1036E0000446A7E029463046FFF7E0FAF8E705F17F
:1036F00008030B220121701DFFF76AF90446002818
:10370000E6D12B46012239466B20FFF778F90446B3
:103710000028DDD133789DF808205B0122F02002DB
:1037200003F0200313438DF8083001222B4639465D
:103730006B20FFF707FA04460028C9D1ADF808004E
:103740008DF804002B46022239464B20FFF757F92B
:1037500004460028BCD19DF80830F27903F001033B
:1037600043EA42038DF808309DF80930727803F07F
:103770007F0343EAC213B278920102F0400223F0C1
:1037800040031343F278920002F00C0223F00C0382
:103790001343327923F0030302F0030213438DF83D
:1037A00009301524294601A8FFF7CAFC00284BD18F
:1037B0009DF804305B0747D42B46394602224B2044
:1037C000FFF7C0F92B6C696804464FF47A7098478C
:1037D000002C7FF47DAF73788BBBEC752B4606F124
:1037E000080101224D20FFF7ADF92B6C69680446F2
:1037F0004FF47A709847002C7FF46AAF2B46012271
:1038000039464420FFF7FBF8044698B97379B2793A
:1038100003F00F0343EA02138DF8083039462B46B4
:1038200001224420FFF78EF92B6C696804464FF49F
:103830007A7098473436002C3FF427AF48E70123CD
:10384000EB75F3782B76D9E72B6C696842F2107030
:10385000013C984714F0FF04A4D16FF00E0437E741
:1038600010220021384617F06BFC2A46092101A8D6
:10387000ADF804908DF80690FFF7D5FE10B96FF003
:10388000070425E739469DF80500FFF7ADFD04461E
:103890000028CFD19DF80630B6F800C05A0810B203
:1038A000CCF30A0C37F8101001EA0B0141EA0C01C5
:1038B00027F81010501CB6F802C037F81010CCF3DF
:1038C0000A0C01EA0B0141EA0C0127F81010901CC8
:1038D000B6F804C037F81010CCF30A0C01EA0B015B
:1038E00041EA0C010332C3EB420327F8101003F046
:1038F000FF03E2B2934206D82B461022394630200D
:10390000FFF720F9ECE60134F3E729465046FFF7CC
:1039100036FA0446DCE64FF0FF34D9E600F8FFFF44
:103920002DE9F041804686B010461546FFF713F8A2
:1039300020B14FF0FF3006B0BDE8F081B8F1000FC4
:10394000F7D0342616FB018692F8477008F102047E
:103950000236B44203D1012F73D00020EBE714F8F4
:10396000023C032B0CD8022B73D014F8023C092B19
:103970006CD8DFE803F00E16706B6B6B6B6B6B1B18
:10398000012FF2D129460020FFF7F9F90028D2D102
:10399000EBE729462046FFF787F8002800F0A680CD
:1039A000C9E729462046FFF7A3F8F6E710220021D1
:1039B00002A817F0C5FB00232A46092101A8ADF88B
:1039C00004308DF80630FFF72EFE00283ED002A905
:1039D0009DF80500FFF708FD0028ACD19DF80630E2
:1039E00006A95A1C51FA82F212F8101C06AA1A44AF
:1039F00012F8102C42EA0122C2F30A0206A9228020
:103A0000DA1C51FA82F2991C12F8100C06AA52FA2A
:103A100081F111F8102C42EA0022C2F30A0206A931
:103A200062805A1D043351FA82F251FA83F312F87C
:103A3000102C13F8103C43EA0223C3F30A03A380BB
:103A400054E029463846FFF79AF974E76FF007000B
:103A500071E7012F96D02846FEF77DFF00287FF4FE
:103A600068AF2B46012202A96B20FEF7C8FF002891
:103A70007FF461AF9DF80830ADF80800C3F3401340
:103A8000237002222B4602A94B20FEF7B8FF002824
:103A90007FF451AF9DF808305B08E3719DF8093061
:103AA000C3F38011DA09A170C3F3810103F00303AA
:103AB0006270E17023714AB92B46012204F10801BA
:103AC0004D20FEF79CFF00287FF435AF2B460122E6
:103AD00002A94420FEF793FF00287FF42CAF9DF845
:103AE00008301A0903F00F03A2716371343430E710
:103AF00048B1836B3BB1C36B2BB1006CB0FA80F063
:103B00004009404270474FF0FF30704710B50446FF
:103B1000FFF7EEFF034610BB24222270104AA26476
:103B2000627A02B90123E37223690BB90D4B236159
:103B30002046FFF71FFC90B90B4BE3610B4B236250
:103B400041F20813A3820723A375094BE3650823F9
:103B500084F860302046BDE81040FFF746BD10BD38
:103B6000030000207405030074250300A72503004B
:103B70000402002058B1C3684BB103693BB14369EB
:103B80002BB14068B0FA80F04009404270474FF0D6
:103B9000FF30704710F5805F30B502D0D38C19B973
:103BA0000BB9194830BD19469B0393FBF1F1A1F500
:103BB000804109B201FB01F3802493FBF4F392F8F6
:103BC000244092F92550E401614305FB03114FF4B1
:103BD000007391FBF3F192F91A3001F58011A033D3
:103BE00059434FF4805391FBF3F14FF40053484392
:103BF00090FBF3F092F9183000B200EBC3001023F1
:103C000090FBF3F000B2CDE70080FFFF10F5805F7E
:103C100030B502D0D38C19B90BB9194830BD19464B
:103C20009B0393FBF1F1A1F5804109B201FB01F384
:103C3000802493FBF4F392F8244092F92550E40198
:103C4000614305FB03114FF4007391FBF3F192F90B
:103C50001B3001F58011A03359434FF4805391FB81
:103C6000F3F14FF40053484390FBF3F092F919300D
:103C700000B200EBC300102390FBF3F000B2CDE7DD
:103C80000080FFFF10F5804F70B529D0B2F91E40BB
:103C900034B3938B23B319B3D68C0EB3B2F922503D
:103CA0008E1B4900451B4B43108C03F5004304EB6E
:103CB000234310FB06F0042290FBF2F0C0EBC5306A
:103CC00090FBF3F0074B9842B8BF184647F6FF73D6
:103CD0009842A8BF1846102390FBF3F000B270BDC5
:103CE0000148FBE70180FFFF0080FFFFF8B50746B2
:103CF00018461D46FFF73EFF044640B939B132B1C0
:103D00002E696B683846B04728722046F8BD4FF0E0
:103D1000FF34FAE7F8B5064618461C46FFF72AFFB7
:103D2000054660B959B16378E768012B18BF46F0C2
:103D3000800663683046B84720722846F8BD4FF0C9
:103D4000FF35FAE773B502AC002304F8013D0646DF
:103D50000D460B46012221464B20FFF7DBFF78B9C9
:103D60009DF8073023F0010333438DF8073001221B
:103D70002B4621464B20FFF7B9FF08B985F82A608A
:103D800002B070BD38B50446FFF7F4FE054660B9D1
:103D900094F82A304BB921460120FFF7D3FF63691D
:103DA0006168054640F6B8309847284638BD10B5DA
:103DB00086B004460023014601208DF80330FFF74A
:103DC000C1FF002857D16369616840F6B830984751
:103DD000234601220DF103014020FFF79BFF00283D
:103DE00049D19DF80330322B47D12370ADF8040040
:103DF000CDE902000490ADF814002346022201A987
:103E00005D20FFF787FFB0BB2346042202A9622092
:103E1000FFF780FF78BB23460A2203A96820FFF73B
:103E200079FF40BB9DF8043023769DF8053063761A
:103E30009DF80A30A3769DF80B30E376BDF80E307E
:103E4000A383BDF80C30E383BDF812302384BDF8A2
:103E5000083063849DF8153084F824309DF81430C0
:103E600084F825309DF811309DF810201B0203F4D2
:103E7000FE431343E38406B010BD6FF00100FAE780
:103E800037B50B4604460D4601220DF107014C20C3
:103E9000FFF740FF80B99DF80700640020F006009E
:103EA00004F0060420438DF807002B4601220DF193
:103EB00007014C20FFF71AFF03B030BD37B50B46A2
:103EC00005460C4601220DF107014C20FFF722FFA9
:103ED00088B92B789DF80720DB0022F0380203F028
:103EE000380313438DF80730012223460DF10701F3
:103EF0004C20FFF7FBFE03B030BD73B50546023022
:103F00000E46FFF7DBFF98B902ACEB7804F8013DF1
:103F10000122334621465120FFF7E8FE40B92B79B4
:103F20008DF807300122334621465220FFF7DEFE8E
:103F300002B070BD10B5024608460C46FFF71AFEE7
:103F4000034640BB5378042B23D8DFE803F0030D6E
:103F500022151D000846FFF715FF0346D8B9214674
:103F6000BDE81040FFF78CBF0846FFF70BFF034684
:103F700088B921460120F3E70846FFF703FF03460F
:103F800048B921460320EBE70020BDE81040FFF7C9
:103F9000D9BE6FF00203184610BD08B502460846A8
:103FA000FFF7E8FD28BB5379013B032B1FD8DFE85F
:103FB00003F0020C1218002393700123D3701371C5
:103FC0001046BDE80840FFF798BF00239370042314
:103FD000D3700723F3E7052393701723D3702923A6
:103FE000EDE7002393700723D3700D23E7E76FF00D
:103FF000020008BD13B500230446CDE900330822B2
:104000000B464B206946FFF785FE80BB9DF80730C5
:1040100023719DF80630E3709DF8053023749DF8F8
:104020000430E3739DF80330C3F3C2022270DA094F
:10403000A271C3F38012E271C3F380022272C3F350
:10404000400203F00103A3729DF802306272DA09A4
:10405000E272C3F380122273C3F3C20203F00703B8
:10406000A3739DF801306273C3F3C203A37002B05F
:1040700010BD2DE9F7430023CDE9003307460B4679
:104080000E46082269464220FFF744FE804690BB58
:104090009DF802509DF903209DF905909DF806407A
:1040A0009DF800309DF90100ED088DF8025045EAB9
:1040B00042159DF8042052088DF8042042EAC919DF
:1040C0009DF80720A408DB088DF8064044EA821416
:1040D00043EA4010324621468DF80030FFF75AFD82
:1040E000214638802846FFF791FD214678804846D2
:1040F000FFF7C8FDB880404603B0BDE8F08313B5B4
:104100000346044601220DF107014820FFF702FE95
:1041100080B9234601220DF106014A20FFF7FAFD7E
:1041200040B99DF8073003F001029DF8063043EADC
:104130000223238502B010BD2DE9F04180461746C9
:104140001C460E4629B3531E1F2B22D82068257902
:1041500003682946DB6A98472068036841461B6864
:104160009847206803685B6B984790B9206803689C
:104170003A462946DB6B98473546C7B2AB1B9BB224
:104180009F420AD9206803685B69984705F8010BCC
:10419000F4E74FF0FF30BDE8F0810020FBE713B5F6
:1041A000044600F138010DF10600FEF788FEBDF867
:1041B0000630B4F8CC00184300F40040C3F30E03FB
:1041C000A4F8CC3002B010BD13B5044600F138019C
:1041D0000DF10600FEF773FEBDF80630B4F8CC0012
:1041E000184300F4804023F48043A4F8CC3002B09C
:1041F00010BD00000000000000B58FB00EAB002223
:1042000003F8342D012100F138021846FFF788FB2E
:104210009DF806300120984011F02AF804A3D3E954
:10422000002311F08FF811F05DFB0FB05DF804FB77
:10423000F6285C8FC2F5D83F10B58EB00EAB0124C6
:1042400003F8344D00F1380221461846FFF768FBA9
:104250009DF8060004FA00F011F00AF804A3D3E96F
:10426000002311F06FF811F03DFB0EB010BD00BF40
:10427000F6285C8FC2F5D83F30B58BB00D4600F103
:10428000380101A81446FEF79BFEBDF91030DFEDA2
:10429000257A9FED256A07EE103AB8EEC77ABDF988
:1042A0001230C7EE276AB0FA80F0400907EE103AE4
:1042B000B8EEC77AC5ED006AC7EE276ABDF91430BB
:1042C00007EE103AB8EEC77AC5ED016AC7EE276A65
:1042D000BDF9043007EE103AB8EEC77AC5ED026AB0
:1042E00027EE067ADFED116ABDF9063027EE267A51
:1042F00084ED007A07EE103ABDF9083007EE903AE7
:10430000B8EEC77AF8EEE77A27EE067A67EE867A95
:1043100027EE267A67EEA67A84ED017AC4ED027A5A
:104320000BB030BD6F12834200000039CBA11C419D
:1043300010B50446A030FFF7E2FEB4F8C80000F460
:10434000807010BD7FB500F1A00101A8FFF752FEFB
:104350009DF80620072A9BBF034B03EB8203002036
:10436000186807B05DF804FBD425030070B59EB053
:104370004FF48073ADF800304FF001130193002328
:1043800001264FF484728DF81030022440F201139C
:1043900001A80D46ADF80860ADF81220ADF8143054
:1043A0008DF84460ADF84620ADF848308DF84A40AD
:1043B000FEF713FD80B92A4631460420FEF7D2FEEF
:1043C00050B92A46214604A8FFF744F920B92A46E5
:1043D00021466846FEF790FD1EB070BD10B586B050
:1043E000002301A80C468DF80530FFF7A3FD30B976
:1043F0000323214601A88DF80930FFF7CEFD06B052
:1044000010BD03F061B808B501210D2003F0B8F824
:1044100000210D2003F0F8F8642003F053F8012187
:104420000D2003F0F1F8642003F04CF8F0E7F8B544
:10443000074615461E460C46E9B1531E1F2B1AD8D7
:10444000306831790368DB6A984730680368394619
:104450001B68984725443068A542036804D01B6850
:1044600014F8011B9847F6E75B6B9847003018BFBC
:1044700001204042F8BD4FF0FF30FBE7036837B53D
:104480009B6905460C46984700B305F1A0016846B4
:10449000FFF7EFFDBDF9003007EE903ABDF90230AD
:1044A000F8EEE77AB0FA80F0C4ED017A07EE903AC0
:1044B000BDF90430F8EEE77A5B42C4ED007A07EE0E
:1044C000903AF8EEE77A4009C4ED027A03B030BDC5
:1044D000006870470022C26070470C307047CB689C
:1044E000C3600BB15B6818477047000030B5C46803
:1044F00087B00D46002C00F0968201F12203222B9A
:1045000000F28282DFE813F0700260025002400283
:104510003002200210020002F001E001D0019001FF
:104520008001700160015001400130012001100143
:104530000001F000E000D000C000B000A00090003A
:104540008000700060005000400023008F02BE49D0
:1045500003A802F0ABFE0A224FF0FF31684602F0DA
:10456000C4FE694603A802F005FFB84902F00EFF39
:104570000146204602F048FD684602F04CFE03A8C2
:1045800002F049FEFFF73FFFAF4903A802F08EFE9D
:104590000A226FF00101684602F0A7FE694603A8EF
:1045A00002F0E8FEAA49E1E7A74903A802F07EFE6F
:1045B0000A226FF00201684602F097FE694603A8DE
:1045C00002F0D8FEA349D1E79F4903A802F06EFE8E
:1045D0000A226FF00301684602F087FE694603A8CD
:1045E00002F0C8FE9C49C1E7974903A802F05EFEAD
:1045F0000A226FF00401684602F077FE694603A8BC
:1046000002F0B8FE9549B1E78F4903A802F04EFECB
:104610000A226FF00501684602F067FE694603A8AA
:1046200002F0A8FE8E49A1E7874903A802F03EFEEA
:104630000A226FF00601684602F057FE694603A899
:1046400002F098FE874991E77F4903A802F02EFE09
:104650000A226FF00701684602F047FE694603A888
:1046600002F088FE804981E7774903A802F01EFE28
:104670000A226FF00801684602F037FE694603A877
:1046800002F078FE794971E76F4903A802F00EFE47
:104690000A226FF00901684602F027FE694603A866
:1046A00002F068FE724961E7674903A802F0FEFD67
:1046B0000A226FF00A01684602F017FE694603A855
:1046C00002F058FE6B4951E75F4903A802F0EEFD86
:1046D0000A226FF00B01684602F007FE694603A844
:1046E00002F048FE644941E7574903A802F0DEFDA5
:1046F0000A226FF00C01684602F0F7FD694603A834
:1047000002F038FE5D4931E74F4903A802F0CEFDC3
:104710000A226FF00D01684602F0E7FD694603A822
:1047200002F028FE564921E7474903A802F0BEFDE2
:104730000A226FF00E01684602F0D7FD694603A811
:1047400002F018FE4F4911E73F4903A802F0AEFD01
:104750000A226FF00F01684602F0C7FD694603A800
:1047600002F008FE484901E7374903A802F09EFD20
:104770000A226FF01001684602F0B7FD694603A8EF
:1047800002F0F8FD4149F1E62F4903A802F08EFD41
:104790000A226FF01101684602F0A7FD694603A8DE
:1047A00002F0E8FD3A49E1E6274903A802F07EFD60
:1047B0000A226FF01201684602F097FD694603A8CD
:1047C00002F0D8FD3349D1E61F4903A802F06EFD7F
:1047D0000A226FF01301684602F087FD694603A8BC
:1047E00002F0C8FD2C49C1E6174903A802F05EFD9E
:1047F0000A226FF01401684602F077FD694603A8AB
:1048000002F0B8FD2549B1E60F4903A802F04EFDBC
:104810000A226FF01501684602F067FD694603A899
:1048200002F0A8FD1E49A1E6074903A802F03EFDDB
:104830000A226FF01601684602F057FD694603A888
:1048400002F098FD174991E6F4250300FC250300CA
:104850000D260300272603003C2603004D260300F7
:104860006D2603008C260300B1260300C426030036
:10487000E4260300F62603000E2703002827030082
:104880004F27030073270300862703009B2703009D
:10489000AF270300D0270300E7270300F927030011
:1048A0000C2803001A280300604903A802F0FEFC4C
:1048B0000A226FF01701684602F017FD694603A847
:1048C00002F058FD5A4951E6584903A802F0EEFC9F
:1048D0000A226FF01801684602F007FD694603A836
:1048E00002F048FD534941E6504903A802F0DEFCBE
:1048F0000A226FF01901684602F0F7FC694603A826
:1049000002F038FD4C4931E6484903A802F0CEFCDC
:104910000A226FF01A01684602F0E7FC694603A814
:1049200002F028FD454921E6404903A802F0BEFCFB
:104930000A226FF01B01684602F0D7FC694603A803
:1049400002F018FD3E4911E6384903A802F0AEFC1A
:104950000A226FF01C01684602F0C7FC694603A8F2
:1049600002F008FD374901E6304903A802F09EFC39
:104970000A226FF01D01684602F0B7FC694603A8E1
:1049800002F0F8FC3049F1E5284903A802F08EFC5A
:104990000A226FF01E01684602F0A7FC694603A8D0
:1049A00002F0E8FC2949E1E5204903A802F07EFC79
:1049B0000A226FF01F01684602F097FC694603A8BF
:1049C00002F0D8FC2249D1E5184903A802F06EFC98
:1049D0000A226FF02001684602F087FC694603A8AE
:1049E00002F0C8FC1B49C1E5104903A802F05EFCB7
:1049F0000A226FF02101684602F077FC694603A89D
:104A000002F0B8FC1449B1E5084903A802F04EFCD5
:104A10000A222946684602F068FC694603A802F0AB
:104A2000A9FC0E49A2E507B030BD00BFF425030084
:104A3000382803005828030065280300762803005F
:104A4000862803009F280300BA280300D228030009
:104A5000EA28030004290300242903003D29030058
:104A6000F8B504468068304F0368DB690E46984706
:104A700004F1280268230121DFF8B4C0E2631E229A
:104A80002A4884F8383084F84110A4F846200025DC
:104A9000A26884F82C3084F8A110102304F13001AE
:104AA000012EC4F870C06767A067A564A26284F88D
:104AB000A030C4E92BC7C4F8B400C4F8A410226322
:104AC00084F8343015D004F138073846FFF71EF863
:104AD000014605462046FFF709FD236839465B6A13
:104AE0002046984705436DB229462046FFF7FEFC55
:104AF0009EB104F1A0063046FFF759F9284341B2B0
:104B00002046FFF7F3FC236831461B6A204698478E
:104B1000054601462046FFF7E9FCB5FA85F0400955
:104B200084F82000F8BD00BF2F44010003440100B9
:104B300039410100002201600271704770B50446DE
:104B4000006803680D46DB6A5C21984720680368AB
:104B500029461B6898472068036800211B6B98470B
:104B600068B9206803680122DB6B5C219847012843
:104B700005D120680368BDE870405B6918474FF0B5
:104B8000FF3070BD10B5044600680368DB699847C4
:104B90000F212046FFF7D2FFB12814BF00200120CB
:104BA000207110BD70B50446006803680E46DB6ACC
:104BB0005C21154698472068036831461B68984772
:104BC0002068036829461B689847206803685B6B68
:104BD0009847B0FA80F0400970BD00002DE9F0411F
:104BE000057904460E461DB900252846BDE8F0812A
:104BF00001221121FFF7D6FF11212046FFF79EFF6A
:104C0000C307F1D428212046FFF798FF2921074642
:104C10002046FFF793FF2A2180462046FFF78EFFAC
:104C2000000440EA0820384310F022FB0022034B26
:104C300010F0B2FC10F056FE3060D6E70000E44001
:104C400010B500210446FFF745FC204610BD0000CA
:104C500070B5094B03600025FF2304460371C5604E
:104C600010300E46FFF7ECFF0B2384F820506562EE
:104C7000A6602371204670BDF829030008B5FBF734
:104C800075FB08BD884238B5044606D00D46FBF7D3
:104C9000B6FA29462046FFF722FC204638BD10B55B
:104CA0000446FFF71CFC204610BD08B5FFF715FCB5
:104CB0000068003018BF012008BD00001FB590F843
:104CC0002030F3B100F110042046FFF7EEFFC0B131
:104CD00021466846FFF7E3FF10210B4807F08EFAE4
:104CE000044658B16946FFF7DAFF0849204607F045
:104CF00028FC22460649044807F040FB6846FBF7BB
:104D000035FB04B010BD00BFA81200207D4C01008F
:104D10005D4F010010B4D0E9003409686210E40767
:104D200001EB020048BF8A585DF8044B48BFD358D6
:104D3000184708B501460430FFF7ECFF08BD000036
:104D4000034AC260034607C983E80700704700BFF3
:104D5000C825030010B586B004460391684606A92D
:104D600080E80C0001E90C00204603A9FFF7E8FFEA
:104D7000204606B010BD37B56C4684E80C0094E8B8
:104D80000C000546FFF7E6FF284603B030BD10B41F
:104D9000D0E9003409686210E40701EB020048BF63
:104DA0008A585DF8044B48BFD358184708B50146E8
:104DB0000430FFF7ECFF08BD034AC260034607C991
:104DC00083E80700704700BFBC25030010B586B01C
:104DD00004460391684606A980E80C0001E90C002E
:104DE000204603A9FFF7E8FF204606B010BD37B5FF
:104DF0006C4684E80C0094E80C000546FFF7E6FFDB
:104E0000284603B030BD00002DE9F04190F9043090
:104E100001338AB00646884669D0364C2378BFF302
:104E20005B8FDB0711D4204608F070FF68B10122C8
:104E300096F90410304805F0CFF8204608F088FFB6
:104E40002E4A2F492C4808F04EFF2E4F3D78BFF3D5
:104E50005B8F15F0010524D1384608F057FF00B3E9
:104E6000294C2A4B204640F8043BFFF7E9FE29462F
:104E700004F1400009F08CFB04F1540009F026FB1A
:104E8000234B00934FF4407228212B46204609F013
:104E9000F9FB384608F05CFF184A1E49204608F026
:104EA00022FF414606F11000FFF7ECFE00241A4BEA
:104EB0000293039402AB0CCB184906A8FFF75BFFE3
:104EC00006A9114809F046FC06A8FBF74FFA144B57
:104ED000CDE9043404AB0CCB314606A8FFF787FFBD
:104EE000054806A905F0B4F806A8FBF73FFA0AB092
:104EF000BDE8F081A0120020041300200002002071
:104F000015A00100A4120020301300205443030018
:104F10005429030005E70100C5C00100A8120020C4
:104F2000BD4C010010B50446FFF7BFFE28B940F2A2
:104F300002220649064808F0E5FAE068FFF7C8FAD9
:104F400003462046BDE81040184700BFD92903009A
:104F5000E429030008B5FFF7E5FF08BD08B5FFF732
:104F6000F9FF08BD08B5FFF7E4FE08BD08B5FFF777
:104F7000F9FF08BD08B5FFF719FF08BD08B5FFF731
:104F8000F9FF08BD10B5074C00224FF4027120460E
:104F900007F09CF82046044A0449BDE8104008F098
:104FA000A2BE00BFA812002000020020FBC001002A
:104FB00010B5C0E9001207318360C9080023C3603F
:104FC000016110BD2DE9F04106680569846806F1AC
:104FD000FF3C012303FA0CFCB340013BA2EB050E9E
:104FE0008846083EA8EB010575450EDA18F8015B06
:104FF000B5406C4008250CEA040703EA44040FB1ED
:1050000047687C40013DF6D1ECE700250369AB42DF
:1050100009DDD61A013B5B1B4F19DB0024FA03F3B1
:10502000BB550135F2E7BDE8F08100207047036809
:10503000C9B21B68184749000023C161C0F82C326F
:105040007047036801211B6B184710B403689C6B01
:105050000123A4465DF8044B6047D0F82C32B3F529
:10506000807F1FBF5A1CC0F82C22C01880F82C115A
:1050700014BF012000207047D0F828017047704706
:10508000C0F830127047C0F834127047D0F8283199
:10509000A3B1D0F828318BB1D0F82431D0F8242135
:1050A00003440132D2B293F82030C0F82421D0F862
:1050B0002821013AC0F82821184670474FF0FF30E8
:1050C0007047D0F828312BB1D0F82431184490F82B
:1050D000200070474FF0FF30704738B503685B6AB7
:1050E00004469847A82009F009F894F9192094F982
:1050F0001810054604F0F4FE656138BD38B5D0F8E7
:105100002C3214461A44B2F5807F88BFC3F58074F0
:10511000054600F596702246184415F013FFD5F8A1
:105120002C322344C5F82C32204638BD38B504460D
:1051300040690D4608B104F0CFFD206920B1294631
:10514000BDE8384004F022BF38BD10B504464069C0
:1051500020B10368DB6898470023636123699BB132
:10516000D4F8380209F099FAD4F8380209F0B6FAFE
:10517000D4F8380210B103685B6898474821206969
:1051800008F0D4FF0023236110BD1FB50246D0F8FC
:105190002C32D469406981F0010100913BB90123AF
:1051A00003AA214604F0C9FDC0B204B010BD02F547
:1051B0009672214604F0A2FD002814BF02200020B0
:1051C000F3E770B5C2B0B2F5807F83F0010328BF6A
:1051D0004FF48072009302AE044615461346490010
:1051E0003246406904F0A9FDC8B9A84218D0D4F8E5
:1051F0002831B3F5807F10D0D4F82031325C2344BD
:1052000083F82020D4F820310133DBB2C4F82031F8
:10521000D4F828310133C4F828310130E5E70025FE
:10522000284642B070BD30B50446BDB000252069A7
:1052300004F0B5FE0328FAD8DFE800F04A021212A3
:10524000D4F8343203B19847D4F82C22002AEED097
:1052500004F59671206904F0A6FEC4F82C52E6E726
:10526000C4F82051F022C4F824516946C4F82851EA
:10527000206904F096FE002282421DDAD4F828311B
:10528000B3F5807F18D0D4F82831B3F5807F11D0E2
:10529000D4F820311DF80210234483F82010D4F8EC
:1052A00020310133DBB2C4F82031D4F82831013386
:1052B000C4F828310132DFE7D4F82831002BB6DDFD
:1052C000D4F83032002BB2D0D4F828019847AEE79A
:1052D00002F00AF9ABE7000038B500254FF47A7305
:1052E0000446C0E901530D4B0360C0E90455017643
:1052F000427629464FF48072203015F021FFC4F821
:105300002051C4F82C52C4F82451C4F83052C4F8C7
:105310002851C4F83452204638BD00BF402A03004B
:1053200010B4D0E9003409686210E40701EB020010
:1053300048BF8A585DF8044B48BFD358184708B592
:1053400001460430FFF7ECFF08BD0000034AC260CD
:10535000034607C983E80700704700BF202A0300FF
:1053600010B586B004460391684606A980E80C0093
:1053700001E90C00204603A9FFF7E8FF204606B02C
:1053800010BD37B56C4684E80C0094E80C00054667
:10539000FFF7E6FF284603B030BD000070B5036894
:1053A00088B05B6A05460E469847482008F0A6FE7E
:1053B00095F9192095F91810044604F0CDFD7100F7
:1053C0002C61204604F0E4FDBC2008F097FE164B4B
:1053D000044640F8043BFFF733FC002104F1400091
:1053E00009F0D6F804F1540009F070F80F4B00935F
:1053F000204600234FF40062182109F043F90C4BBA
:1054000002930023039302AB0CCB294604A8C5F8F2
:105410003842FFF7B6FF04A9204609F09BF904A81B
:10542000FAF7A4FF08B070BD544303002C2A030010
:105430002752010008B5FFF782FF08BD08B5FFF746
:10544000F9FF08BD10B5122002F004F8044613203D
:1054500002F000F8214602460848FFF73DFF1E20F3
:1054600001F0F8FF04461F2001F0F4FF2146024638
:10547000BDE810400248FFF72FBF00BFEC1300202B
:105480002816002030B5A1F11004002500F00F020D
:10549000D3B2092ACCBF373330338B73CD73023983
:1054A0008C424FEA1010F1D130BD2220704700002D
:1054B00030B5012185B0192002F062F801211920D0
:1054C00002F0A2F84FF080430022C3F85C2503F5F8
:1054D00088334FF48032C3F848230121C3F80823EE
:1054E000212002F04DF80121202002F049F801218D
:1054F000212002F089F80A2001F0E4FF0121202098
:1055000002F082F8212001F0A5FF1F2886BF00F0DD
:105510001F00154B4FF0A04300F5E07040F203323E
:1055200043F82020114B01221A60114A1368002B06
:10553000FCD0104B0024C3F80045C3F800450E4BC7
:105540000FCB6D4685E80F00234620464FF0FF3114
:1055500055F823200133042BC2F80005C2F860156A
:10556000F6D105B030BD00BF00030050042000405C
:105570004421004000200040902A030038B54FF03D
:10558000805504462146D5F8A800FFF77BFFD5F8E3
:10559000A40004F11001FFF775FF202038BD0000C2
:1055A00072B64FF08043B022C3F81C25BFF34F8F73
:1055B0000549064BCA6802F4E0621343CB60BFF3AF
:1055C0004F8F00BFFDE700BF00ED00E00400FA05CB
:1055D00070B590F8343105461446F3B90368DB69B9
:1055E000984704F47063B3F5407F04F0F0030CBFF8
:1055F0000721082104F00F02302B0CBF02230123E6
:10560000012A08D0901E42424241A869BDE870407C
:10561000006804F010BE0222F7E770BD10B590F8E4
:10562000343104462BB9A369186804F05BFE0028E6
:10563000F9D010BD38B590F834510446A5B9836946
:105640005BB1186848B10368DB689847A3691D60BF
:105650000421A06908F06AFDA5610023C4F8243183
:10566000C4F82831C4F82C3138BD13B590F8343162
:1056700004466BBBA369186804F0F4FD40B307F05F
:10568000F1FFA3691868036801225B690DF1070146
:105690009847D4F82C31B3F5807F16D0D4F82C314C
:1056A000B3F5807F11D0D4F824319DF8072023442E
:1056B00083F82420D4F824310133DBB2C4F8243138
:1056C000D4F82C310133C4F82C3107F0E1FFD1E7D5
:1056D00002B010BD08B590F834313BB1012001F0A3
:1056E000F1FE0648BDE8084001F0DBB982691AB155
:1056F0001368003318BF0123184608BD6820002036
:1057000070B504460D4601F0CCF930B12368294646
:1057100020461B6CBDE87040184770BDA0F5A07016
:10572000EEE7000013B590F834318DF80710044609
:105730002BB1C9B20B48FFF7E3FF02B010BDA3695C
:10574000186804F0CFFD0028F9D0A3691868036831
:1057500001221B690DF107019847013018BF012094
:10576000EBE700BF682000202DE9F041074688469E
:10577000164601F096F970B10024A6420CD9351BEB
:10578000402D28BF402508EB04012A46384600F08A
:10579000F1FE2C44F1E704462046BDE8F081A0F577
:1057A000A070E1E770B590F8343105460E46144616
:1057B0002BB11048FFF7D8FF0446204670BDAB69F7
:1057C000186804F08FFD0028F9D0AB691868D0F88C
:1057D000083101211B6B00F584709847AB6918688C
:1057E000036822461B6931469847013008BF0024F0
:1057F000E3E700BF6820002030B50446C3B001F0E5
:105800003DF9D4F85832C3F5807398420546C4BFB9
:10581000D4F85852C5F580752A4601AB02A9204636
:1058200000F092FF019902AB6D1A00221D44D4F8DA
:105830005832B3F5807F19D08A4217D0D4F8583245
:10584000B3F5807F10D0D4F85032A85C234483F89D
:105850005001D4F850320133DBB2C4F85032D4F8DE
:1058600058320133C4F858320132E0E743B030BD5A
:1058700038B5044600F07EFB2046FFF7BDFFD4F8A4
:105880005852204600F07EFB284638BDA0F5A07097
:10589000EEE7000010B590F8343104462BB106480D
:1058A000FFF7E6FF0446204610BD07F0DBFED4F804
:1058B0002C4107F0EDFEF6E76820002038B50446DD
:1058C00000F058FB2046FFF797FFD4F858324BB151
:1058D000D4F85432234493F85051204600F052FB40
:1058E000284638BD4FF0FF35F7E7A0F5A070E5E793
:1058F00010B590F8343104462BB10B48FFF7DEFFAA
:105900000446204610BD07F0ADFED4F82C313BB163
:10591000D4F82801044494F8244007F0B9FEF0E7D5
:105920004FF0FF34F9E700BF6820002038B5044687
:1059300000F020FB2046FFF75FFFD4F85832A3B1F8
:10594000D4F85432234493F85051D4F854320133EC
:10595000DBB2C4F85432D4F85832013BC4F85832A0
:10596000204600F00FFB284638BD4FF0FF35F7E723
:10597000A0F5A070DAE7000010B590F834310446C5
:105980002BB11148FFF7D2FF0446204610BD07F0A7
:1059900069FED4F82C319BB1D4F82831234493F814
:1059A0002400D4F828310133DBB2C4F82831D4F80C
:1059B0002C31013BC4F82C31044607F069FEE4E7C2
:1059C0004FF0FF34F9E700BF6820002008B54FF41E
:1059D0008072002115F0B4FB0022C0F80021C0F84D
:1059E0000421C0F8082108BD10B4D0E900340968CA
:1059F0006210E40701EB020048BF8A585DF8044BCF
:105A000048BFD358184708B501460430FFF7ECFFEC
:105A100008BD0000034AC260034607C983E80700C7
:105A2000704700BFA02A030010B586B0044603915A
:105A3000684606A980E80C0001E90C00204603A98D
:105A4000FFF7E8FF204606B010BD37B56C4684E886
:105A50000C0094E80C000546FFF7E6FF284603B06B
:105A600030BD000070B590F8343186B004460D4664
:105A7000002B37D1866926B9042008F03FFBA061CE
:105A80000660A369186878BB4FF4867008F036FB8F
:105A90002B4694F9212094F92010064604F02EFF9D
:105AA000A3691E6094F92220531C06D0A06994F9C2
:105AB00023300068032104F031FFA3691D688DB114
:105AC0000B4B0093002601966B460CCB214602A897
:105AD000FFF7BBFF2846324602A904F087FC02A864
