:020000021000EC
:1000000000000420A56F0500DD6F0500C15205004A
:10001000E16F0500CD520500D3520500000000003D
:100020000000000000000000000000005DEA010088
:10003000E96F050000000000F7EA010007EB01008E
:10004000F1B4050005050500EF6F0500EF6F050031
:10005000EF6F0500EF6F0500EF6F0500EF6F050014
:10006000EF6F050091020100EF6F0500EF6F0500D3
:10007000EF6F050015B90500EF6F05009911050038
:10008000EF6F0500EF6F0500EF6F0500EF6F0500E4
:10009000EF6F0500EF6F0500EF6F0500EF6F0500D4
:1000A000EF6F0500EF6F0500B1020100D102010002
:1000B000EF6F0500EF6F050000000000000000007A
:1000C000EF6F0500EF6F0500EF6F0500EF6F0500A4
:1000D000EF6F0500EF6F0500EF6F0500EF6F050094
:1000E000EF6F0500EF6F0500EF6F050000000000E7
:1000F00000000000EF6F050000000000EF6F05003A
:1001000010B5054C237833B9044B13B10448AFF351
:1001100000800123237010BDA0110020000000000A
:10012000FC13070008B5034B1BB103490348AFF3A9
:10013000008008BD00000000A4110020FC1307008F
:10014000154B002B08BF134B9D46A3F5803A0021A9
:100150008B460F461348144A121A53F0F9FF0F4BFF
:10016000002B00D098470E4B002B00D09847002062
:10017000002104000D000D48002802D00C4845F075
:100180004FFE53F0D5FA2000290010F017FD45F07E
:1001900044FE00BF00000800000004200000000032
:1001A000190B0200A0110020081D0120215E05008E
:1001B000000000000278024B002143F82210704733
:1001C000F4110020014800F0B7BC00BF1412002059
:1001D000014800F0B1BC00BF6C12002008B54FF020
:1001E0008041054800F0C2FC4FF080410348BDE863
:1001F000084000F0BBBC00BF141200206C120020AD
:1002000090F90930002B82B00DDB5A09012103F06F
:100210001F0301FA03F320320C4941F82230BFF3E7
:100220004F8FBFF36F8F4268017A012353604FF401
:1002300080338B40C2F8083350339B009BB20021BF
:10024000D150D3580193019B02B0704700E100E008
:1002500010B5047A42684FF480310123A140136045
:10026000D360C2F8041390F90920002A06DB510973
:1002700002F01F029340054A42F82130037A426897
:10028000C16903F5A87342F8231010BD00E100E036
:1002900038B5064D6C683CB12046FFF7B1FFE36806
:1002A00098476868FFF7D4FF38BD00BFF4110020FD
:1002B00038B5064DEC683CB12046FFF7A1FFE36876
:1002C0009847E868FFF7C4FF38BD00BFF41100206D
:1002D00038B5064D2C693CB12046FFF791FFE36825
:1002E00098472869FFF7B4FF38BD00BFF41100201C
:1002F000F8B5002304460360C0E90233C0E90433C3
:10030000C0E90633C0E9083308234360202045F0E4
:100310008DFF65682060013D6D0800EB850706468E
:100320004FF4007045F082FF00F5007346F8250099
:10033000E060C4E90703A060A061676123616762B0
:100340002046F8BD036870B5044663B1436A456949
:100350001E1DAE4204D955F8040B45F07FFFF8E7A7
:10036000206845F07BFF204670BD10B50446FFF7BE
:10037000E9FF204610BD10B504469030FFF7F5FFA9
:1003800004F15000FFF7F1FF04F11000FFF7EDFF5B
:10039000204610BD036870B5044663B1436A4569E1
:1003A0001E1DAE4204D955F8040B45F057FFF8E77F
:1003B000206845F053FF204670BD10B504467830E4
:1003C000FFF7E8FF204610BD2DE9F347634C644A70
:1003D0006448654EDFF8E0914FF0FF33202102F0D2
:1003E00041FF204602F088FE2046604C60493246BC
:1003F00045F011FD204601F00DFB20465D4C5E49A5
:10040000002532464FF07E5A4FF0640845F003FD58
:100410000027C4F800A06560C4F80890C4F80C80F8
:1004200004F11000FFF764FFA563E763C4F840A080
:100430006564C4F84890C4F84C8004F15000FFF79C
:1004400057FFA567E767C4F880A0C4F88450C4F8D4
:100450008890C4F88C8004F19000FFF749FFC4F83D
:10046000B850C4F8BC70C4F8C050C4F8C470C4F824
:10047000C850C4F8CC50C4F8D050C4F8D450C4F814
:10048000D850C4F8DC50C4F8E050C4F8E450C4F8C4
:10049000E850324639493A4D20463A4C45F0BBFCCB
:1004A0004FF0020804231A46CDF8008005212046AB
:1004B00000F0D2FA324629462046334C45F0ABFCD8
:1004C00007231A46CDF800800621204600F0C4FA22
:1004D00032462946204645F09EFC2C482C4C07729B
:1004E0000422027403231A2203704272294B2A4AFF
:1004F0004360D060D3F80825C76042F00302C3F818
:100500000825D3F80425254922F00302C3F8042561
:10051000D3F8102522F00F0242F00402C3F8102590
:100520001F4B4361324645F076FC1E49204603F0DE
:100530000FFB20461C4C1D49324645F06CFC0097D1
:1005400032230A221A49204603F0E8F819493246B4
:10055000204602B0BDE8F04745F05DBCD81400204D
:10056000B71DC104C412002000020020D0130020D7
:100570000F310100D8120020BB03010077030100F6
:10058000250C0100141200206C120020D411002050
:10059000C811002000A00140F4110020B5010100A5
:1005A0000024744960890600BC110020E53A01006E
:1005B0006589060091360100CDCCCC3D10B52DEDFE
:1005C000028B724886B04FF4E1310CF033FB6F4878
:1005D0000CF048FA38B16E496C480DF057FE4FF4F4
:1005E000FA600EF0FBF86B4802F00EFE20B96A4983
:1005F00066480DF04BFEFEE76648684C02F088FD49
:100600000422674920200CF0BFF866495F480DF0CE
:100610003DFE64220121644800F03EFF624800F084
:100620003FFE6421604800F08DFE02215E4800F02C
:1006300073FE5D4800F0F7FD01215B4800F05AFDB4
:100640005A4A07CA03AB83E807001946564801F027
:10065000FFFC57494D480DF019FE0222104655493E
:100660000CF092F80222544903200CF08DF8D4EDDE
:10067000057A524BE360B2EE048AC7EE886A2346DD
:10068000B0EE007AF4EEC76AF1EE10FA1FD54C49CD
:100690003E480DF0D9FD4B493C480DF0CCFD4A4990
:1006A0003A480DF0D1FDD4ED057AC7EE887A17EE01
:1006B000900A4DF0E9FD0223009302460B463348B1
:1006C0000DF00AFF414931480DF0CCFDFEE7FCEE8C
:1006D000E77A616884ED067AFBEEEF7A4FF48030BA
:1006E000FCEEE77A0122C4ED077A247A0A60A04082
:1006F000CA60C1F8040393F90910002906DB480910
:1007000001F01F018A40324941F820205A68D96916
:100710001B7A03F5A87342F823102E4B1C6823683C
:1007200020469B68984720B92B4918480DF0AEFD2C
:10073000FEE723682949DB6B204698472368284950
:10074000DB6A204698472749254803F01FFA012213
:100750002549244803F021F8236820465B6D234C8B
:100760009847234909480DF091FDC8200EF036F84E
:100770000EF028F820600EF025F82368C01A1D4BF3
:10078000186006B0BDEC028B10BD00BF8C220020AB
:10079000B9890600D8140020C7890600D4110020AA
:1007A000F9070100E1890600D013002054890600F2
:1007B000F0890600C5010100D1010100DD01010041
:1007C000B1890600028A0600AF890600498A060040
:1007D00000E100E024990600798A06008E8A06006E
:1007E000C8110020BC1100209A8A0600A81500201C
:1007F000A08A0600D01400202DE9F843464A474954
:10080000474800AF02F09AFC00287DD00DF0DAFFD7
:10081000444B454E1B68454CDFF83491DFF834817A
:10082000434DC01A07EE900AF8EE677A306017EE73
:10083000900A4DF029FD36A3D3E900234DF07CFD4D
:100840004EF04AF8344B354A01463A4801F092F9E5
:100850002146384800F054FC374A3049354800F00A
:10086000CEFE364A2C49334800F0C1FC98ED147A8C
:10087000D9ED147A304B226877EE877AB6EE007A9B
:1008800067EE877A284617EE901A00F0F6FBD5F847
:10089000E410484600F0C4FAD5F8E810404600F0ED
:1008A000BFFA274B6D468EB01B88ADF80030336819
:1008B000CDF80230194B03CBCDF806001868164B63
:1008C000CDF80A10CDF80E0003CBCDF81200186851
:1008D0001C4BCDF816101B68CDF81E302346CDF802
:1008E0001A0003CBCDF822001868CDF82610CDF8F9
:1008F0002A0069463222144802F0BEFC69463222C0
:1009000012480CF037F8AD46BD46BDE8F88300BF8D
:100910008DEDB5A0F7C6B03E08120020B814002037
:10092000D8140020A8150020D0140020C4140020E2
:10093000D8120020D0130020AC140020A0140020F6
:10094000AD890600AC150020C41200208C220020C6
:10095000141200206C1200202DE9F043344B19686A
:100960000B6897B01B6F03A898470DF019FF8046DE
:1009700003A802F08BFF002853D02E492E482F4C9D
:10098000DFF8C0902C4D0DF05FFC03A9684602F023
:1009900063FF694628480DF06FFC68460DF0A9FD1D
:1009A00003A802F093FF68B3204602F00BFFE0B10A
:1009B000204602F0CDFE4946074628460DF044FC8D
:1009C0003E46204602F0CEFEF31B98420ADD16F8A2
:1009D000011B0A2228460DF0B9FC202128460DF003
:1009E00037FCEEE728460DF037FC0DF0D9FE01226A
:1009F000A0EB0801204602F0DAFE4FF47A700DF009
:100A0000EDFECDE70E490C480DF01EFC03A968462B
:100A100002F022FF694608480DF02EFC68460DF0F2
:100A200068FD03A802F0D5FE17B0BDE8F08300BF53
:100A3000249906006A8906008C220020BC1100203F
:100A4000918906008189060008B5FFF785FF6420BB
:100A5000BDE808400DF0C2BE2DE9F74F98464FF0B3
:100A60007E530360334B83600025642304464FF0BC
:100A7000000AC0E9033508234361C0F804A0C0E9B7
:100A80000655C0E90855C0E90A55C0E90C552020B3
:100A90008946164645F0CAFB67692061013F7F0819
:100AA00000EB870283464FF40070019245F0BEFBD5
:100AB000019A626200F50073C4E90F595FFA89F97F
:100AC000C4E90B03236262634BF82700E061A06175
:100AD000A062C4E911684846F6B2C4F838A0C4F868
:100AE00050A0C4F854A001210DF026FF304601218A
:100AF0000DF022FF5FFA88F001210DF01DFF94F840
:100B00004C0001210DF018FF304601210DF058FF77
:100B1000294630460DF054FF94F84C0001210DF0A9
:100B20004FFF484629460DF08DFE204603B0BDE834
:100B3000F08F00BFCDCCCC3D38B5044690F84000D6
:100B40000DF066FF054600200DF062FFF7EE007A1B
:100B500094ED157A1DB920B977EE677A03E0002885
:100B6000FAD177EE277AC4ED157A38BD07EE101A60
:100B700072B6D0ED157A67EE877A0023C0ED147A4D
:100B8000436562B6704707EE901ABDEEE77A38B556
:100B900017EE104A002CB8BF6442FF2CF5EEC07A65
:100BA000A8BFFF24F1EE10FA054690F844000EDBD2
:100BB00001210DF005FF002195F848000DF000FF20
:100BC000214695F84000BDE838400DF03BBE0021BD
:100BD0000DF0F6FE0121EFE702698368043A9342C3
:100BE00010B5044602D00433A36010BDC06845F0C0
:100BF00035FB63691A1D5B68626103F50072E3608F
:100C00002261F1E70368826804339342036008D1EC
:100C1000C3681A1D5B68C26003F50072436082609E
:100C20000360704710B504461030FFF78BFB204679
:100C300010BD026A2DE9F8438369043A93420446E1
:100C40000E4606D00BB10A681A600433A361BDE8F2
:100C5000F8834368426A0068111AA3EBA1010129D5
:100C600027D86169571ABF1001377D1CB3EB450FB8
:100C700039D95D1B6D0800EB8505131DA942A3EB57
:100C8000010229D9994202D0284653F0FDF92B6878
:100C9000E36003F50073236107F18043013B05EB3B
:100CA000830255F82330E36103F5007365616262E6
:100CB00023624FF40070656A45F0B8FA6860A36972
:100CC0000BB132681A60636A1A1D5B68626203F5D1
:100CD0000072E3612262B9E799424FEA8700D6D0F9
:100CE000801A2844D1E7002B14BF98464FF0010822
:100CF00002339844B8F1804F01D34CF03DF84FEAED
:100D0000880045F093FA626A6169A8EB0505043230
:100D10006D088A42814600EB850503D0521A2846A9
:100D200053F0B2F9206845F099FAC4E90098AEE7AB
:100D3000C368CA689B1A9B105A1ED0E900301B1A60
:100D40009B1003EBC21388680A68801A03EBA000AB
:100D50007047000070B52DED048B044684B008EE9A
:100D6000102A08EE901A0DF01BFDE36B9FED2A7A16
:100D7000E063C31A07EE903AF8EE677A78EEC88A15
:100D800087EE879A04AD04F11006304669EE287AA2
:100D900017EE903A45F8103D2946FFF74AFF04F157
:100DA000180104F12800FFF7C3FFE368834202D271
:100DB0003046FFF711FFA3690093E3690193236AAB
:100DC0000293A66A636A9FED158A0393009BB34260
:100DD00007D0D3ED007A284638EE278AFFF712FFB6
:100DE000F4E7D4ED017A28EE278AD4ED007AA7EE55
:100DF000A88AD4ED0E7AC4ED0E8A78EEE77A87EEF3
:100E0000897AD4ED027AA7EE878A18EE100A04B028
:100E1000BDEC048B70BD00BF00007A4400000000F0
:100E200010B5026D0446FFF795FF01462046BDE868
:100E30001040FFF7A8BE000070B50446C06BDFEDA0
:100E40002C6AE163081A07EE900AF8EE677A2DED36
:100E5000028B87EEA67A84B004AD04F1100630460A
:100E600007EE902A06EE903A77EEE68A67EE287A49
:100E700017EE903A45F8103D2946FFF7DAFE04F1E7
:100E8000180104F12800FFF753FFE368834202D200
:100E90003046FFF7A1FEA3690093E3690193236A3B
:100EA0000293A66A636A9FED138A0393009BB34281
:100EB00007D0D3ED007A284638EE278AFFF7A2FE46
:100EC000F4E7D4ED017A94ED027AC4ED0E8A28EEAF
:100ED000278AD4ED007AA7EEA88ADDED0A7AA7EE7C
:100EE000278A18EE100A04B0BDEC028B70BD00BF5B
:100EF00000007A440000000013B5D0F8D030009311
:100F0000D0F8C830D0F8D820D0F8C4100446FFF785
:100F100093FF94ED397AD4ED3A7A06EE900A37EEE3
:100F2000267A77EEA67A84ED397AC4ED3A7A02B061
:100F300010BD000070B50446C06B9FED2E7AE163D2
:100F4000081A07EE900AF8EE677A2DED048B87EE0B
:100F5000879A84B004AD04F11006304607EE902A5B
:100F600007EE103A77EEC78A69EE287A17EE903AC4
:100F700045F8103D2946FFF75CFE04F1180104F125
:100F80002800FFF7D5FEE368834202D23046FFF720
:100F900023FEA3690093E3690193236A0293A66A7F
:100FA000636A9FED158A0393009BB34207D0D3ED8C
:100FB000007A284638EE278AFFF724FEF4E7D4EDBE
:100FC000017A28EE278AD4ED007AA7EEA88AD4ED1C
:100FD0000E7AC4ED0E8A78EEE77A87EE897AD4ED40
:100FE000027AA7EE878A18EE100A04B0BDEC048BD3
:100FF00070BD00BF00007A440000000010B5D0F8BA
:10100000D430D0F8E020D0F8C41004468030FFF788
:1010100091FF94ED397AD4ED3A7A06EE900A37EEE4
:10102000267A77EEE67A84ED397AC4ED3A7A10BD05
:1010300010B5D0F8CC30D0F8DC20D0F8C41004467D
:101040004030FFF777FFC4F8D8002046BDE81040D5
:10105000FFF752BF002310B5C0F8E430C0F8E83005
:1010600004460DF09DFBC4F8C4002046FFF7E0FFE6
:101070002046BDE81040FFF7C1BFC0F8CC10C0F853
:10108000C8201A68C0F8D02010B49B68C0F8D430CB
:101090005DF8044BFFF7DEBF4B680360436083607D
:1010A000704700002DE9F04100F58478064600F114
:1010B00084054746BD4205D02C3F07F114004BF094
:1010C000DDFDF7E7A8EB0505094CAD086C4324F0FE
:1010D00040446FF02B0303FB0484A64205D02C3C54
:1010E00004F114004BF0CAFDF7E73046BDE8F0818B
:1010F000A38B2E3A80F865107047000000000000B6
:101100001FB50C4601A901F00FF801984DF0BCF88D
:101110000FA3D3E900234DF00FF94DF0DDFB206064
:1011200002984DF0B1F80AA3D3E900234DF004F979
:101130004DF0D2FB606003984DF0A6F804A3D3E90C
:1011400000234DF0F9F84DF0C7FBA06004B010BDCE
:10115000F8C1631ADCA54C4090F8C03010B50446C5
:101160000BB9012010BDD1ED017AD1ED006A91EDEE
:10117000027A67EEA77AE6EEA67AE7EE077A17EE2E
:10118000900A4FF0A3F8D4ED187A07EE100A77EE24
:10119000677A94ED317A67EE877AB0EE007AF4EEF2
:1011A000C77AF1EE10FADCDDB8EE007AF4EEC77A19
:1011B000F1EE10FA54BF01200020D3E790F864301C
:1011C000D1ED007A33B1C2ED007A4B6853608B6881
:1011D00093607047F1EE677AC2ED007A4B68536016
:1011E000D1ED027AF1EE677AC2ED027A7047FFF72D
:1011F000E5BF00224260012280F820200022016029
:1012000082604261C26082610261C26170470023F4
:1012100083604361C36083610361C36100234360F2
:1012200080F8203070472430FFF7F1BF002383603F
:101230004361C36083610361C36100234360012391
:1012400080F8203070472DE9F04F85B004AB0025C1
:10125000044643F8045D02AA01A90195029501F034
:101260006DFBD4E92298D4F89C30D4E920BA08F177
:1012700004061F1DB74204D956F8040B44F0EEFFD4
:10128000F8E7C4E924BAC4E92698C4F8A450C4F81D
:10129000A85004F12400FFF7C9FF05B0BDE8F08FA6
:1012A0002DE9F0432DED028B0446C7B0FFF7CBFFCD
:1012B00094F8741004A801F0D7FD0FF25409D9E98D
:1012C000008901AE04F1480537465434B0EE088A6F
:1012D00004A9384601F067FDF6EC017A67EE887ADA
:1012E00017EE900A4CF0D0FF42464B464DF024F8E2
:1012F0004DF0F2FA45F8040BA542E9D104A8FFF736
:10130000D1FE47B0BDEC028BBDE8F083AFF30080A7
:10131000F8C1631ADCA54C4038B50C460546FFF70A
:1013200092FF631E632B02D8C5F8A04038BD034965
:101330000348BDE838400CF0A9BF00BF728B06001F
:101340008C22002038B504460D46FFF77CFF20466E
:1013500040F8245FBDE83840FFF768BF0000000098
:101360002DE9F0432DED068B0446CDB00D46FFF779
:101370006AFF94F874100AA801F076FD0AA901A882
:1013800001F018FD0AA904A801F025FD0AA907A883
:101390009DED04AADDED05AA01F027FD0198DDED24
:1013A000079A9DED088A4CF06FFF064628460F46C7
:1013B0004CF058FF804689464EF028FF02460B4607
:1013C000304639464DF0E2F84DF086FA09EE100A43
:1013D00002984CF059FF06460F46404649464EF0EB
:1013E00015FF28EE088A02460B46304639464DF076
:1013F000CDF8AAEEAA8A4DF06FFA08EE900A18EE20
:10140000100A4EF063FF69EEA99A4CF03DFF20A34D
:10141000D3E900234DF0BAF8EAEE0A9A4DF05CFAEF
:1014200008EE100A19EE900A4EF050FF4CF02CFF17
:1014300017A3D3E900234DF0A9F84DF04DFA79EE4A
:10144000086A07EE900A89EE267A204678216943D9
:1014500078EEA76A84ED157A88EEA67A28EE088AD7
:1014600067EEA77AA9EE098AE8EEA87A84ED167AE3
:10147000C4ED2F7A84ED2C8A40F8241FFFF7D6FEA6
:101480000AA8FFF70FFE4DB0BDEC068BBDE8F08358
:1014900014AE47E17A94234070B50446C8B00D46B7
:1014A0001646FFF7D0FE294684F8745006A801F0CE
:1014B000DBFC03AD06A9684601F083FC06A92846BB
:1014C00001F093FCD4ED317A6B462A46F3EC016AC5
:1014D000B2EC017AE6EEA67A9D42E7EE077AF5D104
:1014E000C4ED317A17EE900A4EF0F0FE07EE900A46
:1014F000B7EE007AC7EE277A31462046C4ED317A3E
:10150000FFF72EFF06A8FFF7CDFD48B070BD90F89D
:101510002020034622BBD0ED057AF5EE407AF1EEAD
:1015200010FA1DD1D0E90002824235DA91ED007A3D
:10153000D3ED027A77EE877A0132C3ED027A91ED2C
:10154000017AD3ED037A77EE877AC3ED037A91EDD2
:10155000027AD3ED047A5A6077EE877AC3ED047A83
:1015600093F82000B8B193ED057AD1ED007A77EECB
:10157000C77AC1ED007A93ED067AD1ED017A77EE64
:10158000C77AC1ED017A93ED077AD1ED027A77EE51
:10159000C77AC1ED027A7047E2D107EE902AD3ED07
:1015A000026AF8EEE77A012286EEA77A83F8202015
:1015B000D3ED036A83ED057A86EEA77AD3ED046A4C
:1015C00083ED067A86EEA77A83ED077AC8E710B531
:1015D00090F8202001F10C03143000246AB1D1ED01
:1015E000007A90ED007A77EEC77AC1ED007A043187
:1015F000994200F10400F1D110BD0C60F7E738B555
:10160000FFF7DCFD90F865302BB111462430BDE8C2
:101610003840FFF7DCBF38BDF8B504462DED048B2C
:1016200000680D464EF0A4FB09EE100A4CF02CFEAB
:101630000022314B4EF04CFC064620680F464EF01F
:1016400097FBDFED2E7A95ED008A69EE277AB7EEEB
:10165000007AA7EE897A08EE900A17EE100A4CF08D
:1016600013FE21A3D3E9002304460D463046394634
:101670004CF062FE02460B46204629464CF0A6FC82
:101680001BA3D3E900234CF057FE9FED1D7ADFED3D
:101690001D7A28EE877A0446E7EE287A0D4667EE33
:1016A000887A17EE900A4CF0EFFD02460B46204672
:1016B00029464CF08BFCDFED147A68EE277A04465D
:1016C00067EE887A0D4617EE900A4CF0DDFD024673
:1016D0000B46204629464CF079FC4DF0FDF8BDEC58
:1016E000048BF8BDAFF30080000000E0F966F83E1F
:1016F00000000000878F234000001040CFFBAC3B70
:10170000DA1A973121364FB6BBF84A2B0000000099
:10171000D3ED007A91ED007A67EEA77A2DE9F843D0
:10172000E7EE077A05461E462DED028B17EE900A6E
:1017300017680C464EF0CAFD4CF0A6FD38A3D3E95D
:101740000023804689464DF069F818B10FF2D009A0
:10175000D9E9008938464CF097FD42464B464EF099
:1017600055FB4DF0B9F8D6ED007A2468F5EEC07A55
:10177000F1EE10FA804627EEA78A20462EDD4CF0C7
:1017800083FD29A3D3E9002306460F464CF0D4FD80
:1017900032463B464CF0D0FD064618EE100A0F4686
:1017A0004CF072FD02460B46304639464CF00EFCBA
:1017B0004EF02CFD06460F4684F000404CF064FDD0
:1017C00032463B464EF022FB4DF086F8BDEC028BD4
:1017D0006860C5F800802846BDE8F8834CF054FDE9
:1017E00011A3D3E9002306460F464CF0A5FD32466F
:1017F0003B464CF0A1FD064618EE100A0F464CF091
:1018000043FD02460B46304639464CF0DFFB4EF0B6
:10181000FDFC064601F10047CEE700BFAFF30080B4
:101820003A8C30E28E79453E8DEDB5A0F7C6B03EDC
:10183000D0B54CF029FD1EA3D3E900234CF0C6FB24
:101840001DA3D3E900234EF0E3FA19A3D3E9002343
:101850004CF0BAFB4DF040F804464CF015FD14A3D3
:10186000D3E9002306460F464CF0F6FF48B112A319
:10187000D3E90023304639464CF0A6FB4DF02CF856
:10188000044620464CF000FD0DA3D3E90023064694
:101890000F464CF0CDFF48B107A3D3E900233046F3
:1018A00039464CF093FB4DF017F804462046D0BD66
:1018B000182D4454FB210940182D4454FB21194094
:1018C000182D4454FB2109C0012908B506D9054B40
:1018D000054A06484FF4CD7150F0ACFF00EB810093
:1018E00008BD00BF968B0600F3900600B38B060080
:1018F0004269436A9B1A9B105A1ED0E906315B1A53
:10190000DB1003EB821302698068101A03EBE0001E
:101910007047000038B583680468032B0FD1C36893
:1019200042681A4400250123022A4260C0E902539A
:1019300005DD0F4B0F4A49210F4850F07BFF8368AC
:10194000022B03DD0D4B0B4A4C21F5E7C268012A3F
:1019500003D00B4B074A4D21EEE745685A1C03EBB9
:1019600043032B4404EB830382600A681A6038BD8A
:10197000128C060035920600318D0600618C06003F
:10198000B88C0600F8B5002304460360C0E90233B2
:10199000C0E90433C0E90633C0E9083308234360D3
:1019A000202044F043FC65682060013D6D0800EB99
:1019B000850706464FF4007044F038FC00F50073CC
:1019C00046F82500E060C4E90703A060A0616761F4
:1019D000236167622046F8BD08B5030705D0034BB5
:1019E000034A04486D2150F025FF08BDA88F06006A
:1019F000E79306009790060010B50446FFF7ECFF4A
:101A00004FF07E53002223606260A260E3602046B4
:101A100010BD000070B504468AB000F073FB42F6BA
:101A2000E06104F12400FFF7E4FB4FF07E536365AF
:101A3000A365184BE3650025174B2366012601A912
:101A400004F16800A564E564256584F8646084F8A1
:101A500065600295FFF720FB04F17800FFF792FF25
:101A600001A9C4F8A060C4F8A450C4F8A85004F1B7
:101A7000B000FFF7C1FF84F8C060C4F8C45001A8EB
:101A800000F040FB01A9204600F0B6FC20460AB059
:101A900070BD00BF000080BFCBA11C41D0E9002376
:101AA0009869D3ED046A126889000844D0ED007A81
:101AB000D868084490ED007AD6EE877A0A4493ED10
:101AC0000A7A67EE877AC2ED007A704708B5036834
:101AD00001EB4102022903EB820305D90D4B0E4AAB
:101AE0000E487A2150F0A6FE426893ED027AD2EDBC
:101AF000027AD2ED016A67EE877A93ED017AE6EE1B
:101B0000877AD2ED006A93ED007AE6EE877A17EED7
:101B1000900A08BD018F0600F9920600AC8E0600FF
:101B20000368406810B51C6804EB8104FFF7CEFF22
:101B3000206010BD10B54B680C688AB0CDE9063442
:101B40000893032309930AAB049043F8280D00215E
:101B5000019301A805ABCDE902320594FFF7E0FF40
:101B600001A80121FFF7DCFF022101A8FFF7D8FF40
:101B70000AB010BD2DE9F04F2DED048BB1B01D461C
:101B800008EE901A114602AA0446FFF717FB2946F1
:101B900005AAFFF713FB02A92430FFF7B8FC0025C4
:101BA0000DF19008002800F0BA81D4ED177AF5EE17
:101BB000C07AF1EE10FAC0F2A681259508AD414633
:101BC0002846FFF769FADDED027A94ED127AF0EE1D
:101BD000E76AF4EEC76AF1EE10FAC8BFCDED087AF5
:101BE000DDED037A94ED137AF0EEE76AF4EEC76A5E
:101BF000F1EE10FAC8BFCDED097ADDED047AD4ED2F
:101C0000146AB0EEE77AF4EEC76A0FAFF1EE10FA9D
:101C10002146384648BFCDED0A7A00F079FA94EDB6
:101C2000178AC24B289301AE04F1680332462BA8F1
:101C30000BA938EEC88A0C932A901E9727950B970C
:101C4000FFF778FF00210BA88DED2E8A0195CDE9D5
:101C50000B68CDF834D00E95FFF720FF01210BA8BB
:101C6000FFF71CFF02210BA8FFF718FF29462046AB
:101C700000F05AFF07AB06AA05A93846FFF748FD52
:101C8000D4F89820D4F89030083A934204F17809B7
:101C900000F0A2801BB197E8030083E8030008333B
:101CA000C4F89030002604F1A407D4E92403984234
:101CB00002BFD4F89C3053F8040C00F50070314694
:101CC0000838FFF701FE314605463846FFF7FCFDB0
:101CD00095ED007AD0ED007A77EE877AC0ED007A44
:101CE000002E00F0FB804846FFF702FED4F8A0303B
:101CF00098422CD9D4F8805000212846FFF7E4FD03
:101D0000002182463846FFF7DFFD9AED007AD0EDDC
:101D1000007A77EEC77A3146C0ED007A2846FFF7A1
:101D2000D3FD314682463846FFF7CEFD9AED007A64
:101D3000D0ED007AD4F8883077EEC77A083B9D4220
:101D4000C0ED007A00F0CC800835C4F880504146E0
:101D5000204600F0E9F905A92046FFF7FDF9A0B3F8
:101D60004846FFF7C5FD07EE900A94ED2A7AD4EDB8
:101D7000296A9DED248A94ED159AF8EE677AC7EEEC
:101D8000279A86EEA77A78EE477A17EE900AFFF741
:101D90004FFD07EE900AA9EE678A94ED169A8DED35
:101DA000188A9DED258A78EE697A17EE900AFFF77A
:101DB0003FFD07EE900AA9EE678A26AB19AA18A97B
:101DC0008DED198A204600F0B9FDC4ED178A31B0B7
:101DD000BDEC048BBDE8F08FD4F89C20A06FE36FBE
:101DE000111AA3EBA101012932D8D4F88C10A2EB6F
:101DF000010A4FEAAA0A0AF1010A0AF10105B3EB46
:101E0000450F47D95D1B6D0800EB8505131DA942E1
:101E1000A3EB010237D98B4202D0284652F034F9A5
:101E20002B68C4F8843003F50073C4F888300AF1D5
:101E30008043013B05EB830255F82330C4F894300E
:101E400003F50073C4F88C50C4F89C20C4F8983093
:101E50004FF40070D4F89C5044F0E8F96860D4F86E
:101E600090301BB197E8030083E80300D4F89C305E
:101E70001A1D5B68C4F89C2003F50072C4F8943006
:101E8000C4F898200CE78B424FEA8A00C8D0801A29
:101E90002844C3E7002B14BF1E46012602331E440C
:101EA000B6F1804F01D34AF067FFB00044F0BEF9AD
:101EB000D4F89C20D4F88C10751B04326D088A422B
:101EC000834600EB850503D0521A284652F0DCF811
:101ED000A06F44F0C3F9C4E91EB6A1E70126E4E609
:101EE000D4F8840044F0BAF9D4F88C301A1D5B6839
:101EF000C4F88C2003F50072C4F88430C4F888203C
:101F0000C4F8803023E707AB06AA05A94046FFF7CF
:101F1000FFFB30AB25AA43F8605D414652E70F95C1
:101F200018952495434618AA0FA94BE735FA8E3C1D
:101F30002DE9F0432DED048B804697B008461446FA
:101F40000D464DF06FFE009028464DF011FF09EE52
:101F5000900A019020464DF065FE08EE100A0290AE
:101F600020464DF005FF28EE698A00220123CDE9C5
:101F70000A2308EE900A16A90C9318EE103A0DF1F8
:101F8000240941F84C3DB1EE689A0DAF48460997D7
:101F90008DED0D9AFFF7BEFCDDED007ADDED026AF6
:101FA00066EEA76A16A916EE903A41F8483DFFF78B
:101FB000B1FC02A9FFF7AEFC9DED017A27EE097A8C
:101FC00016A917EE103A41F8443DFFF7A3FCDDEDEA
:101FD000007A67EEA87A16AD17EE903A45F8403DC4
:101FE00016AC29460026FFF795FC44F83C6D2146C7
:101FF000FFF790FC6946FFF78DFC01A9FFF78AFC0B
:102000000A9B0C9A1344032B02D10B9B032B05D084
:102010000B4B0C4A0C487C2150F00CFC0B4B0996E6
:1020200040462A4621460A960B93CDE90779FFF7E9
:1020300081FD404617B0BDEC048BBDE8F08300BFC6
:10204000D48A0600D0910600318D06003FED983805
:10205000F0B50E4685B00446FFF7F5F830684CF051
:1020600013F915A3D3E900234CF066F94CF034FCC6
:1020700004AD45F8100D70684CF006F90EA3D3E9D5
:1020800000234CF059F94CF027FC06F108010746F3
:102090002846FFF7C1FA01AD20663A460099284666
:1020A000FFF746FF95E8070004F1680383E807009F
:1020B00005B0F0BDAFF30080399D52A246DF913FDD
:1020C0004368C268D3ED067A92ED020A92ED017A76
:1020D00020EE270AD3ED037AA7EE270A92ED007AC5
:1020E000D3ED007AA7EE270A704700234FF07E5207
:1020F000026043608360C360026143618361C361C6
:102100000262704713B501A9FFF7EFFF02B010BDDF
:1021100070B50D46064604460FCD0FC40FCD0FC453
:102120002B682360304670BDD0ED047A90ED037AC1
:1021300067EEA77A70B5E7EE077A044646692DED9B
:10214000028B17EE900A0D464EF0C0F8014630465D
:102150004EF0BAF821690646E0684EF0B5F808EE90
:10216000100A216AA068B1EE488A4EF0ADF885EDFC
:10217000028ABDEC028B80F000402E60686070BD6A
:102180002DE9F74F0FF2900BDBE900AB24A7D7E95D
:102190000067044600F10C0520684CF075F83246E3
:1021A0003B464BF013FF1CA3D3E900234DF030FE58
:1021B00032463B464BF008FF4CF08EFB01904CF052
:1021C00063F832463B46804689464CF045FB48B1B1
:1021D00052465B46404649464BF0F6FE4CF07CFBCF
:1021E00020600BE010A3D3E90023404649464CF0A1
:1021F0001FFB48B9DDED017AC4ED007A0434AC422E
:10220000CAD103B0BDE8F08F52465B46404649460E
:102210004BF0DCFEE2E700BF182D4454FB211940CF
:10222000182D4454FB210940182D4454FB2109C0AA
:1022300008B50346D0E90002D9680A44032A02D14E
:102240009B68032B05D0034B034A04487C2150F0C4
:10225000F1FA08BDD48A060073940600318D060099
:1022600070B500260660D1ED027A8AB00022F1EE48
:10227000677A0123CDE907230C4609930AA917EED3
:10228000903A054641F8243D069006A8FFF742FB28
:10229000211DFFF73FFB04F10801FFF73BFB0AA9F3
:1022A00041F8206DFFF736FBD4ED007AF1EE677A46
:1022B0000AA917EE903A41F81C3DFFF72BFBD4ED2D
:1022C000017AF1EE677A17EE903A0AA941F8183DC3
:1022D000FFF720FB2146FFF71DFB0AA941F8146D0B
:1022E000FFF718FB06A8FFF7A3FF28460AB070BD4A
:1022F00010B5D0E90034626894ED027A1B68890059
:102300000A44D2ED006AC6EE877A0B44C3ED007A28
:1023100010BD10B58AB00B6803938B6804930AABA9
:10232000044643F8240D0990069306A802AB002149
:102330000793CDF820D0FFF7DBFF06A80121FFF7B8
:10234000D7FF06A80221FFF7D3FF06A80321FFF756
:10235000CFFF06A80421FFF7CBFF06A80521FFF752
:10236000C7FF06A80621FFF7C3FF06A80721FFF74E
:10237000BFFF06A80821FFF7BBFF20460AB010BD2B
:1023800043681B6889000B441A6803681B6819447A
:102390000A6070477FB506ABCDE9042043F8140D01
:1023A000009102A800210293CDF80CD0FFF7E8FFBE
:1023B00002A80121FFF7E4FF02A80221FFF7E0FFD6
:1023C00002A80321FFF7DCFF02A80421FFF7D8FFD2
:1023D00002A80521FFF7D4FF02A80621FFF7D0FFCE
:1023E00002A80721FFF7CCFF08210DEB0100FFF742
:1023F000C7FF07B05DF804FB884213B5044602D05E
:1024000001AAFFF7C7FF204602B010BD10B504684F
:10241000406824689FED0C7AD0ED026A02EB42031B
:1024200091420B4402694FEA83031C44F7EE007AA1
:10243000134418BFF0EE477A93ED007AE6EE877A00
:10244000C4ED007A10BD00BF00000000002210B5EE
:1024500011460446FFF7DAFF204600220121FFF76C
:10246000D5FF204600220221FFF7D0FF204601229F
:102470000021FFF7CBFF012211462046FFF7C6FFE0
:10248000204601220221FFF7C1FF2046022200213F
:10249000FFF7BCFF204602220121FFF7B7FF02220F
:1024A00011462046FFF7B2FF10BD000010B501EB4A
:1024B00082040460C0E9021200240121022AC0E95A
:1024C000044105D9034B044A04487A2150F0B2F97B
:1024D00010BD00BF018F06006F960600AC8E06008F
:1024E00010B502EB420401EB840481600021C0E9D5
:1024F0000312022A4FF003010460416105D9034B26
:10250000034A04487A2150F095F910BD018F060066
:102510004B970600AC8E06002DE9F0411746026885
:10252000D0F8048007EB470698B0731816680CA81B
:102530000A460CAC414606EB8306FFF7B7FF0FCC0B
:1025400012AD0FC594E803003A4685E80300D8F8B9
:10255000241006A8FFF7C4FF129B029301A8069B54
:102560000493FFF7ADFD86ED000A18B0BDE8F081D9
:1025700010B5002204460121FFF7CEFF20460022BD
:102580000221FFF7C9FF204601220021FFF7C4FF07
:10259000012211462046FFF7BFFF204601220221FB
:1025A000FFF7BAFF204602220021FFF7B5FF2046C1
:1025B00002220121FFF7B0FF022211462046FFF759
:1025C000ABFF10BD2DE9F04117460268D0F804803A
:1025D00007EB470698B0731816680CA80A460CACAF
:1025E000D8F8001006EB8306FFF760FF0FCC12ADA2
:1025F0000FC594E803003A4685E80300D8F80410B4
:1026000006A8FFF76DFF129B029301A8069B049397
:10261000FFF756FD86ED000A18B0BDE8F08100B561
:10262000D1E900238DB0CDE90723CDE909230323A8
:102630000B930CAB002243F8280D039307AB0493D4
:1026400001ABCDE90530114603A8FFF7BBFF03A896
:1026500000220121FFF7B6FF03A800220221FFF7A5
:10266000B1FF03A801220021FFF7ACFF01221146B0
:1026700003A8FFF7A7FF03A801220221FFF7A2FF8B
:1026800003A802220021FFF79DFF03A802220121D7
:10269000FFF798FF0222114603A8FFF793FF0DB042
:1026A0005DF804FBF0B593B00F4605AC0546204637
:1026B0001646FFF7B4FFBB681093CDE90E34032331
:1026C000119312AB002243F8485D114601A8CDE9F1
:1026D0000134CDE90365FFF71FFF01A8FFF748FFAD
:1026E00013B0F0BD2DE9F04F2DED028BB5B09FED8D
:1026F000928A019310AB01252B9300230DF1D00B8F
:10270000CDE92C3518EE103A4BF8B03D8A46F7EE7D
:10271000008A039059462BA891460DF1D0082E95BA
:10272000CDED108AFFF7F6F818EE103A48F8AC3DF8
:102730004146FFF7EFF834AF18EE103A47F8A83DDE
:102740003946FFF7E7F80446DAF800004DF06AFA78
:1027500034AB43F8A40D204619460093FFF7DAF88E
:102760000646DAF8000080F000404DF001FB34AC82
:1027700044F8A00D30462146FFF7CCF834AE18EEF1
:10278000103A46F89C3D3146FFF7C4F80290DAF85B
:10279000000080F000404DF0EBFA34AA80F00040D9
:1027A00042F86C0D029B049211461846FFF7B2F8EE
:1027B0000290DAF800004DF035FA0DF1D00A029BD4
:1027C0004AF8480D18465146FFF7A4F82BA8FFF722
:1027D0002FFDD9F800004DF025FA049A2B92002322
:1027E000CDE92C35059234AB18EE102A43F8B42D00
:1027F000199019462BA804932E95FFF78BF8029099
:10280000D9F8000080F000404DF0B2FA80F00040AE
:10281000089059460298FFF77DF841468DED098AE8
:10282000FFF778F83946CDED0A8AFFF773F800997B
:102830008DED0B8AFFF76EF80290D9F8000080F05A
:1028400000404DF095FA21460C900298FFF762F88F
:1028500031468DED0D8AFFF75DF80290D9F8000042
:102860004DF0E0F9514622900298FFF753F82BA85B
:10287000FFF7DEFC019BD3F8009048464DF0D2F9FB
:102880000023229089F00040CDE92C352E95CDF81B
:10289000ACA04DF06DFA34A941F8B80D2BA8FFF7A4
:1028A00039F8049B8DED078A1946FFF733F8019B31
:1028B0000546186880F000404DF05AFA80F000405C
:1028C000594608902846FFF725F8019B05461868E9
:1028D0004DF0A8F9414609902846FFF71BF8394604
:1028E0008DED0A8AFFF716F800998DED0B8AFFF738
:1028F00011F821468DED0C8AFFF70CF83146CDED2D
:102900000D8AFFF707F82BA8FFF792FC059A0F92A4
:1029100010AB224631462BA80E93CDF834A0FFF71A
:10292000C1FE32462BA90398FFF734FD35B0BDEC4C
:10293000028BBDE8F08F00BF000000001FB5044609
:10294000096812681B68019101A802920393FFF7BE
:1029500017FC03AB02AA01A92046FFF7C3FE04B08F
:1029600010BD4369D0ED017A1A44036902EB4202BB
:1029700019440A44C16801EB820292ED007A67EEC5
:10298000277A17EE900A7047F0B52DED028B0229D9
:1029900091B00C468768C66805D91C4B1C4A1D4877
:1029A0007A214FF047FF41696846FFF799FDCDE96D
:1029B0000A640024009D08972246214607A80C942B
:1029C0000E95FFF7CEFF214608EE100A012207A858
:1029D000FFF7C7FF022208EE900A214607A8FFF77B
:1029E000C0FFD5ED027A07EE100A67EE277A95ED63
:1029F000017AE8EE877A95ED007AE8EE077A17EE2D
:102A0000900A11B0BDEC028BF0BD00BF018F060033
:102A1000D8940600AC8E060038B50568406802EB15
:102A2000420463182C6804EB8304FFF7ADFFD4ED78
:102A3000007A07EE100A77EE877AC4ED007A38BD87
:102A4000D1ED027AD1ED016A91ED007A67EEA77AB5
:102A5000F0B5E6EEA67A04460D462DED028BE7EEC4
:102A6000077A9FB012AE17EE900A4DF02FFC08EED9
:102A7000100AB5EEC08AF1EE10FA08D831462046A9
:102A8000FFF733FB20461FB0BDEC028BF0BD29469B
:102A9000304609ADFFF7E4FB05A928468DED078A0E
:102AA0000596FFF736FC18EE100A4DF061F907465F
:102AB00018EE100A4DF0B6F814971EAF07EE900A04
:102AC00047F8684D03ABB7EE008A05A838EE678A71
:102AD000169507930193CDE905760894FFF7B6FCA8
:102AE000019B1595CDE90447CDE9073403221795DD
:102AF000CDE91B558DED148A8DED198A1D92069630
:102B000000252A46002105A8FFF786FF2A46012155
:102B100005A8FFF781FF2A46022105A80135FFF726
:102B20007BFF032DEDD1ADE730B597B004AD044682
:102B30002846FFF785FF02A90DA8CDE90245FFF75A
:102B40006EFD01AA0DA92046FFF724FC17B030BD89
:102B500000F1080373B50360044608460D4651F0C2
:102B60002FFF0F2805EB0006019007D9002201A9CD
:102B700020464AF05FF8019B2060A3603246294658
:102B800020684AF083F8019B226863600021204698
:102B9000D15402B070BD000038B52DED048B08EEA5
:102BA000103A00F11C0343610023044609EE101A99
:102BB00000F114058361037747490A9808EE902ACB
:102BC0004AF0C6F8002859D119EE100A4BF05CFB08
:102BD0003BA3D3E900234BF0AFFB3BA3D3E9002396
:102BE0004BF0D4FC4BF078FE206018EE900A4BF0CE
:102BF0004BFB33A3D3E900234BF09EFB0022374B62
:102C00004BF0C4FC4BF068FE606018EE100A4BF00D
:102C10003BFB2BA3D3E900234BF08EFB2CA3D3E982
:102C200000234BF0B3FC4BF057FEA06008984BF02C
:102C30002BFB23A3D3E900234BF07EFB22A3D3E994
:102C400000234BF0A3FC4BF047FEE06009984BF0EB
:102C50001BFB1BA3D3E900234BF06EFB1AA3D3E9A4
:102C600000234BF093FC4BF037FE20610A99284675
:102C70004AF01AF8BDEC048B204638BD18490A9872
:102C80004AF066F80028F1D1DFED167A9DED087A5A
:102C900027EE277A29EE279A84ED037A9DED097AAB
:102CA00084ED009A68EEA78A28EE278A67EE277AD5
:102CB000C4ED018A84ED028AC4ED047AD6E700BF30
:102CC000399D52A246DF913F000000000020AC4039
:102CD00000000000005E0A412698060000004E40F9
:102CE0002B980600AE6A24372DE9F043DFF83C90BC
:102CF0008BB00546044600F1840804AE002749461F
:102D00003046FFF725FF00231A4619462046029653
:102D100001970097FFF740FF2C34304649F0AEFF93
:102D2000A045ECD128460BB0BDE8F08326980600FC
:102D30000B6810B503604B6843608B688360CB6899
:102D4000C3600B69036104461431143049F0ACFFD1
:102D5000204610BDF8B5044604F1840715460E461A
:102D6000FFF7C2FF3846FFF7BFFF31462046FFF7A7
:102D7000DFFF314604F12C00FFF7DAFF314604F1A2
:102D80005800FFF7D5FF29463846FFF7D1FF2946FF
:102D900004F1B000FFF7CCFF294604F1DC00FFF797
:102DA000C7FF2046F8BDCA6802608A6B42604A6E5F
:102DB000826070474A6802600A6B4260CA6D826036
:102DC0007047D1F884200260D1F8B0204260D1F879
:102DD000DC2082607047D1F894200260D1F8C020D6
:102DE0004260D1F8EC2082607047D1F890200260F8
:102DF000D1F8BC204260D1F8E82082607047F8B575
:102E0000074600F1140501F1140401F1980654F885
:102E1000143C45F8143C54F8103C45F8103C54F868
:102E20000C3C45F80C3C54F8083C45F8083C54F878
:102E3000043C45F8043C214628462C3449F06AFFFE
:102E4000B44205F12C05E2D13846F8BD38B5044648
:102E50000D46FFF7D4FF05F1840104F18400FFF76C
:102E6000CEFF204638BD000070B5EEB005462CAC54
:102E7000042900F2E880DFE801F05503377593007C
:102E80007F492046FFF764FE7E497F4B01914FF05A
:102E90007C520091029416A8FFF77EFE204649F06E
:102EA000EDFE7A492046FFF753FE794B79497A4A7D
:102EB0000093029401914FF0824321A8FFF76CFE2A
:102EC000204649F0DBFE21AA16A92046FFF742FF63
:102ED00021462846FFF7BAFF2046FEF7E3F826A86A
:102EE00049F0CCFE1BA8A9E065492046FFF730FE5B
:102EF0006A496B4B6B4A0191009302946A4B16A886
:102F0000FFF74AFE204649F0B9FE60492046FFF728
:102F10001FFE4FF080436549009302940191624B7C
:102F2000634ACAE756492046FFF712FE564B019303
:102F30005F4B604A009300215F4B029416A8FFF795
:102F40002BFE204649F09AFE50492046FFF700FE2E
:102F50005A4B01935A4A5B4B009302944FF07E53B5
:102F60000021AAE746492046FFF7F2FD524B0193A4
:102F7000524B554A00930021544B029416A8FFF778
:102F80000BFE204649F07AFE40492046FFF7E0FD5F
:102F90004F4B01934F4B009302944F4B4F4ADFE747
:102FA00037492046FFF7D4FD434B0193434B464A34
:102FB00000930021454B02940BA8FFF7EDFD20463E
:102FC00049F05CFE31492046FFF7C2FD404B0193BA
:102FD000404B424A009300213F4B029416A8FFF752
:102FE000DBFD204649F04AFE05AE16AA0BA9204695
:102FF000FFF7B0FE22493046FFF7AAFD384B019398
:10300000384B394A00930021384B029621A8FFF72C
:10301000C3FD304649F032FE21A942A8FFF788FEE1
:1030200021462846FFF712FF26A849F027FE204632
:10303000FEF738F81BA849F021FE10A849F01EFE43
:1030400028466EB070BD00260D492046FFF780FD72
:103050003346274A029431460196009616A8FFF798
:103060009BFD204649F00AFE08492046FFF770FD07
:10307000204B0093029401963346324631461CE7BA
:103080002698060000007A43000034422B98060080
:1030900000803B450000FA4400005C4300004842C9
:1030A000000016435A64BB3E0000704100000C440F
:1030B0000000C8429A99193E0000A04100009643C2
:1030C000000020420000FA43CDCCCC3E0000E0409E
:1030D0000000AF4300007A449A9959400000AA4288
:1030E0000000204014AEA341CDCC4C3DCDCC2C40B3
:1030F0000B045C4000002F4410B5044606F079FB39
:10310000002384F8C830204684F8C93010BD7047C9
:103110001FB501220421044606F0DFFC4FF0011325
:1031200001930123ADF8083004AB13E90E002046EB
:1031300004B0BDE8104006F0F0BC000073B50D46C9
:1031400002A90023044621F8023D164606F0F0FCD1
:1031500094F8C83093B9BDF806305B040ED520460C
:1031600006F022FCE368C4F8B0302369C4F8B43038
:103170006369C4F8B830012384F8C83094F8C930C2
:1031800093B9BDF90630002B0EDA204606F00CFC90
:103190002368C4F8BC306368C4F8C030A368C4F8BE
:1031A000C430012384F8C93094F8C830CBB194F806
:1031B000C93003F0FF00A3B1002384F8C8303246C1
:1031C00084F8C930294604EB83050133D5F8BC6087
:1031D00042F8046B032BD5F8B05041F8045BF2D1F0
:1031E00005E0BDF8060010F4404402D0002002B013
:1031F00070BD034903480BF027F82046F7E700BFEE
:10320000309806008C2200202DE9F0410546124836
:10321000DFF84480114F124E08F0ECFE06244246BF
:103220006821284606F03CFB58B1394630460BF081
:103230002DF84FF47A700BF0D1FA013CEFD1204613
:1032400008E00821284606F008FC0821284606F078
:1032500024FC0120BDE8F081041F00204D980600E9
:103260008C22002010B5C0E9001207318360C90824
:103270000023C360016110BD2DE9F04106680569B6
:10328000846806F1FF3C012303FA0CFCB340013BC8
:10329000A2EB050E8846083EA8EB010575450EDA3F
:1032A00018F8015BB5406C4008250CEA040703EAF6
:1032B00044040FB147687C40013DF6D1ECE700259E
:1032C0000369AB4209DDD61A013B5B1B4F19DB00DA
:1032D00024FA03F3BB550135F2E7BDE8F0817047EE
:1032E00010B55C21044642F0BBFF204610BD000033
:1032F0000B4A02601F210022C0E90921C0E90B220C
:1033000080F8342080F83520C0E90E220264A0F84D
:10331000442080F84620C0E91222C0E915227047F7
:10332000649806008B6A8362CB6AC3620B6B03638B
:1033300091F8343080F8343091F8353080F83530F9
:103340008B6B8363CB6BC3630B6C0364B1F844304A
:10335000A0F8443091F8463080F846308B6C836496
:10336000CB6CC364B1F85030A0F850304B6D43655E
:103370008B6D8365704708B5FFF7D4FF08BD70B546
:10338000054686B068460E4603F06AFCEC6C68465B
:10339000002CCCBF0234002403F0A0FC0230241A1D
:1033A000A86A241808D4AC62AE64684603F096FCA0
:1033B000E864012006B070BD0020FBE710B5036C87
:1033C00023B190F84640023304B10233941C1B1B16
:1033D000846A1B1958BFC0E90F124FF000045BBF8D
:1033E00080F8464083622046012010BD30B5046C51
:1033F00024B190F84650023405B102341D1D641BFF
:10340000856A64195FBFC0E90F230123A0F8441047
:1034100080F8463056BF84620020184630BD30B573
:10342000846D002CCCBF043400241D1D641B856AF0
:1034300064195DBFC0E91523A0F850108462002014
:1034400058BF012030BD70B50546806B0E4688B16F
:10345000047814B151F0B4FA841C304651F0B0FA3B
:103460000230241AA86A24185DBFAC62AE63012042
:10347000002070BD0446F0E790F83530826A002BDA
:103480000CBF6FF0020300239B185FBF8362012310
:1034900080F8353080F8341054BF1846002070474B
:1034A00004307047406A704790F83500704738B56F
:1034B0000446406AC0F11F039342154608DB0430FE
:1034C000204450F047FD626A2A446262012038BD00
:1034D0000020FCE770B50446406A0E461D461146C2
:1034E0000233C0F11F029A420FDB23186A1C1A71C3
:1034F000821C0630626220445E712A4650F02AFD2A
:10350000636A2B446362012070BD0020FCE770B544
:1035100086B00546684603F0A3FB684603F0DEFB71
:10352000022804466846CCBF0626022603F0D4FBD8
:103530002346024631462846FFF7CCFF06B070BD51
:1035400013460A46FF21FFF7C5BF70B588B008AC27
:10355000064624F8201D10461D461A4601460DF168
:10356000020050F0F7FCAB1C2246FF213046FFF76B
:10357000B1FF08B070BD70B588B008AC064624F83D
:10358000201D10461D461A4601460DF1020050F05E
:10359000E1FCAB1C224616213046FFF79BFF08B02A
:1035A00070BD07B502AA012302F8011D1946FFF7F5
:1035B00091FF03B05DF804FB70B5054610460E465A
:1035C000144651F0FDF92246034631462846BDE82F
:1035D0007040FFF77FBF70B5054608460C4651F0B6
:1035E000EFF91D2807D9224628461D230821BDE8EA
:1035F0007040FFF76FBF224628460921BDE87040A2
:10360000FFF7DABF38B5C16A00230546436229B126
:10361000026B1AB1BDE83840FFF749BF95F8353065
:103620007BB395F834102846FFF7BBFF0446A96C1E
:1036300021B12846FFF76BFF0440E4B2E96B61B1AA
:103640002B6C53B195F84620EAB10A462846B5F8E6
:103650004410FFF77AFF0440E4B26A6D42B1AB6DEB
:1036600033B1B5F850102846FFF785FF0440E4B2A7
:10367000A96B21B12846FFF7AEFF0440E4B2204613
:1036800038BD0124D3E71A462846FFF759FFE2E781
:103690000C4B10B504460360406838B100F0A4FA42
:1036A00020B9606810B103685B689847A06838B1BA
:1036B00001F01DF820B9A06810B103685B68984755
:1036C000204610BD7498060010B50446FFF7E0FFD1
:1036D00020460C2142F0C4FD204610BD064B10B51B
:1036E000C0E9003100230446836011B1084600F0B0
:1036F00076FA204610BD00BF74980600064B10B540
:10370000036000230446C0E9013111B1084600F00E
:10371000E9FF204610BD00BF749806002DE9F34173
:103720000446542098460E46174642F07FFD9DF809
:1037300020300093054643463A46314600F02EFBC2
:1037400029462046FFF7CAFF204602B0BDE8F081B7
:103750000346406808B100F057BA986808B100F015
:10376000EFBF70470346406808B100F04FBA986851
:1037700008B100F0E7BF704710B4446824B1204698
:103780005DF8044B00F044BA806818B15DF8044B52
:1037900000F0DABF5DF8044B70470346406808B19B
:1037A00000F096BA986808B101F022B8704713B5D6
:1037B00002AC134644F8041D04222146FFF7DCFF47
:1037C00002B010BD406808B100F08FBA7047406881
:1037D00070477047024B186803681B69184700BFA1
:1037E000149C0600024B186803685B69184700BF09
:1037F000149C060010B4054B01791B681A685469C3
:10380000421D184623465DF8044B1847689A060087
:1038100010B50B4B0446186821790368621D9B6A3A
:1038200098474FF6FF739842014606D0054B18683B
:103830000268BDE81040926A104794F94B0010BD31
:10384000689A0600149C060010B54C21044642F00C
:1038500007FD204610BD000010B58AB00446487927
:103860004B7A8A7A039088790290C8790190097A14
:10387000009105A8044950F08DFE05A920460AF0E4
:1038800083FE20460AB010BD7C98060007B50023D1
:103890000622694605300093ADF8043050F028FB4D
:1038A000003018BF012003B05DF804FB08B50279B1
:1038B0000B799A4208D106220531053050F018FBE9
:1038C000B0FA80F0400908BD0020FCE710B50A4BB3
:1038D0000446186803681B699847236820461B6ADA
:1038E000984740B1054B217918680368621D5B6BEE
:1038F000BDE81040184710BD149C0600689A0600E9
:1039000008B502790B799A4208D1062205310530B3
:1039100050F0EEFA003018BF012008BD0120FCE78E
:10392000064A02607F210022C272027380F84B10A7
:10393000C0F80520A0F80920704700BFA498060031
:1039400010B501710021C1720173064C04607F2122
:1039500080F84B101168C0F805109288A0F8092073
:1039600010BD00BFA49806002DE9F0410F46144990
:1039700006460AF009FE3A7B00218A421CDD7B18CC
:1039800001F10208597B9B7B083B012B01F1FF34BD
:103990000FD8214630460AF0CBFD0025AC420BDDA6
:1039A00008EB05033B443046597B0AF050FE0135D5
:1039B000F4E704EB0801E0E73046BDE8F08100BF22
:1039C00040FE06002DE9F04F85B08846224901925D
:1039D00083460AF0D9FD0024A14698F80C30A34292
:1039E00035D908EB0403671CFFB25E7B08EB0703C5
:1039F0005B7B9A1E012A25D9063B012B24D8102572
:103A00000234E4B205FB05F30D34009344444FF057
:103A1000000A731EEAB2534516DD019989450BD1A0
:103A2000114620460393029203F05AF90146584684
:103A30000AF0E2FDDDE90223009909F10109AA4437
:103A40000C44E8E70225DBE73E44F4B2C5E75846FC
:103A500005B0BDE8F08F00BF40FE060010B50022A3
:103A60000446FFF7AFFF204610BD08B513460279A4
:103A70008A4208D106221946053050F039FAB0FAC8
:103A800080F0400908BD0020FCE710B50446012085
:103A900000FA01F1E1722273194604F10D0050F0B1
:103AA00059FA9DF9083084F84B3010BD70B50D46B9
:103AB0001146C27A42F010020446C272007B0D30F9
:103AC0002A4620441E4650F045FA237B84F84B607A
:103AD0001D44257370BDC37A13F0180F14BF012065
:103AE000002070470C4B10B504460360406838B1A5
:103AF00000F07AF820B9606810B103685B689847F5
:103B0000A06838B100F0F3FD20B9A06810B10368D7
:103B10005B689847204610BDD898060010B504464B
:103B2000FFF7E0FF20460C2142F09AFB204610BD33
:103B3000064B10B5C0E9003100230446836011B183
:103B4000084600F04CF8204610BD00BFD89806008B
:103B500070B5044630200E4642F068FB31460546FB
:103B600000F0FAFC29462046FFF7E2FF204670BD30
:103B70000346406808B100F029B8986808B100F021
:103B8000AFBD0148704700BF40FE0600406808B165
:103B900000F020BD704740687047704700207047B4
:103BA00010B52021044642F05BFB204610BD00000A
:103BB00010B5054B044640F8043B03F051F80023D0
:103BC000E361204610BD00BFE8980600043003F012
:103BD00081B8043003F080B8043003F07FB8C369C3
:103BE0000133C36118467047C369013BC36118467E
:103BF000704742F60300704790F82000704790F835
:103C000021007047406A7047806A7047808D704716
:103C1000F8B51546426AAA42A8BF2A4604468285DC
:103C200092B2806A0E4650F095F994F82E300BB19E
:103C3000636AA38594F8203098060DD5A28E91076B
:103C40000AD51F4B218E186803685D6D0131A38D65
:103C5000A26A89B2A847F8BDDA0609D5A38EDB07A8
:103C600006D5174B218E1868036801311D6DEEE7EC
:103C700094F832300BB90120EDE7124B1868036855
:103C800021465B6A9847104B1C68236801461F6BEE
:103C900032462B462046B847094B186803681B6B11
:103CA00098470028E7D1094B186803689B68984734
:103CB0000028E0D0236820465B6D9847DBE700BF13
:103CC000689A0600B49B060024990600689B0600CB
:103CD00038B5054608460C4650F072FE21460246AD
:103CE0002846BDE83840FFF793BF0346002290F80E
:103CF000330083F83320704701867047008E704789
:103D0000008E013080B27047806B7047836B9942A0
:103D100008D2C36B0022914202D05B680132FAE7FD
:103D2000186870470020704730B5114B03600B795D
:103D300003710B4601F1490453F8052FC0F8052023
:103D40009B88A0F80930CB7AC3720B7B037300F118
:103D50000D0201F10D0353F8045B42F8045BA3422A
:103D6000F9D11B88138091F94B3080F84B3030BD6E
:103D7000A498060038B5044608200D4642F056FACD
:103D80000023C0E9005363682BB960602368A0601A
:103D90000133236038BDA3685860F7E770B5044667
:103DA00015461E46FFF704FF1E4B2360B6F5007F45
:103DB0004FEA152384F821303346A8BF4FF400732F
:103DC000002163629DF8103084F82050A18584F8AA
:103DD0002E30218684F8321084F83310A186C4E98D
:103DE0000E112164102204F1440050F0B1F915F0D5
:103DF000300F11D02C2042F019FA0B49054602234E
:103E000004F1340200F0D6F82846FFF7E8FE294610
:103E100004F13800FFF7AEFF30464FF04DFDA062D1
:103E2000204670BD04990600F498060070B504465B
:103E3000406800252368AB4206D94668082142F055
:103E40000FFA01353046F5E70023C4E90033A360DB
:103E500070BD0000154B70B5044603600025A36BD0
:103E60009D4212D2E36B0022954202D05B68013280
:103E7000FAE71E683046FFF7B7FE20B91EB1336877
:103E800030465B6898470135E9E704F13805284674
:103E9000FFF7CCFFA06A08B14FF016FD2846FFF7E8
:103EA000C5FF2046FFF779FE204670BD0499060045
:103EB00010B50446FFF7CEFF2046542142F0D0F95A
:103EC000204610BDF0B5C56C97B0044617461E4697
:103ED0007DB103A8FFF728FF21466846FFF7FEFBE8
:103EE000694603A8A8476846FFF7D2FB03A8FFF777
:103EF00070FCA16A1C9A3944304650F02BF817B078
:103F0000F0BD70B504460E461146012280F83320FC
:103F100096B01A46FFF77CFE256D85B1314603A8A1
:103F2000FFF702FF21466846FFF7D8FB694603A862
:103F3000A8476846FFF7ACFB03A8FFF74AFC16B09A
:103F400070BD30B5838E02F00302934297B00446F1
:103F500017D08286002A0CBF4422402202445568B2
:103F60007DB103A8FFF7E0FE21466846FFF7B6FBE8
:103F7000694603A8A8476846FFF78AFB03A8FFF72E
:103F800028FC17B030BD4FF42450704710B5034BD8
:103F900003600446FFF701FE204610BD1899060095
:103FA00010B50446FFF7F2FF20462C2142F058F9E5
:103FB000204610BD70B504461D461646FFF7F8FDB5
:103FC000064B2360B5F5007FA8BF4FF400750023B2
:103FD000266265622385204670BD00BF18990600E1
:103FE000406A7047006A704701857047064B186841
:103FF000036810B5DB689847044B18680368BDE890
:104000001040DB68184700BFB49B0600149C0600F4
:10401000024B186803681B69184700BF149C060010
:10402000024B186803685B69184700BF149C0600C0
:1040300010B5064B186803681B699847044B18684D
:104040000368BDE810401B6B184700BF149C0600B6
:10405000689A060010B5064B186803681B699847F4
:10406000044B18680368BDE81040DB6B184700BFBD
:10407000149C0600689A0600024B186803689B6C43
:10408000184700BF689A06000C30704768307047C8
:10409000024B186803681B69184700BFB49B0600F1
:1040A000024B186803685B69184700BFB49B0600A1
:1040B000024B186803689B69184700BFB49B060051
:1040C000024B186803681B69184700BF689B06000D
:1040D000024B186803685B69184700BF689B0600BD
:1040E000024B186803685B6A184700BF689B0600AC
:1040F00010B5074B0446186803681B699847054BC1
:1041000019680B682046DB6C9847204610BD00BF3D
:10411000149C0600689A060010B5074B0446186800
:1041200003681B699847054B19680B6820469B6A12
:104130009847204610BD00BF149C0600689B0600EF
:10414000024B18680368DB6A184700BF689B0600CB
:10415000024B186803689B69184700BF789E0600E9
:10416000024B18680368DB69184700BF789E060099
:10417000024B186803681B6B184700BF689B06005A
:10418000024B18680368DB68184700BF689A06008E
:10419000024B186803681B6A184700BF789E060028
:1041A000024B186803685B6A184700BF789E0600D8
:1041B000024B1B68C3F8F010704700BF149C060048
:1041C000024B1B68C3F8F810704700BF149C060030
:1041D000024B1B68C3F8F410704700BF149C060024
:1041E000024B1B68C3F8EC10704700BF149C06001C
:1041F000024B1B68C3F8FC10704700BF149C0600FC
:10420000024B1B68C3F80011704700BF149C0600E6
:10421000024B18680368D3F89C301847149C0600BA
:10422000024B18680368D3F8A0301847149C0600A6
:10423000F0B52A4B1D682B6887B004469B6828465A
:104240009847064620B923682046DB6898470DE06A
:1042500064200AF0C3FA2B6828469B6998470646F3
:1042600038B123682046DB6898470026304607B0FF
:10427000F0BD05AA2B6801920DF112020092DF69D0
:1042800004AA0DF10E030DF10D012846B8470028D0
:10429000D9D12B684FF0FF32D96A28466FF04043DE
:1042A00088470028CFD12B6840F2FF32196B28468F
:1042B0000023884706460028D3D12B680DF10F0252
:1042C0005B6B0DF11601284698470028BBD1044BC3
:1042D000186803689B6898470126C7E7149C060086
:1042E000B49B060010B58CB000230593ADF81830D0
:1042F000104B04461868036805A91B6A98479DF887
:10430000141003919DF8151002919DF8161001915B
:104310009DF817109DF818309DF81920009107A8F6
:10432000054950F037F907A920460AF02DF9204633
:104330000CB010BD149C06007C9806000C30FFF7F2
:104340001EB870B50368044608469D6AFFF710FC66
:104350002B4601462046BDE8704018470C30FFF759
:104360005EB80C30FFF72AB80C30FFF73FB8683062
:10437000FFF769B86830FEF7FEBF10B500F10C0416
:104380002046FEF7F8FF2046FFF78EF828B92046B2
:104390000621BDE81040FFF76FB810BD2DE9F743C7
:1043A00000F10C05044668342846FFF72BF9204637
:1043B000FFF728F90E4B1E6833682846DF68FFF7C1
:1043C0006FF880462846FFF76DF805462046FFF750
:1043D00067F881462046FFF765F8C0B200904B466B
:1043E000EAB241463046B84703B0BDE8F08300BFAB
:1043F000689B06007FB5094B1C682368164601A818
:104400009D690AF0EFF8324601A92046A847044604
:1044100001A80AF06EF8204604B070BD689B060043
:104420007FB5094B1C682368164601A8DD690AF0B0
:10443000D9F8324601A92046A847044601A80AF047
:1044400058F8204604B070BD689B06007FB5094B44
:104450001C682368164601A81D6A0AF0C3F8324694
:1044600001A92046A847044601A80AF042F82046C0
:1044700004B070BD689B060002290BBF044B054BBE
:10448000186818680BBF036803685B6B9B6D18475F
:10449000689B0600689A060038B50446084B44F845
:1044A0000C3B05462046FEF723FF05F16800FEF7AA
:1044B0001FFF06212046FEF7DFFF284638BD00BF5C
:1044C0003099060010B5054C2046FFF7E5FF204661
:1044D000034A0449BDE8104041F09DBCB0150020DE
:1044E00000020020E944010010B5064B044640F8E4
:1044F000683BFEF7F4FE04F10C00FEF7F0FE2046E8
:1045000010BD00BF3099060010B50446FFF7ECFF60
:104510002046C42141F0A4FE204610BD10B50B4B2F
:1045200019680B6894B001A8DB6C984701A8FFF7E5
:10453000ADF948B101A8FFF76BF9044601A8FFF7F0
:1045400048F9204614B010BD7F24F7E7689A0600AA
:104550004FF420507047000010B50446FFF728FBC9
:10456000044B23600023C4E90833C4E90A3320461E
:1045700010BD00BFFC990600018442847047008C86
:104580007047408C7047406A7047436A994208D22E
:10459000836A0022914202D05B680132FAE7186810
:1045A00070470020704738B5044608460D46FFF7AF
:1045B00016FB082041F03AFE0023C0E90053A36A2D
:1045C0002BB9A062636AE0620133636238BDE36ABB
:1045D0005860F7E710B504460846FFF7F8F80146BB
:1045E00020B12046BDE81040FFF7DDBF10BD70B51B
:1045F0000446406800252368AB4206D94668082176
:1046000041F02EFE01353046F5E70023C4E90033C2
:10461000A36070BD10B504462430FFF7E8FF002307
:10462000236210BD134B70B5044603600025636A16
:104630009D4212D2A36A0022954202D05B680132E9
:10464000FAE71E683046FFF7CFFA20B91EB133688B
:1046500030465B6898470135E9E72046FFF7DAFF07
:1046600004F12400FFF7C3FF2046FFF796FA204627
:1046700070BD00BFFC99060010B50446FFF7D2FFDD
:104680002046302141F0ECFD204610BD10B5044B12
:10469000044640F8043B09F02CFF204610BD00BF43
:1046A000109A060010B50446FFF7F0FF20461421CB
:1046B00041F0D6FD204610BD38B504462546074BCF
:1046C00045F8043B0846114602F00AFB014628461D
:1046D00009F05AFF00232361204638BD109A0600D6
:1046E00040687047036901330361184670470369E6
:1046F000013B03611846704770B504461E46BDF87D
:104700001450FFF7D9FF0D4B2360BDF81030E38242
:10471000BDF81830257663832D0A00230122A68276
:104720006576C4E9073384F8243084F82520C4E989
:104730000A33C4E90C33204670BD00BF209A06003E
:10474000C0697047006A70472DE9F0439846274BCF
:104750001E68336885B004460F469B6B818A3046DD
:104760009146984718B9002005B0BDE8F08333683A
:10477000A18A5B6C30469847033885B24D45A8BF87
:104780004D462946E0694FF043FDE0610028EAD03C
:10479000237E1A071CD5B8F1000F19D003A833687F
:1047A0000190E8B20090D3F86080628BA18A3B460A
:1047B0003046C0470028D7D09DF80C30012BD2D00E
:1047C0002A463946E0694FF0C5FB25620120CBE758
:1047D0005B07C8D53368628BA18AE8B20090D3F832
:1047E000648030463B46C047EAE700BF689A06004F
:1047F00070B50546084616460C4650F0E1F83346BB
:10480000024621462846BDE87040FFF79DBF408B19
:10481000704738B5044608460D46FFF763FF082089
:1048200041F004FD0023C0E90053E36A2BB9E062C4
:10483000A36A20630133A36238BD236B5860F7E796
:1048400070B50446406800252368AB4206D9466827
:10485000082141F005FD01353046F5E70023C4E9A4
:104860000033A36070BD03688B4208D943680022FF
:104870008A4202D05B680132FAE71868704700206C
:1048800070470000F8B50546134B45F8283B044631
:104890000026A36A9E420ED231462846FFF7E3FF68
:1048A0000746FFF724FF20B91FB13B6838465B6815
:1048B00098470136EDE72846FFF7C2FFE06918B1D7
:1048C0004FF002F80023E3612846FFF7B9FF2046C6
:1048D000FFF7DCFE2046F8BD209A060010B504461E
:1048E000FFF7D0FF2046382141F0BAFC204610BD2A
:1048F00070B50446036296B00D46C0691946164667
:104900004FF086FCE06110B9206216B070BD012343
:1049100084F824300023314684F82530226A4FF091
:1049200019FB666B002EF0D0194B03932B798DF891
:1049300010302B4605F1490153F8052FCDF8112011
:104940009B88ADF81530EB7A8DF817302B7B8DF8FE
:1049500018300DF1190205F10D0353F8040B42F85C
:10496000040B8B42F9D11B88138095F84B308DF8DE
:10497000573021466846FEF7C1FE694603A8B04796
:104980006846FEF785FE03A8FEF723FFBDE700BFDC
:10499000A4980600074B10B504460360806918B15F
:1049A0004EF092FF0023A3612046FFF76FFE2046E2
:1049B00010BD00BF309A060010B50446FFF7EAFFAD
:1049C0002046202141F04CFC204610BD38B504465D
:1049D0001D46FFF771FE054B2360BDF81030E382E2
:1049E0000023A582C4E90633204638BD309A06006C
:1049F000034A02600022C0E90122C260704700BF82
:104A0000409A060038B5044608460D46FFF76AFE90
:104A1000082041F00BFC0023C0E90053A3682BB928
:104A2000A0606368E0600133636038BDE36858608C
:104A3000F7E7406870474368994208D283680022CC
:104A4000914202D05B680132FAE718687047002093
:104A5000704770B50446406800252368AB4206D90C
:104A60004668082141F0FCFB01353046F5E700239C
:104A7000C4E90033A36070BD70B5064600247368B6
:104A80009C4212D2B3680022944202D05B68013289
:104A9000FAE71D682846FFF72AFE20B91DB12B68EA
:104AA00028465B6898470134E9E7301DFFF7D1FFDE
:104AB00070BD000038B50446054B44F8043B05467C
:104AC000FFF7DAFF2046FFF7C4FF284638BD00BFD6
:104AD000409A060010B50446FFF7ECFF204610216F
:104AE00041F0BEFB204610BD38B504461D46FFF719
:104AF000E3FD084B2360BDF81030E382A582064930
:104B000004F1180009F040FD0023C4E90933E36211
:104B1000204638BD509A060040FE0600808A704745
:104B2000C08A7047406A7047436A994208D2836AD4
:104B30000022914202D05B680132FAE718687047A0
:104B40000020704738B5044608460D46FFF7CAFDF9
:104B5000082041F06BFB0023C0E90053A36A2BB986
:104B6000A062636AE0620133636238BDE36A586041
:104B7000F7E770B50446406800252368AB4206D9C4
:104B80004668082141F06CFB01353046F5E700230B
:104B9000C4E90033A36070BD154B70B504460360D3
:104BA0000025636A9D4212D2A36A0022954202D078
:104BB0005B680132FAE71E683046FFF798FD20B9BE
:104BC0001EB1336830465B6898470135E9E704F168
:104BD00024052846FFF7CDFF2846FFF7CAFF04F15A
:104BE000180009F086FC2046FFF750FD204670BDF6
:104BF000509A060010B50446FFF7CEFF204630213C
:104C000041F02EFB204610BDA0F8A8107047C0F858
:104C1000AC1070472DE9FF41013A13F8014BD6B2B1
:104C20000268CDE90233526C05460F4690470C2CC2
:104C300002462968029B79D02FD8052C69D01AD852
:104C4000022C60D00BD8012C53D006230093D1F84E
:104C5000DC600023224639462846B0476EE0032C2C
:104C600054D0042CF1D10093D1F894403346394606
:104C70002846A04762E0092C52D007D8062C4BD01A
:104C8000082CE2D10093D1F8A440EFE70A2C4DD0D4
:104C90000B2CDAD1D1F8B4402DE0162C51D00FD81E
:104CA000112C40D005D8102CCFD10093D1F8B840AA
:104CB000DCE7122C18D0132CC7D1D1F8C8401AE069
:104CC0001D2C04D00CD8182C3FD01B2CBDD1009328
:104CD000D1F8D4803346224639462846C0472DE0D5
:104CE0001E2C36D0522CB0D1CDE90063D1F8C4606F
:104CF00020E0D1F88440324639462846A44604B024
:104D0000BDE8F0416047D1F88840F4E7D1F8904021
:104D1000F1E7D1F89C40EEE70093D1F8A040A5E779
:104D2000D1F8AC40E7E7D1F8C040E4E7CDE9006353
:104D3000D1F8B060234639462846B04704B0BDE8F4
:104D4000F0810093D1F8CC4090E70093D1F8D040A7
:104D50008CE7D1F8D840CEE700F18C034FF6FF7214
:104D6000B0F8B010914204D11C309842F8D1002024
:104D700070470120704708B503689B6A98474FF653
:104D8000FF73C01A18BF012008BD000038B50A4BD8
:104D90000446186803681B690D469847204604F1CD
:104DA0008C03B0F8B020AA4204D01C309842F8D14D
:104DB000002038BD0120FCE7149C060000F18C03A4
:104DC00090F9C820002A04DB1C309842F8D100205A
:104DD00070470120704730B500231C2404FB0302F8
:104DE000B2F8B0508D4204D00133052BF6D100202B
:104DF00002E092F8C800C00930BD30B500231C2481
:104E000004FB0302B2F8B0508D4202D1B2F8C000E8
:104E100030BD0133052BF3D11720F9E71FB5ADF8ED
:104E20000D200268009302248DF80C400323D2F871
:104E3000F04003AAA04704B010BD1FB5ADF809208B
:104E4000ADF80B30069A0368009204248DF80840F0
:104E500002AAD3F8F0400523A04704B010BD1FB547
:104E6000ADF80B30BDF81830ADF80920ADF80D30B5
:104E7000079A0368009210248DF8084002AAD3F81C
:104E8000F0400723A04704B010BD1FB5ADF80B30AC
:104E9000BDF81830ADF80920ADF80D30079A036859
:104EA000009208248DF8084002AAD3F8F0400723A6
:104EB000A04704B010BD012380F83C3170470000CA
:104EC0001FB5ADF80A309DF818308DF80C30084B3E
:104ED0008DF8092001208DF80800186802AA0368DF
:104EE0000092D3F8944004220523A04704B010BDDB
:104EF000149C060001299CBF00EB8100C0F85421DE
:104F000070471FB5ADF80D20026800930A248DF894
:104F10000C400323D2F8F04003AAA04704B010BD10
:104F200070B500231C2505FB0304B4F8B0608E4265
:104F300004D00133052BF6D1002002E084F8C8200C
:104F4000012070BD70B500231C2505FB03F4061974
:104F5000B6F8B0608E4204D00133052BF5D10020A5
:104F600010E004F1B3010144941D11F8015F04F84D
:104F700001599442F9D11C2202FB0303012093F84A
:104F8000B330237070BD00002DE9F843DFF8648072
:104F900000F1B40400F5A07500264FF6FF774FF03E
:104FA000170934F8041CB9421BD0D8F80000036874
:104FB000D3F898309847A0B904F8020C04F8010C13
:104FC0002060A080C4F806006081206924F8047C79
:104FD0000136A4F80C9010B103685B689847002371
:104FE00023611C34AC42DCD1002ED4BF0020012050
:104FF000BDE8F883149C060010B5054B0360044619
:10500000D0F8400108B14EF05FFC204610BD00BF53
:10501000749A060010B50446FFF7EEFF20464FF4E1
:10502000AE7141F01DF9204610BD00002DE9F0439E
:105030001D4B1D688BB006230F46042100249046AB
:105040002A680097CDE90713C821CDE905410C2155
:10505000CDE90331CDE901840646D2F854902346C8
:10506000302260212846C847D8B909F099FB044688
:1050700009F096FBD6F8AC30001B98422B680DD295
:105080001B6928469847336842465B6B3946304671
:1050900098470028ECD00BB0BDE8F083DB6D2846C4
:1050A00098470020F7E700BF149C0600F8B5036896
:1050B0009B6A044698474FF6FF73984206461ED0F7
:1050C000104B1D682B680146D3F898302846984746
:1050D00009F066FB074609F063FBD4F8AC30C01B4F
:1050E00098420CD22B6828461B69984723683146A2
:1050F0009B6B204698470028EDD10120F8BD002089
:10510000FCE700BF149C06002DE9F3410546089C0E
:10511000A5F848111078C5F84C41013085F84A01CE
:10512000002085F850011948066830680092D0F8D0
:105130009480DBB2042230460F46C04724B309F006
:105140002FFB044609F02CFBD5F8AC30001B98422D
:1051500014D2336830461B6998472B6839469B6BDD
:105160002846984750B195F850010028EAD04FF6EC
:10517000FF73A5F8483102B0BDE8F0814FF6FF7328
:10518000A5F848310020F6E72046F4E7149C060015
:105190002DE9F047994603689B6A044698474FF605
:1051A000FF739842074604D14FF000084046BDE81F
:1051B000F08723680146D3F8E030204698478046C0
:1051C0000028F1D000251C2303FB054ABAF8B06083
:1051D000BE4233D1DAF8C4303BB9102041F026F892
:1051E0000746FFF705FCCAF8C4701C2303FB0545FE
:1051F000D5F8C450002DD7D02846B9F1000F21D1E1
:10520000FFF73AFC23682A46D3F8E47031464B4650
:105210002046B8470028C7D023682A46D3F8E8308C
:105220003146204698470028BED023682A4631469A
:105230002046D3F8EC30BDE8F04718470135052D7E
:10524000C2D1B1E7FFF7F5FB002782465745D9DA0F
:1052500039462846FFF7EFFBFFF742FA49464FF081
:10526000FFF90028A2D00137F0E7F0B5C5B0044639
:105270009DF82851ADF80D200F4612218DF80C1025
:105280002A4619460DF10F004EF064FE23684B9A32
:105290000092D3F8F06003AAEB1C39462046B047D1
:1052A00045B0F0BDF0B5C5B004469DF82851ADF845
:1052B0000D200F4652218DF80C102A4619460DF18B
:1052C0000F004EF047FE236800220092D3F8F060F2
:1052D00003AAEB1C39462046B04745B0F0BD70B577
:1052E00000241C2505FB04F3C618B6F8B0608E42F6
:1052F00004D00134052CF5D1002006E0C933148810
:10530000C452C11893788B70012070BD10B500F1A4
:10531000C90300F2551033F8194C8C4201BF1C88A8
:1053200014809C7894701C338342F4D1002010BD0B
:1053300070B500241C2505FB04F3C618B6F8B06050
:105340008E4204D00134052CF5D1002006E0B433A0
:1053500018440368136083889380012070BDF0B502
:1053600000241C2606FB04F3C518B5F8B0708F4264
:1053700004D00134052CF5D1002009E0BA330344F0
:10538000591E11F8010F20B9C1F1BF004019F8D121
:10539000F0BD196811609B8893800120F8E7000038
:1053A0002DE9F04196B098461C9E044600271C2328
:1053B0004FF6FF7C03FB07F56019B0F8B0E0E64557
:1053C00005D00137052FF5D116B0BDE8F0811723C0
:1053D00080F8B220A0F8C030A0F8B01080F8B380F8
:1053E00005F1B4033168E150E218B388938001A954
:1053F000731E052213F8010F505412F1FF32F9D237
:105400000D4B1868BA3503686719D3F890303A46DF
:10541000984708B96051B880D4F85441002CD3D0D3
:105420003246414603A8FEF78BFA03A8A04703A81B
:10543000FEF7CFF9C8E700BF149C06002DE9F04144
:1054400006460F46904600F1B405002415F8013CCD
:10545000BB420CD10622414628464EF049FD30B9E8
:105460001C2303FB0464B4F8B000BDE8F0810134F0
:10547000052C05F11C05E9D14FF6FF70F5E72DE984
:10548000F04106460F46904600F1B405002415F899
:10549000013CBB420CD10622414628464EF028FD75
:1054A00030B91C2303FB0464D4F8C400BDE8F081C8
:1054B0000134052C05F11C05E9D10020F6E738B5CB
:1054C0004FF6FF7204460B460020B3F8B0509542E9
:1054D00003D093F8B250012D08D00130052803F114
:1054E0001C03F2D12046FEF71BFA0AE01C234343BB
:1054F00003F1B4020B440A44204693F8B310FEF7BC
:105500001FFA204638BD98B5B0F8A820D31DEC4648
:10551000DB08ACEBC30300AF9D460368D3F88C40B7
:105520006B46A047003018BF0120BD4698BD000063
:105530002DE9F04F87B002AF1D46DFF890A0B960AB
:1055400000F18C0391460446FB600026B4F8B0805D
:10555000C7F804D04FF6FF7398452BD0B4F8C0308D
:10556000DA1D6946D208A1EBC202033B95469BB205
:10557000ADB29D424FF01B0228BF1D468DF808209A
:105580003A89ADF8092049462A460DF10B004EF044
:10559000E1FCDAF800000DF1080B0268CDF800B06C
:1055A000EB1CD2F894B0DBB204224146D847D7F8BE
:1055B00004D00136FB681C349C42C7D1002ED4BFF6
:1055C000002001201437BD46BDE8F08F149C060072
:1055D0002DE9F04F87B002AFC7E900211E4600F564
:1055E000A073054600F1B404BB604FF0000934F825
:1055F00004ACC7F80CD04FF6FF739A4542D0A3898C
:10560000DA1D6946D208A1EBC202033B95469BB264
:10561000B6B29E424FF01D0228BF1E468DF80820EC
:10562000BA88ADF80920396832460DF10B004EF00A
:1056300091FC002385F83C31194BD3F800800DF123
:10564000080BD8F80020CDF800B0F31CD2F894B0C5
:10565000DBB2042251464046D84795F83C316BB93D
:10566000D8F8003040461B6998472B6814F8011C95
:105670005B6B2246284698470028EED1D7F80CD01D
:1056800009F10109BB681C34A342B0D1B9F1000F84
:10569000D4BF002001201437BD46BDE8F08F00BF05
:1056A000149C06002DE9F04F89B002AF042BFA607C
:1056B0003A6CC7F808D0C7E9041014880AD0036808
:1056C00004220092D3F8DC502346A8471C37BD467D
:1056D000BDE8F08FFB6807336A46DB08A2EBC30323
:1056E0009D460DF1080805238DF80830002388F841
:1056F0000130484B013CD3F800A0A4B20225DAF8EF
:1057000000305046DB699847844258D23B6C5B8836
:10571000A34254D9DAF8003021461B6A5046984714
:1057200003689B688346984742F603030134984216
:10573000A4B255D15846FEF7E3FA231A594259410B
:10574000DBF8003079609B685846984779680246D4
:1057500011B9B0F5245F45D15846C7E90012FEF7EC
:105760003BFAD7E900120228064614BF02230123A0
:1057700098F8010008B988F8013098F801009842BB
:105780001DD105F102091FFA89F928F8054008EB37
:10579000090311B9B2F5245F27D158467B60FEF7A3
:1057A00018FA7B680146324618464EF0D3FB09EBE7
:1057B0000605ADB20236FB682E44B3429FDA022DD5
:1057C0001CD17A693B6C12681B880A210091D2F8BF
:1057D000DC40D7E904100422A047D7F808D075E7C9
:1057E0000021ADE702260123C2E7DBF8003058466E
:1057F0009B689847043528F80900DAE7064B1868D3
:105800000368CDF80080D3F894403969EBB20422E4
:10581000A047E2E7B49B0600149C06002DE9F04F78
:1058200089B002AF052B3E6CC7F808D08346C7E9A4
:10583000032134880BD8036804220092D3F8DC508B
:1058400006222346A8471C37BD46BDE8F08FFA68FC
:1058500007326946D208A1EBC202954607228DF8AD
:105860000820B288B2F5205F0DF1080A0DD0DBF8F0
:10587000002033880A210091D2F8DC4039690622E1
:105880005846A047D7F808D0DDE7063B9BB27B61BE
:10589000274B013CD3F80090B31DA4B201257B60D7
:1058A000D9F800304846DB699847844232D2738881
:1058B000A3422FD9D9F8003021461B6A48469847A1
:1058C00003689B6880469847B38883421BD1404653
:1058D000FEF782F97B69984215D14046FEF779F9C7
:1058E0007A6979684EF004FB68B94046FEF747FED6
:1058F0002AF805004046FEF744FEAB1C9BB2043577
:105900002AF80300ADB2FA68EB1C9A4202DD0134BA
:10591000A4B2C5E7012DAAD0064B18680368CDF8DC
:1059200000A0D3F894403969EBB20422A047A9E75C
:10593000B49B0600149C06002DE9F04F89B002AF1D
:10594000062BBA603A6CC7F80CD081468B46158896
:1059500004D19388A3F52053012B0FD9D9F8003037
:1059600010220092D3F8DC402B4659464846A04707
:10597000D7F80CD01C37BD46BDE8F08FBB680733A5
:105980006A46DB08A2EBC3039D4602AE11238DF8E5
:10599000083000237370364B013DD3F800A0ADB240
:1059A0000224DAF800305046DB699847854247D236
:1059B0003B6C5B88AB4243D9DAF8003029461B6A5E
:1059C000504698473B6C02689B887B619268804692
:1059D00090477B69834230D14046FEF7FDF80228AC
:1059E000034614BF142306233B61737878610BB917
:1059F0003B7C737073783A69934221D14046FEF73D
:105A0000BEFD30534046FEF7BCFDA31C9BB20434E0
:105A1000A4B2F052331940467B60FEF7DAF87B6897
:105A20007A69014618464EF095FA7B69BA681C44BB
:105A30003B69A4B223449A4202DB0135ADB2B0E720
:105A4000022C09D13B6CD9F800201B880A21009157
:105A5000D2F8DC40102288E7064B186803680096ED
:105A6000D3F894500422E3B25946A84780E700BF18
:105A7000B49B0600149C06002DE9F04F89B002AFDC
:105A800091463A6CC7F808D0062BC7E90310158871
:105A90000BD0036804220092D3F8DC4008222B4686
:105AA000A0471C37BD46BDE8F08F09F107036A46E1
:105AB000DB08A2EBC3039D460DF1080809238DF80E
:105AC0000830002388F801306D4B1B687B613B6C0C
:105AD000013D0433ADB202247B607B6978691B68A9
