:020000021000EC
:100000000000042025F601005DF6010071D9010011
:1000100061F601007DD9010083D9010000000000D4
:10002000000000000000000000000000F57E01005C
:1000300069F60100000000008F7F01009F7F010032
:10004000713B0200D1A301006FF601006FF60100C1
:100050006FF601006FF601006FF601006FF6010008
:100060006FF60100910201006FF601006FF60100CA
:100070006FF60100953F02006FF60100E9A3010051
:100080006FF601006FF601006FF601006FF60100D8
:100090006FF601006FF601006FF601006FF60100C8
:1000A0006FF601006FF60100B1020100D1020100FC
:1000B0006FF601006FF60100000000000000000074
:1000C0006FF601006FF601006FF601006FF6010098
:1000D0006FF601006FF601006FF601006FF6010088
:1000E0006FF601006FF601006FF6010000000000DE
:1000F000000000006FF60100000000006FF6010034
:1001000010B5054C237833B9044B13B10448AFF351
:1001100000800123237010BD50100020000000005B
:100120000465030008B5034B1BB103490348AFF353
:10013000008008BD0000000054100020046503008A
:10014000154B002B08BF134B9D46A3F5803A0021A9
:100150008B460F461348144A121A1CF0C9FA0F4B6B
:10016000002B00D098470E4B002B00D09847002062
:10017000002104000D000D48002802D00C480EF0AC
:100180009FF91BF0B9FD2000290009F063FF0EF074
:1001900094F900BF000008000000042000000000E7
:1001A000B19F01005010002098BA0020C1E4010066
:1001B000000000000278024B002143F82210704733
:1001C0008C100020014800F09BBC00BFA010002054
:1001D000014800F095BC00BFF010002008B54FF0BA
:1001E0008041054800F0A6FC4FF080410348BDE87F
:1001F000084000F09FBC00BFA0100020F0100020BD
:1002000090F90930002B82B00DDB5A09012103F06F
:100210001F0301FA03F320320C4941F82230BFF3E7
:100220004F8FBFF36F8F4268017A012353604FF401
:1002300080338B40C2F8083350339B009BB20021BF
:10024000D150D3580193019B02B0704700E100E008
:1002500010B5047A42684FF480310123A140136045
:10026000D360C2F8041390F90920002A06DB510973
:1002700002F01F029340054A42F82130037A426897
:10028000C16903F5A87342F8231010BD00E100E036
:1002900038B5064D6C683CB12046FFF7B1FFE36806
:1002A00098476868FFF7D4FF38BD00BF8C10002066
:1002B00038B5064DEC683CB12046FFF7A1FFE36876
:1002C0009847E868FFF7C4FF38BD00BF8C100020D6
:1002D00038B5064D2C693CB12046FFF791FFE36825
:1002E00098472869FFF7B4FF38BD00BF8C10002085
:1002F0007047F8B5002304460360C0E90233C0E943
:100300000433C0E90633C0E90833082343602020E2
:100310000EF0DCFA65682060013D6D0800EB850792
:1003200006464FF400700EF0D1FA00F5007346F85F
:100330002500E060C4E90703A060A0616761236154
:1003400067622046F8BD036870B5044663B1436A2E
:1003500045691E1DAE4204D955F8040B0EF0CCFAC7
:10036000F8E720680EF0C8FA204670BD10B50446C4
:10037000FFF7E9FF204610BD10B504469030FFF7A7
:10038000F5FF04F15000FFF7F1FF04F11000FFF753
:10039000EDFF204610BD036870B5044663B1436AA3
:1003A00045691E1DAE4204D955F8040B0EF0A4FA9F
:1003B000F8E720680EF0A0FA204670BD10B504469C
:1003C0007830FFF7E8FF204610BD00002DE9F04728
:1003D000514C524E524DDFF88491204602F08CFC75
:1003E0002046504C504932460EF065F8204601F048
:1003F00011F920464D4C4E4932460EF05CF804226D
:100400000521204600F030FB20464A4C3246294662
:100410000EF051F807220621204600F025FB204669
:10042000454C324629464FF07E5A00254FF064086D
:100430000EF041F80027C4F800A06560C4F80890E9
:10044000C4F80C8004F11000FFF753FFA563E763C5
:10045000C4F840A06564C4F84890C4F84C8004F126
:100460005000FFF746FFA567E767C4F880A0C4F80F
:100470008450C4F88890C4F88C8004F19000FFF791
:1004800038FF3246C4F8B850C4F8BC702B49C4F8E1
:10049000C0502046C4F8C450C4F8C850C4F8CC506A
:1004A000C4F8D050C4F8D450C4F8D850C4F8DC50C4
:1004B000C4F8E0500DF0FFFF2148224907720422E2
:1004C000027403231A22037042721F4B1F4A4360B7
:1004D000D060D3F80825C76042F00302C3F80825AE
:1004E000D3F8042522F00302C3F80425D3F810251D
:1004F00022F00F0242F00402C3F81025144B4361AE
:1005000032460DF0D8FF4FF0FF33124A1248202137
:10051000BDE8F04702F0A4BC181300200002002040
:100520008D0C0100401200200F2D0100A0100020B2
:10053000BD030100F01000205411002079030100D8
:100540006C100020B501010000A001408C100020BB
:1005500000247449B71DC10440110020CDCCCC3D0E
:1005600010B52DED028B614886B04FF4E13105F0F6
:10057000F3FE5E4805F008FE38B15D495B4807F0C0
:100580001DFA4FF4FA6007F075FB5A485A4C02F016
:100590003BFC584802F0BCFB04225849202005F0DF
:1005A00085FC5749514807F009FA64220121554852
:1005B00000F072FD534800F073FC6421514800F0D4
:1005C000C1FC02214F4800F0A7FC4E4800F02BFC74
:1005D00001214C4800F08EFB4B4A07CA03AB83E86D
:1005E00007001946474801F033FB48493F4807F0E8
:1005F000E5F902224649032005F058FC022245494C
:10060000032005F053FCD4ED057A434BE360B2EED2
:10061000048AC7EE886A2346B0EE007AF4EEC76A11
:10062000F1EE10FA2FD53D49304807F0B0F93C49BA
:100630002E4807F0A8F93B492C4807F0A8F9D4ED5B
:10064000057AC7EE887A17EE900A16F001F90223B0
:10065000009302460B46254807F0AAFA3249234880
:1006600007F0A2F9C82007F005FB07F0F7FA2F4CB6
:10067000206007F0F3FA2368C01A2D4B186006B00B
:10068000BDEC028B10BDFCEEE77A616884ED067A62
:10069000FBEEEF7A4FF48030FCEEE77A0122C4EDF6
:1006A000077A247A0A60A040CA60C1F8040393F96B
:1006B0000910002906DB480901F01F018A401D4985
:1006C00041F820205A68D9691B7A084803F5A873B5
:1006D00042F82310184907F056F907F0ADFA0A223C
:1006E0000146024807F0A0F9BCE700BFB01900209E
:1006F000DC0C0300181300206C10002041070100DF
:10070000EA0C030040120020C40C0300F90C0300A3
:10071000C5010100D1010100DD010100D40C03007D
:100720000B0D0300D20C0300520D0300E813002050
:100730001013002000E100E0820D03000000000023
:100740002DE9F04190B000AF07F11002391D484883
:1007500002F0F4FA002800F0828007F07FFA454B9F
:10076000454D1B68DFF82C81444E454CC01A07EEFE
:10077000900AF8EE677A286017EE900A16F068F88B
:1007800039A3D3E9002316F0BBF816F089FB07F173
:1007900010033A1D01463B4800F0ECFF07F11C0135
:1007A000384800F0ADFA07F12802391D354800F04D
:1007B00026FD07F1340207F11001324800F017FB63
:1007C00096ED127AD8ED127A3B6BFA6977EE877A5A
:1007D000B6EE007A67EE877A204617EE901A00F0A0
:1007E0004AFAD4F8DC10404600F0D2F9D4F8E01010
:1007F000304600F0CDF9244B6C468EB01B88ADF826
:1008000000302B68CDF802303B1D03CBCDF806003D
:100810001868CDF80A1007F11003CDF80E0003CBCD
:10082000CDF812001868CDF816100023CDF81E3050
:1008300007F11C03CDF81A0003CBCDF8220018688D
:10084000CDF82610CDF82A00694632220F4802F072
:1008500011FB694632220E4805F01EFCA5464037C2
:10086000BD46BDE8F08100BF8DEDB5A0F7C6B03E36
:1008700018130020E813002010130020F0100020AF
:100880005411002040120020D00C03004011002021
:10089000B0190020A01000202DE9F04104462DEDF4
:1008A000048B09EE102A08EE101A07F0C5F9E36B65
:1008B0009FED6B7A226BE063C31A07EE903AF8EE75
:1008C000677AA36AC7EE878A043A934238EE498A68
:1008D00028EE889A31D00BB183ED009A0433A362DD
:1008E000626A636B206AA1699B1A9B105A1ED4E945
:1008F0000A355B1B9B1003EBC213421A03EBA203E6
:10090000E2689A4205D20438814200F082800431C4
:10091000A161D4E90812A369A06ADFED527A83428B
:1009200000F08480B3EC017A994277EE877AF6D1B1
:100930005368043203F50071F1E7626B2069636963
:10094000111AA3EBA101012927D8616A571ABF1018
:1009500001377D1CB3EB450F39D95D1B6D0800EBEA
:100960008505131DA942A3EB010229D98B4202D0B0
:1009700028461BF059FE2B68E36103F500732362E0
:1009800007F18043013B05EB830255F82330E36216
:1009900003F500736562626323634FF40070656B57
:1009A0000DF094FF6860A36A0BB183ED009A636B4E
:1009B0001A1D5B68626303F50072E36222638EE7CF
:1009C0008B424FEA8700D6D0801A2844D1E7002B0B
:1009D00014BF1E46012602331E44B6F1804F01D3D8
:1009E00014F0AEFCB0000DF071FF626B616A751B14
:1009F00004326D088A42804600EB850503D0521A06
:100A000028461BF011FE20690DF076FFC4E904862C
:100A1000B1E7E0690DF070FF636A1A1D5B686262FE
:100A200003F50072E3612262A36172E794ED017A3B
:100A300067EE877A94ED007AE7EE087A94ED0E7A05
:100A400084ED0E8A38EE477AC7EE286ABDEC048B37
:100A500094ED027AE7EE267A17EE900ABDE8F0816F
:100A600000007A44000000002DE9F84F4FF07E535B
:100A70000360224B83600025642304460027C0E9FD
:100A80000335082343614760C0E90655C0E90855AE
:100A9000C0E90A55C0E90C552020904689460DF062
:100AA00015FF66692061013E760800EB860B8246E1
:100AB0004FF400700DF00AFF00F50073C4E90B035A
:100AC0004AF82600E0612362A061A062C4F824B065
:100AD0005FFA89F0C4F834B0A763C4E90F59C4F8C9
:100AE0004480A764E764012107F072F95FFA88F097
:100AF000012107F06DF92046BDE8F88FCDCCCC3D43
:100B000038B5044690F8400007F0CEF905460020BD
:100B100007F0CAF9F7EE007A94ED137A1DB920B9FF
:100B200077EE677A03E00028FAD177EE277AC4EDF2
:100B3000137A38BD07EE101A72B6D0ED137A67EE4D
:100B4000877A0023C0ED127AC36462B6704707EE5D
:100B5000901ABDEEE77A38B517EE104A002CB8BFF0
:100B60006442FF2CF5EEC07A0546A8BFFF24F1EEE3
:100B700010FA90F84400ACBF0121002107F06CF995
:100B8000214695F84000BDE8384007F0A7B80000BE
:100B900010B5826C0446FFF77FFE9FED0E7A07EEDC
:100BA000900AF4EEC77AF1EE10FA0FDC9FED0A7AA4
:100BB000F4EE477AF1EE10FA48BFF0EE477A20469D
:100BC00017EE901ABDE81040FFF7C1BFF0EE477A6C
:100BD000F5E700BF00007F4300007FC310B5D0F8E9
:100BE000C420D0F8D0100446FFF756FE94ED377AB3
:100BF000D4ED387A06EE900A37EE267A77EEA67AAA
:100C000084ED377AC4ED387A10BD10B5D0F8C8201D
:100C1000D0F8D41004464030FFF73EFEC4F8D000B0
:100C20002046BDE81040FFF7D9BF10B5D0F8CC2062
:100C3000D0F8D81004468030FFF72EFE94ED377AB6
:100C4000D4ED387A06EE900A37EE267A77EEE67A19
:100C500084ED377AC4ED387A10BD10B50023044610
:100C6000C0F8DC30C0F8E030FFF7CFFF2046BDE829
:100C70001040FFF7DABF10B4C0F8C810C0F8C420A5
:100C8000C0F8CC305DF8044BFFF7E7BF10B5044661
:100C90001030FFF758FB204610BD4B6803604360DF
:100CA000836070472DE9F04100F58478064600F135
:100CB00084054746BD4205D02C3F07F1140014F0CF
:100CC000C1FAF7E7A8EB0505094CAD086C4324F021
:100CD00040446FF02B0303FB0484A64205D02C3C58
:100CE00004F1140014F0AEFAF7E73046BDE8F081E5
:100CF000A38B2E3A80F865107047000000000000BA
:100D00001FB50C4601A901F00FF8019815F0A0FDE0
:100D10000FA3D3E9002315F0F3FD16F0C1F820600E
:100D2000029815F095FD0AA3D3E9002315F0E8FD1C
:100D300016F0B6F86060039815F08AFD04A3D3E9B5
:100D4000002315F0DDFD16F0ABF8A06004B010BD77
:100D5000F8C1631ADCA54C4090F8C03010B50446C9
:100D60000BB9012010BDD1ED017AD1ED006A91EDF2
:100D7000027A67EEA77AE6EEA67AE7EE077A17EE32
:100D8000900A17F087FDD4ED187A07EE100A77EE77
:100D9000677A94ED317A67EE877AB0EE007AF4EEF6
:100DA000C77AF1EE10FADCDDB8EE007AF4EEC77A1D
:100DB000F1EE10FA54BF01200020D3E790F8643020
:100DC000D1ED007A33B1C2ED007A4B6853608B6885
:100DD00093607047F1EE677AC2ED007A4B6853601A
:100DE000D1ED027AF1EE677AC2ED027A7047FFF731
:100DF000E5BF00224260012280F82020002201602D
:100E000082604261C26082610261C26170470023F8
:100E100083604361C36083610361C36100234360F6
:100E200080F8203070472430FFF7F1BF0023836043
:100E30004361C36083610361C36100234360012395
:100E400080F8203070472DE9F04F85B004AB0025C5
:100E5000044643F8045D02AA01A90195029501F038
:100E60006DFBD4E92298D4F89C30D4E920BA08F17B
:100E700004061F1DB74204D956F8040B0DF03CFDC3
:100E8000F8E7C4E924BAC4E92698C4F8A450C4F821
:100E9000A85004F12400FFF7C9FF05B0BDE8F08FAA
:100EA0002DE9F0432DED028B0446C7B0FFF7CBFFD1
:100EB00094F8741004A801F0D7FD0FF25409D9E991
:100EC000008901AE04F1480537465434B0EE088A73
:100ED00004A9384601F067FDF6EC017A67EE887ADE
:100EE00017EE900A15F0B4FC42464B4615F008FD8B
:100EF00015F0D6FF45F8040BA542E9D104A8FFF789
:100F0000D1FE47B0BDEC028BBDE8F083AFF30080AB
:100F1000F8C1631ADCA54C4038B50C460546FFF70E
:100F200092FF631E632B02D8C5F8A04038BD034969
:100F30000348BDE8384006F041BD00BF400E030045
:100F4000B019002038B504460D46FFF77CFF204657
:100F500040F8245FBDE83840FFF768BF000000009C
:100F60002DE9F0432DED068B0446CDB00D46FFF77D
:100F70006AFF94F874100AA801F076FD0AA901A886
:100F800001F018FD0AA904A801F025FD0AA907A887
:100F90009DED04AADDED05AA01F027FD0198DDED28
:100FA000079A9DED088A15F053FC064628460F4621
:100FB00015F03CFC8046894617F00CFC02460B46B7
:100FC0003046394615F0C6FD15F06AFF09EE100AE5
:100FD000029815F03DFC06460F464046494617F07C
:100FE000F9FB28EE088A02460B463046394615F0D2
:100FF000B1FDAAEEAA8A15F053FF08EE900A18EE8A
:10100000100A17F047FC69EEA99A15F021FC20A3FD
:10101000D3E9002315F09EFDEAEE0A9A15F040FF91
:1010200008EE100A19EE900A17F034FC15F010FCC7
:1010300017A3D3E9002315F08DFD15F031FF79EEEC
:10104000086A07EE900A89EE267A204678216943DD
:1010500078EEA76A84ED157A88EEA67A28EE088ADB
:1010600067EEA77AA9EE098AE8EEA87A84ED167AE7
:10107000C4ED2F7A84ED2C8A40F8241FFFF7D6FEAA
:101080000AA8FFF70FFE4DB0BDEC068BBDE8F0835C
:1010900014AE47E17A94234070B50446C8B00D46BB
:1010A0001646FFF7D0FE294684F8745006A801F0D2
:1010B000DBFC03AD06A9684601F083FC06A92846BF
:1010C00001F093FCD4ED317A6B462A46F3EC016AC9
:1010D000B2EC017AE6EEA67A9D42E7EE077AF5D108
:1010E000C4ED317A17EE900A17F0D4FB07EE900AA0
:1010F000B7EE007AC7EE277A31462046C4ED317A42
:10110000FFF72EFF06A8FFF7CDFD48B070BD90F8A1
:101110002020034622BBD0ED057AF5EE407AF1EEB1
:1011200010FA1DD1D0E90002824235DA91ED007A41
:10113000D3ED027A77EE877A0132C3ED027A91ED30
:10114000017AD3ED037A77EE877AC3ED037A91EDD6
:10115000027AD3ED047A5A6077EE877AC3ED047A87
:1011600093F82000B8B193ED057AD1ED007A77EECF
:10117000C77AC1ED007A93ED067AD1ED017A77EE68
:10118000C77AC1ED017A93ED077AD1ED027A77EE55
:10119000C77AC1ED027A7047E2D107EE902AD3ED0B
:1011A000026AF8EEE77A012286EEA77A83F8202019
:1011B000D3ED036A83ED057A86EEA77AD3ED046A50
:1011C00083ED067A86EEA77A83ED077AC8E710B535
:1011D00090F8202001F10C03143000246AB1D1ED05
:1011E000007A90ED007A77EEC77AC1ED007A04318B
:1011F000994200F10400F1D110BD0C60F7E738B559
:10120000FFF7DCFD90F865302BB111462430BDE8C6
:101210003840FFF7DCBF38BDF8B504462DED048B30
:1012200000680D4617F088F809EE100A15F010FB5B
:101230000022314B17F030F9064620680F4617F0B0
:101240007BF8DFED2E7A95ED008A69EE277AB7EE0E
:10125000007AA7EE897A08EE900A17EE100A15F0C8
:10126000F7FA21A3D3E9002304460D463046394658
:1012700015F046FB02460B462046294615F08AF932
:101280001BA3D3E9002315F03BFB9FED1D7ADFED97
:101290001D7A28EE877A0446E7EE287A0D4667EE37
:1012A000887A17EE900A15F0D3FA02460B462046CC
:1012B000294615F06FF9DFED147A68EE277A0446B7
:1012C00067EE887A0D4617EE900A15F0C1FA0246CD
:1012D0000B462046294615F05DF915F0E1FDBDEC01
:1012E000048BF8BDAFF30080000000E0F966F83E23
:1012F00000000000878F234000001040CFFBAC3B74
:10130000DA1A973121364FB6BBF84A2B000000009D
:10131000D3ED007A91ED007A67EEA77A2DE9F843D4
:10132000E7EE077A05461E462DED028B17EE900A72
:1013300017680C4617F0AEFA15F08AFA38A3D3E90D
:1013400000238046894615F04DFD18B10FF2D009F3
:10135000D9E90089384615F07BFA42464B4617F02A
:1013600039F815F09DFDD6ED007A2468F5EEC07AC7
:10137000F1EE10FA804627EEA78A20462EDD15F002
:1013800067FA29A3D3E9002306460F4615F0B8FAF9
:1013900032463B4615F0B4FA064618EE100A0F46E0
:1013A00015F056FA02460B463046394615F0F2F86B
:1013B00017F010FA06460F4684F0004015F048FA80
:1013C00032463B4617F006F815F06AFDBDEC028B7D
:1013D0006860C5F800802846BDE8F88315F038FA43
:1013E00011A3D3E9002306460F4615F089FA3246C9
:1013F0003B4615F085FA064618EE100A0F4615F022
:1014000027FA02460B463046394615F0C3F817F066
:10141000E1F9064601F10047CEE700BFAFF30080D7
:101420003A8C30E28E79453E8DEDB5A0F7C6B03EE0
:10143000D0B515F00DFA1EA3D3E9002315F0AAF8D4
:101440001DA3D3E9002316F0C7FF19A3D3E9002396
:1014500015F09EF815F024FD044615F0F9F914A3D3
:10146000D3E9002306460F4615F0DAFC48B112A373
:10147000D3E900233046394615F08AF815F010FDFF
:101480000446204615F0E4F90DA3D3E900230646EF
:101490000F4615F0B1FC48B107A3D3E9002330464D
:1014A000394615F077F815F0FBFC04462046D0BD10
:1014B000182D4454FB210940182D4454FB21194098
:1014C000182D4454FB2109C0012908B506D9054B44
:1014D000054A06484FF4CD7119F090FC00EB8100ED
:1014E00008BD00BF640E0300C1130300810E03009A
:1014F0004269436A9B1A9B105A1ED0E906315B1A57
:10150000DB1003EB821302698068101A03EBE00022
:101510007047000038B583680468032B0FD1C36897
:1015200042681A4400250123022A4260C0E902539E
:1015300005DD0F4B0F4A49210F4819F05FFC836806
:10154000022B03DD0D4B0B4A4C21F5E7C268012A43
:1015500003D00B4B074A4D21EEE745685A1C03EBBD
:1015600043032B4404EB830382600A681A6038BD8E
:10157000E00E030003150300FF0F03002F0F03000D
:10158000860F0300F8B5002304460360C0E9023368
:10159000C0E90433C0E90633C0E9083308234360D7
:1015A00020200DF093F965682060013D6D0800EB87
:1015B000850706464FF400700DF088F900F50073BA
:1015C00046F82500E060C4E90703A060A0616761F8
:1015D000236167622046F8BD08B5030705D0034BB9
:1015E000034A04486D2119F009FC08BD7612030076
:1015F000B51603006513030010B50446FFF7ECFFB2
:101600004FF07E53002223606260A260E3602046B8
:1016100010BD000070B504468AB000F073FB42F6BE
:10162000E06104F12400FFF7E4FB4FF07E536365B3
:10163000A365184BE3650025174B2366012601A916
:1016400004F16800A564E564256584F8646084F8A5
:1016500065600295FFF721FB04F17800FFF792FF28
:1016600001A9C4F8A060C4F8A450C4F8A85004F1BB
:10167000B000FFF7C1FF84F8C060C4F8C45001A8EF
:1016800000F040FB01A9204600F0B6FC20460AB05D
:1016900070BD00BF000080BFCBA11C41D0E900237A
:1016A0009869D3ED046A126889000844D0ED007A85
:1016B000D868084490ED007AD6EE877A0A4493ED14
:1016C0000A7A67EE877AC2ED007A704708B5036838
:1016D00001EB4102022903EB820305D90D4B0E4AAF
:1016E0000E487A2119F08AFB426893ED027AD2ED16
:1016F000027AD2ED016A67EE877A93ED017AE6EE1F
:10170000877AD2ED006A93ED007AE6EE877A17EEDB
:10171000900A08BDCF110300C71503007A1103001A
:101720000368406810B51C6804EB8104FFF7CEFF26
:10173000206010BD10B54B680C688AB0CDE9063446
:101740000893032309930AAB049043F8280D002162
:10175000019301A805ABCDE902320594FFF7E0FF44
:1017600001A80121FFF7DCFF022101A8FFF7D8FF44
:101770000AB010BD2DE9F04F2DED048BB1B01D4620
:1017800008EE901A114602AA0446FFF717FB2946F5
:1017900005AAFFF713FB02A92430FFF7B8FC0025C8
:1017A0000DF19008002800F0BA81D4ED177AF5EE1B
:1017B000C07AF1EE10FAC0F2A681259508AD414637
:1017C0002846FFF76AFADDED027A94ED127AF0EE20
:1017D000E76AF4EEC76AF1EE10FAC8BFCDED087AF9
:1017E000DDED037A94ED137AF0EEE76AF4EEC76A62
:1017F000F1EE10FAC8BFCDED097ADDED047AD4ED33
:10180000146AB0EEE77AF4EEC76A0FAFF1EE10FAA1
:101810002146384648BFCDED0A7A00F079FA94EDBA
:10182000178AC24B289301AE04F1680332462BA8F5
:101830000BA938EEC88A0C932A901E9727950B9710
:10184000FFF778FF00210BA88DED2E8A0195CDE9D9
:101850000B68CDF834D00E95FFF720FF01210BA8BF
:10186000FFF71CFF02210BA8FFF718FF29462046AF
:1018700000F05AFF07AB06AA05A93846FFF748FD56
:10188000D4F89820D4F89030083A934204F17809BB
:1018900000F0A2801BB197E8030083E8030008333F
:1018A000C4F89030002604F1A407D4E92403984238
:1018B00002BFD4F89C3053F8040C00F50070314698
:1018C0000838FFF701FE314605463846FFF7FCFDB4
:1018D00095ED007AD0ED007A77EE877AC0ED007A48
:1018E000002E00F0FB804846FFF702FED4F8A0303F
:1018F00098422CD9D4F8805000212846FFF7E4FD07
:10190000002182463846FFF7DFFD9AED007AD0EDE0
:10191000007A77EEC77A3146C0ED007A2846FFF7A5
:10192000D3FD314682463846FFF7CEFD9AED007A68
:10193000D0ED007AD4F8883077EEC77A083B9D4224
:10194000C0ED007A00F0CC800835C4F880504146E4
:10195000204600F0E9F905A92046FFF7FDF9A0B3FC
:101960004846FFF7C5FD07EE900A94ED2A7AD4EDBC
:10197000296A9DED248A94ED159AF8EE677AC7EEF0
:10198000279A86EEA77A78EE477A17EE900AFFF745
:101990004FFD07EE900AA9EE678A94ED169A8DED39
:1019A000188A9DED258A78EE697A17EE900AFFF77E
:1019B0003FFD07EE900AA9EE678A26AB19AA18A97F
:1019C0008DED198A204600F0B9FDC4ED178A31B0BB
:1019D000BDEC048BBDE8F08FD4F89C20A06FE36FC2
:1019E000111AA3EBA101012932D8D4F88C10A2EB73
:1019F000010A4FEAAA0A0AF1010A0AF10105B3EB4A
:101A0000450F47D95D1B6D0800EB8505131DA942E5
:101A1000A3EB010237D98B4202D028461AF004FE0C
:101A20002B68C4F8843003F50073C4F888300AF1D9
:101A30008043013B05EB830255F82330C4F8943012
:101A400003F50073C4F88C50C4F89C20C4F8983097
:101A50004FF40070D4F89C500CF038FF6860D4F854
:101A600090301BB197E8030083E80300D4F89C3062
:101A70001A1D5B68C4F89C2003F50072C4F894300A
:101A8000C4F898200CE78B424FEA8A00C8D0801A2D
:101A90002844C3E7002B14BF1E46012602331E4410
:101AA000B6F1804F01D313F04BFCB0000CF00EFFE9
:101AB000D4F89C20D4F88C10751B04326D088A422F
:101AC000834600EB850503D0521A28461AF0ACFD78
:101AD000A06F0CF011FFC4E91EB6A1E70126E4E6F1
:101AE000D4F884000CF008FFD4F88C301A1D5B6821
:101AF000C4F88C2003F50072C4F88430C4F8882040
:101B0000C4F8803023E707AB06AA05A94046FFF7D3
:101B1000FFFB30AB25AA43F8605D414652E70F95C5
:101B200018952495434618AA0FA94BE735FA8E3C21
:101B30002DE9F0432DED048B804697B008461446FE
:101B40000D4616F053FB0090284616F0F5FB09EE03
:101B5000900A0190204616F049FB08EE100A029008
:101B6000204616F0E9FB28EE698A00220123CDE920
:101B70000A2308EE900A16A90C9318EE103A0DF1FC
:101B8000240941F84C3DB1EE689A0DAF48460997DB
:101B90008DED0D9AFFF7BEFCDDED007ADDED026AFA
:101BA00066EEA76A16A916EE903A41F8483DFFF78F
:101BB000B1FC02A9FFF7AEFC9DED017A27EE097A90
:101BC00016A917EE103A41F8443DFFF7A3FCDDEDEE
:101BD000007A67EEA87A16AD17EE903A45F8403DC8
:101BE00016AC29460026FFF795FC44F83C6D2146CB
:101BF000FFF790FC6946FFF78DFC01A9FFF78AFC0F
:101C00000A9B0C9A1344032B02D10B9B032B05D088
:101C10000B4B0C4A0C487C2119F0F0F80B4B099641
:101C200040462A4621460A960B93CDE90779FFF7ED
:101C300081FD404617B0BDEC048BBDE8F08300BFCA
:101C4000A20D03009E140300FF0F03003FED983820
:101C5000F0B50E4685B00446FFF7F5F8306814F08D
:101C6000F7FD15A3D3E9002314F04AFE15F018F987
:101C700004AD45F8100D706814F0EAFD0EA3D3E929
:101C8000002314F03DFE15F00BF906F1080107469C
:101C90002846FFF7C1FA01AD20663A46009928466A
:101CA000FFF746FF95E8070004F1680383E80700A3
:101CB00005B0F0BDAFF30080399D52A246DF913FE1
:101CC0004368C268D3ED067A92ED020A92ED017A7A
:101CD00020EE270AD3ED037AA7EE270A92ED007AC9
:101CE000D3ED007AA7EE270A704700234FF07E520B
:101CF000026043608360C360026143618361C361CA
:101D00000262704713B501A9FFF7EFFF02B010BDE3
:101D100070B50D46064604460FCD0FC40FCD0FC457
:101D20002B682360304670BDD0ED047A90ED037AC5
:101D300067EEA77A70B5E7EE077A044646692DED9F
:101D4000028B17EE900A0D4616F0A4FD01463046B0
:101D500016F09EFD21690646E06816F099FD08EE32
:101D6000100A216AA068B1EE488A16F091FD85ED4F
:101D7000028ABDEC028B80F000402E60686070BD6E
:101D80002DE9F74F0FF2900BDBE900AB24A7D7E961
:101D90000067044600F10C05206814F059FD324636
:101DA0003B4614F0F7FB1CA3D3E9002316F014FB09
:101DB00032463B4614F0ECFB15F072F8019014F03B
:101DC00047FD32463B468046894615F029F848B122
:101DD00052465B464046494614F0DAFB15F060F87F
:101DE00020600BE010A3D3E900234046494615F0DC
:101DF00003F848B9DDED017AC4ED007A0434AC4251
:101E0000CAD103B0BDE8F08F52465B464046494612
:101E100014F0C0FBE2E700BF182D4454FB21194029
:101E2000182D4454FB210940182D4454FB2109C0AE
:101E300008B50346D0E90002D9680A44032A02D152
:101E40009B68032B05D0034B034A04487C2118F000
:101E5000D5FF08BDA20D030041170300FF0F0300CB
:101E600070B500260660D1ED027A8AB00022F1EE4C
:101E7000677A0123CDE907230C4609930AA917EED7
:101E8000903A054641F8243D069006A8FFF742FB2C
:101E9000211DFFF73FFB04F10801FFF73BFB0AA9F7
:101EA00041F8206DFFF736FBD4ED007AF1EE677A4A
:101EB0000AA917EE903A41F81C3DFFF72BFBD4ED31
:101EC000017AF1EE677A17EE903A0AA941F8183DC7
:101ED000FFF720FB2146FFF71DFB0AA941F8146D0F
:101EE000FFF718FB06A8FFF7A3FF28460AB070BD4E
:101EF00010B5D0E90034626894ED027A1B6889005D
:101F00000A44D2ED006AC6EE877A0B44C3ED007A2C
:101F100010BD10B58AB00B6803938B6804930AABAD
:101F2000044643F8240D0990069306A802AB00214D
:101F30000793CDF820D0FFF7DBFF06A80121FFF7BC
:101F4000D7FF06A80221FFF7D3FF06A80321FFF75A
:101F5000CFFF06A80421FFF7CBFF06A80521FFF756
:101F6000C7FF06A80621FFF7C3FF06A80721FFF752
:101F7000BFFF06A80821FFF7BBFF20460AB010BD2F
:101F800043681B6889000B441A6803681B6819447E
:101F90000A6070477FB506ABCDE9042043F8140D05
:101FA000009102A800210293CDF80CD0FFF7E8FFC2
:101FB00002A80121FFF7E4FF02A80221FFF7E0FFDA
:101FC00002A80321FFF7DCFF02A80421FFF7D8FFD6
:101FD00002A80521FFF7D4FF02A80621FFF7D0FFD2
:101FE00002A80721FFF7CCFF08210DEB0100FFF746
:101FF000C7FF07B05DF804FB884213B5044602D062
:1020000001AAFFF7C7FF204602B010BD10B5046853
:10201000406824689FED0C7AD0ED026A02EB42031F
:1020200091420B4402694FEA83031C44F7EE007AA5
:10203000134418BFF0EE477A93ED007AE6EE877A04
:10204000C4ED007A10BD00BF00000000002210B5F2
:1020500011460446FFF7DAFF204600220121FFF770
:10206000D5FF204600220221FFF7D0FF20460122A3
:102070000021FFF7CBFF012211462046FFF7C6FFE4
:10208000204601220221FFF7C1FF20460222002143
:10209000FFF7BCFF204602220121FFF7B7FF022213
:1020A00011462046FFF7B2FF10BD000010B501EB4E
:1020B00082040460C0E9021200240121022AC0E95E
:1020C000044105D9034B044A04487A2118F096FECE
:1020D00010BD00BFCF1103003D1903007A110300AA
:1020E00010B502EB420401EB840481600021C0E9D9
:1020F0000312022A4FF003010460416105D9034B2A
:10210000034A04487A2118F079FE10BDCF1103006C
:10211000191A03007A1103002DE9F04117460268ED
:10212000D0F8048007EB470698B0731816680CA81F
:102130000A460CAC414606EB8306FFF7B7FF0FCC0F
:1021400012AD0FC594E803003A4685E80300D8F8BD
:10215000241006A8FFF7C4FF129B029301A8069B58
:102160000493FFF7ADFD86ED000A18B0BDE8F081DD
:1021700010B5002204460121FFF7CEFF20460022C1
:102180000221FFF7C9FF204601220021FFF7C4FF0B
:10219000012211462046FFF7BFFF204601220221FF
:1021A000FFF7BAFF204602220021FFF7B5FF2046C5
:1021B00002220121FFF7B0FF022211462046FFF75D
:1021C000ABFF10BD2DE9F04117460268D0F804803E
:1021D00007EB470698B0731816680CA80A460CACB3
:1021E000D8F8001006EB8306FFF760FF0FCC12ADA6
:1021F0000FC594E803003A4685E80300D8F80410B8
:1022000006A8FFF76DFF129B029301A8069B04939B
:10221000FFF756FD86ED000A18B0BDE8F08100B565
:10222000D1E900238DB0CDE90723CDE909230323AC
:102230000B930CAB002243F8280D039307AB0493D8
:1022400001ABCDE90530114603A8FFF7BBFF03A89A
:1022500000220121FFF7B6FF03A800220221FFF7A9
:10226000B1FF03A801220021FFF7ACFF01221146B4
:1022700003A8FFF7A7FF03A801220221FFF7A2FF8F
:1022800003A802220021FFF79DFF03A802220121DB
:10229000FFF798FF0222114603A8FFF793FF0DB046
:1022A0005DF804FBF0B593B00F4605AC054620463B
:1022B0001646FFF7B4FFBB681093CDE90E34032335
:1022C000119312AB002243F8485D114601A8CDE9F5
:1022D0000134CDE90365FFF71FFF01A8FFF748FFB1
:1022E00013B0F0BD2DE9F04F2DED028BB5B09FED91
:1022F000928A019310AB01252B9300230DF1D00B93
:10230000CDE92C3518EE103A4BF8B03D8A46F7EE81
:10231000008A039059462BA891460DF1D0082E95BE
:10232000CDED108AFFF7F6F818EE103A48F8AC3DFC
:102330004146FFF7EFF834AF18EE103A47F8A83DE2
:102340003946FFF7E7F80446DAF8000015F04EFFCB
:1023500034AB43F8A40D204619460093FFF7DAF892
:102360000646DAF8000080F0004015F0E5FF34ACD6
:1023700044F8A00D30462146FFF7CCF834AE18EEF5
:10238000103A46F89C3D3146FFF7C4F80290DAF85F
:10239000000080F0004015F0CFFF34AA80F000402C
:1023A00042F86C0D029B049211461846FFF7B2F8F2
:1023B0000290DAF8000015F019FF0DF1D00A029B27
:1023C0004AF8480D18465146FFF7A4F82BA8FFF726
:1023D0002FFDD9F8000015F009FF049A2B92002375
:1023E000CDE92C35059234AB18EE102A43F8B42D04
:1023F000199019462BA804932E95FFF78BF802909D
:10240000D9F8000080F0004015F096FF80F0004001
:10241000089059460298FFF77DF841468DED098AEC
:10242000FFF778F83946CDED0A8AFFF773F800997F
:102430008DED0B8AFFF76EF80290D9F8000080F05E
:10244000004015F079FF21460C900298FFF762F8E2
:1024500031468DED0D8AFFF75DF80290D9F8000046
:1024600015F0C4FE514622900298FFF753F82BA8AE
:10247000FFF7DEFC019BD3F80090484615F0B6FE4E
:102480000023229089F00040CDE92C352E95CDF81F
:10249000ACA015F051FF34A941F8B80D2BA8FFF7F7
:1024A00039F8049B8DED078A1946FFF733F8019B35
:1024B0000546186880F0004015F03EFF80F00040AF
:1024C000594608902846FFF725F8019B05461868ED
:1024D00015F08CFE414609902846FFF71BF8394657
:1024E0008DED0A8AFFF716F800998DED0B8AFFF73C
:1024F00011F821468DED0C8AFFF70CF83146CDED31
:102500000D8AFFF707F82BA8FFF792FC059A0F92A8
:1025100010AB224631462BA80E93CDF834A0FFF71E
:10252000C1FE32462BA90398FFF734FD35B0BDEC50
:10253000028BBDE8F08F00BF000000001FB504460D
:10254000096812681B68019101A802920393FFF7C2
:1025500017FC03AB02AA01A92046FFF7C3FE04B093
:1025600010BD4369D0ED017A1A44036902EB4202BF
:1025700019440A44C16801EB820292ED007A67EEC9
:10258000277A17EE900A7047F0B52DED028B0229DD
:1025900091B00C468768C66805D91C4B1C4A1D487B
:1025A0007A2118F02BFC41696846FFF799FDCDE9C7
:1025B0000A640024009D08972246214607A80C942F
:1025C0000E95FFF7CEFF214608EE100A012207A85C
:1025D000FFF7C7FF022208EE900A214607A8FFF77F
:1025E000C0FFD5ED027A07EE100A67EE277A95ED67
:1025F000017AE8EE877A95ED007AE8EE077A17EE31
:10260000900A11B0BDEC028BF0BD00BFCF110300EA
:10261000A61703007A11030038B50568406802EB7D
:10262000420463182C6804EB8304FFF7ADFFD4ED7C
:10263000007A07EE100A77EE877AC4ED007A38BD8B
:10264000D1ED027AD1ED016A91ED007A67EEA77AB9
:10265000F0B5E6EEA67A04460D462DED028BE7EEC8
:10266000077A9FB012AE17EE900A16F013F908EE33
:10267000100AB5EEC08AF1EE10FA08D831462046AD
:10268000FFF733FB20461FB0BDEC028BF0BD29469F
:10269000304609ADFFF7E4FB05A928468DED078A12
:1026A0000596FFF736FC18EE100A15F045FE0746B2
:1026B00018EE100A15F09AFD14971EAF07EE900A57
:1026C00047F8684D03ABB7EE008A05A838EE678A75
:1026D000169507930193CDE905760894FFF7B6FCAC
:1026E000019B1595CDE90447CDE9073403221795E1
:1026F000CDE91B558DED148A8DED198A1D92069634
:1027000000252A46002105A8FFF786FF2A46012159
:1027100005A8FFF781FF2A46022105A80135FFF72A
:102720007BFF032DEDD1ADE730B597B004AD044686
:102730002846FFF785FF02A90DA8CDE90245FFF75E
:102740006EFD01AA0DA92046FFF724FC17B030BD8D
:1027500000F1080373B50360044608460D461AF0FD
:10276000AFFB0F2805EB0006019007D9002201A955
:10277000204612F043FD019B2060A36032462946AB
:10278000206812F067FD019B2268636000212046EB
:10279000D15402B070BD000038B52DED048B08EEA9
:1027A000103A00F11C0343610023044609EE101A9D
:1027B00000F114058361037747490A9808EE902ACF
:1027C00012F0AAFD002859D119EE100A14F040F8B1
:1027D0003BA3D3E9002314F093F83BA3D3E90023F0
:1027E00014F0B8F914F05CFB206018EE900A14F0B5
:1027F0002FF833A3D3E9002314F082F80022374BDB
:1028000014F0A8F914F04CFB606018EE100A14F0F4
:102810001FF82BA3D3E9002314F072F82CA3D3E9FB
:10282000002314F097F914F03BFBA060089814F013
:102830000FF823A3D3E9002314F062F822A3D3E90D
:10284000002314F087F914F02BFBE060099813F0D3
:10285000FFFF1BA3D3E9002314F052F81AA3D3E916
:10286000002314F077F914F01BFB20610A99284625
:1028700012F0FEFCBDEC048B204638BD18490A98C6
:1028800012F04AFD0028F1D1DFED167A9DED087AAD
:1028900027EE277A29EE279A84ED037A9DED097AAF
:1028A00084ED009A68EEA78A28EE278A67EE277AD9
:1028B000C4ED018A84ED028AC4ED047AD6E700BF34
:1028C000399D52A246DF913F000000000020AC403D
:1028D00000000000005E0A41F41A030000004E40B0
:1028E000F91A0300AE6A24372DE9F043DFF83C9073
:1028F0008BB00546044600F1840804AE0027494623
:102900003046FFF725FF00231A4619462046029657
:1029100001970097FFF740FF2C34304612F092FCED
:10292000A045ECD128460BB0BDE8F083F41A0300B3
:102930000B6810B503604B6843608B688360CB689D
:10294000C3600B69036104461431143012F090FC2B
:10295000204610BDF8B5044604F1840715460E461E
:10296000FFF7C2FF3846FFF7BFFF31462046FFF7AB
:10297000DFFF314604F12C00FFF7DAFF314604F1A6
:102980005800FFF7D5FF29463846FFF7D1FF294603
:1029900004F1B000FFF7CCFF294604F1DC00FFF79B
:1029A000C7FF2046F8BDCA6802608A6B42604A6E63
:1029B000826070474A6802600A6B4260CA6D82603A
:1029C0007047D1F884200260D1F8B0204260D1F87D
:1029D000DC2082607047D1F894200260D1F8C020DA
:1029E0004260D1F8EC2082607047D1F890200260FC
:1029F000D1F8BC204260D1F8E82082607047F8B579
:102A0000074600F1140501F1140401F1980654F889
:102A1000143C45F8143C54F8103C45F8103C54F86C
:102A20000C3C45F80C3C54F8083C45F8083C54F87C
:102A3000043C45F8043C214628462C3412F04EFC58
:102A4000B44205F12C05E2D13846F8BD38B504464C
:102A50000D46FFF7D4FF05F1840104F18400FFF770
:102A6000CEFF204638BD000070B5EEB005462CAC58
:102A7000042900F2E880DFE801F055033775930080
:102A80007F492046FFF764FE7E497F4B01914FF05E
:102A90007C520091029416A8FFF77EFE204612F0A9
:102AA000D1FB7A492046FFF753FE794B79497A4AA0
:102AB0000093029401914FF0824321A8FFF76CFE2E
:102AC000204612F0BFFB21AA16A92046FFF742FFBD
:102AD00021462846FFF7BAFF2046FEF7E3F826A86E
:102AE00012F0B0FB1BA8A9E065492046FFF730FEB5
:102AF0006A496B4B6B4A0191009302946A4B16A88A
:102B0000FFF74AFE204612F09DFB60492046FFF782
:102B10001FFE4FF080436549009302940191624B80
:102B2000634ACAE756492046FFF712FE564B019307
:102B30005F4B604A009300215F4B029416A8FFF799
:102B40002BFE204612F07EFB50492046FFF700FE88
:102B50005A4B01935A4A5B4B009302944FF07E53B9
:102B60000021AAE746492046FFF7F2FD524B0193A8
:102B7000524B554A00930021544B029416A8FFF77C
:102B80000BFE204612F05EFB40492046FFF7E0FDB9
:102B90004F4B01934F4B009302944F4B4F4ADFE74B
:102BA00037492046FFF7D4FD434B0193434B464A38
:102BB00000930021454B02940BA8FFF7EDFD204642
:102BC00012F040FB31492046FFF7C2FD404B019314
:102BD000404B424A009300213F4B029416A8FFF756
:102BE000DBFD204612F02EFB05AE16AA0BA92046EF
:102BF000FFF7B0FE22493046FFF7AAFD384B01939C
:102C0000384B394A00930021384B029621A8FFF730
:102C1000C3FD304612F016FB21A942A8FFF788FE3B
:102C200021462846FFF712FF26A812F00BFB20468C
:102C3000FEF738F81BA812F005FB10A812F002FBF3
:102C400028466EB070BD00260D492046FFF780FD76
:102C50003346274A029431460196009616A8FFF79C
:102C60009BFD204612F0EEFA08492046FFF770FD62
:102C7000204B0093029401963346324631461CE7BE
:102C8000F41A030000007A4300003442F91A0300EA
:102C900000803B450000FA4400005C4300004842CD
:102CA000000016435A64BB3E0000704100000C4413
:102CB0000000C8429A99193E0000A04100009643C6
:102CC000000020420000FA43CDCCCC3E0000E040A2
:102CD0000000AF4300007A449A9959400000AA428C
:102CE0000000204014AEA341CDCC4C3DCDCC2C40B7
:102CF0000B045C4000002F4410B5044600F0EFF8D0
:102D0000002384F8C830204684F8C93010BD7047CD
:102D10001FB501220421044600F055FA4FF00113BB
:102D200001930123ADF8083004AB13E90E002046EF
:102D300004B0BDE8104000F066BA000073B50D465F
:102D400002A90023044621F8023D164600F066FA67
:102D500094F8C83093B9BDF806305B040ED5204610
:102D600000F098F9E368C4F8B0302369C4F8B430CF
:102D70006369C4F8B830012384F8C83094F8C930C6
:102D800093B9BDF90630002B0EDA204600F082F927
:102D90002368C4F8BC306368C4F8C030A368C4F8C2
:102DA000C430012384F8C93094F8C830CBB194F80A
:102DB000C93003F0FF00A3B1002384F8C8303246C5
:102DC00084F8C930294604EB83050133D5F8BC608B
:102DD00042F8046B032BD5F8B05041F8045BF2D1F4
:102DE00005E0BDF8060010F4404402D0002002B017
:102DF00070BD0349034804F0CAFD2046F7E700BF51
:102E0000FE1A0300B01900202DE9F04104461148D4
:102E1000DFF84080104F114E02F063FC0625424659
:102E20006821204600F0B2F848B13946304604F037
:102E3000C5FD4FF47A7004F01DFF013DEFD108216C
:102E4000204600F080F920460821BDE8F04100F05E
:102E50009AB900BF281600201B1B0300B0190020E0
:102E600010B5C0E9001207318360C9080023C360B0
:102E7000016110BD2DE9F04106680569846806F11D
:102E8000FF3C012303FA0CFCB340013BA2EB050E0F
:102E90008846083EA8EB010575450EDA18F8015B77
:102EA000B5406C4008250CEA040703EA44040FB15E
:102EB00047687C40013DF6D1ECE700250369AB4251
:102EC00009DDD61A013B5B1B4F19DB0024FA03F323
:102ED000BB550135F2E7BDE8F08104F0CDBE704787
:102EE00070B5274B0366274B4366274B836600F17B
:102EF0009003C36200F128062023C3869EB00446D7
:102F0000304601F041FE0546B0BB1EA84FF4807369
:102F100020F8743D3246022101F06AFE054658BB96
:102F20008DF8080001233246022102A88DF84030B6
:102F300002F09DF90546F8B99DF80F30022098403F
:102F400013F074FC00224FF07C5313F0D9FC13F003
:102F5000A7FF9DF84830C4F8A400C3F104037D2006
:102F6000984013F063FC00224FF07C5313F0C8FC30
:102F700013F096FFC4F8A80028461EB070BD00BF2D
:102F8000F3320100C3330100DB2E010010B4A1F1C4
:102F90006804012C0CD8C0F89420012280F891100C
:102FA00080F8312080F890205DF8044BFFF798BF3F
:102FB0006FF013005DF8044B7047B1F9003090EDED
:102FC000297A07EE903AF8EEE77A67EE877AC2ED53
:102FD000007AB1F9023090ED297A07EE903AF8EED6
:102FE000E77A67EE877AC2ED017AB1F9043090EDA5
:102FF000297A07EE903AF8EEE77A67EE877AC2ED23
:10300000027A7047B1F9003090ED2A7A07EE903AD3
:10301000F8EEE77A67EE877AC2ED037AB1F902300B
:1030200090ED2A7A07EE903AF8EEE77A67EE877A23
:10303000C2ED047AB1F9043090ED2A7A07EE903AA5
:10304000F8EEE77A67EE877AC2ED057A70470000FE
:1030500070B514460D46FFF7B0FF0C31FFF7D2FFF5
:103060002A469FED0B7A52F8183FA3615368E3613B
:103070002A6A4FF47A73534307EE903AF8EE677A70
:1030800067EE877AFCEEE77AC4ED087A70BD00BF80
:103090000AD7233830B58BB000F1280105466846C1
:1030A00000F02AFD044620B92A4669462846FFF763
:1030B000CFFF20460BB030BD2DE9F84F06460C4639
:1030C000174600254FF038084FF07D094FF0000AF1
:1030D0004FF07C5BAF4227DD08FB05F3E25C82B971
:1030E0002344D879022303FA00F013F09FFB5246E1
:1030F0005B4613F005FC13F0D3FEC6F8A4000135BF
:10310000E8E7012AFBD12344187AC0F1040009FA48
:1031100000F013F08BFB52465B4613F0F1FB13F00B
:10312000BFFEC6F8A800EAE706F1280239462046A5
:10313000BDE8F84F01F044BE0B4600F12802012122
:10314000184602F094B870B59CB01CAC002304F88B
:10315000703D0D4621460646FFF7EEFF88B98DF813
:1031600004500FCC0EAD0FC50FCC0FC50FCC0FC543
:1031700094E80300012285E803000EA93046FFF71A
:103180009BFF1CB070BDF0B59DB01CAC012604F8CF
:10319000706D0D4621460746FFF7CEFF88B98DF8C2
:1031A00004500FCC0EAD0FC50FCC0FC50FCC0FC503
:1031B00094E80300324685E803000EA93846FFF77D
:1031C0007BFF1DB0F0BD034608460828114616D007
:1031D00007D818B1022812D9042810D06FF01300B4
:1031E00070478328FAD3882803D9A0F19302012AD3
:1031F000F4D803F1280280F0800000F0A5BC03F1B0
:10320000280200F000BD1FB501AC84E80E0000F1FB
:103210002801204600F079FB04B010BD0B4600F1F8
:103220002801184600F0E3BBF8B5074658681C466D
:1032300003680D46DB6A6178164698476068036844
:1032400039461B689847606803685B6B9847B8B954
:103250006068617803683246DB6B98472E44AE4263
:1032600001D10020F8BD606803681B6998470028F9
:10327000F7D0606803685B69984705F8010BEEE7D3
:103280006FF00100EEE72DE9F3411C468046186916
:103290001646E26803680092002701228DF8052097
:1032A0008DF8047002AADB690D4612E90600984702
:1032B0003946207A04F0D0FD2069036848F0800187
:1032C0009B6898472E44B54207D0206903680021C7
:1032D0009B68984705F8010BF5E70121207A04F077
:1032E000BBFD206903681B6A9847002002B0BDE857
:1032F000F08110B45AB11C782CB1012C07D15DF8C3
:10330000044BFFF791BF5DF8044BFFF7BCBF6FF0B4
:1033100001005DF8044B7047F8B5074658681D4634
:1033200003680C46DB6A6978164698476868036844
:1033300039461B68984726446868A642036804D04B
:103340001B6814F8011B9847F6E75B6B9847002849
:1033500014BF6FF001000020F8BD2DE9F3411C46B9
:10336000804618691646E268036800920027012229
:103370008DF805208DF8047002AADB690D4612E96C
:10338000060098473946207A04F066FD20690368F4
:1033900041469B6898472E44B54206D0206915F8EF
:1033A000011B03689B689847F6E70121207A04F027
:1033B00053FD206903681B6A9847002002B0BDE8EE
:1033C000F08110B45AB11C782CB1012C07D15DF8F2
:1033D000044BFFF7A1BF5DF8044BFFF7BEBF6FF0D2
:1033E00001005DF8044B704782B00388ADF80030EF
:1033F0004388ADF802308388ADF8043091F82B2073
:1034000091F828305B00E2B902AA134433F8083C73
:10341000038091F8293002AA02EB430391F82C2093
:1034200033F9083C9AB9438091F82A3002AA02EB9A
:10343000430391F82D2033F9083C52B9838002B040
:10344000704702AA134433F8083C5B42E0E75B4252
:10345000E9E75B42F2E748B1836B3BB1C36B2BB149
:10346000006CB0FA80F04009404270474FF0FF30E6
:10347000704710B588B104788C423FBF017019784D
:1034800041F0010119700178914204D902701A7853
:1034900042F002021A70002001E04FF0FF3010BD30
:1034A0002DE9F0418046A0B018460D4616461C4650
:1034B000FFF7D1FF50BB49B3637A0BB948F08008DE
:1034C000E27A6368A76B324469464046B84794F88D
:1034D0004730A072012B0CBF4FF4E1700220236C27
:1034E0006168984794F90A0098B92A46511B8BB233
:1034F0009E4202D820B0BDE8F081E37A20AF3B4481
:103500000B4413F8803C02F8013BEFE74FF0FF302B
:10351000F0E76FF00100EDE707B5034601220DF17A
:1035200007011B20FFF7BCFF48B99DF80730C3F324
:103530008203013BDBB2022B9CBF024AD05603B090
:103540005DF804FB291B030013B50023044608465D
:10355000ADF80430FFF77FFFB8B90B46022201A98E
:103560004020FFF79DFF70B99DF80430DA09A27082
:10357000C3F3021203F00F0323709DF8053062704D
:1035800003F00303E37002B010BD4FF0FF30FAE721
:1035900013B5002304460846ADF80430FFF75BFF7F
:1035A000E8B90B46022201A94220FFF779FFA0B932
:1035B0009DF80430DA09A270C3F380126271C3F37C
:1035C000011203F00F0323709DF805306270C3F3FE
:1035D000C00203F00703E270237102B010BD4FF088
:1035E000FF30FAE737B50D4602A90023044621F85B
:1035F000043D02222B464B20FFF752FFC0B99DF835
:1036000004305B08E3719DF80530C3F38011DA09DB
:10361000A170C3F3810103F003036270E1702371B1
:1036200032B92B46012204F108014D20FFF738FF83
:1036300003B030BD2DE9F843054618460F469146C4
:103640001C46FFF708FF002841D100293FD0637ACC
:103650000BB905F07F0594F84730012B2BD14FF0C3
:103660000008C8450FD17C2D06D13B7813F001032B
:1036700018BF012384F8473094F90A0008B16FF0AD
:103680000100BDE8F88305EB080007EB080163685B
:10369000E66B0122C0B2B047236CA07261684FF4A0
:1036A000E170984794F90A3008F10108002BD8D04E
:1036B0007C2DE4D1D9E76368E66B39464A46284653
:1036C000B047236CA072616802209847CBE74FF0A7
:1036D000FF30D6E773B515461E460446A0B1C1F3C8
:1036E000430249098DF804208DF80510022201A932
:1036F0005B20FFF79FFF28B933462A4621465E200C
:10370000FFF798FF02B070BD4FF0FF30FAE773B5D6
:1037100002AC002304F8013D06460D460B4601228B
:1037200021465920FFF7BCFE60B99DF8070020F044
:10373000010030438DF807002B4601222146592015
:10374000FFF778FF02B070BDF7B50D4605F108062A
:1037500004460021334601220230ADF80410FFF781
:1037600088FE002838D1A378671C012B0CBF0322E8
:103770000722014633463846FFF77BFE60BB0C222A
:1037800001212046FFF775FE30BB03220146A01839
:10379000FFF76FFE00BB6378A2781B0103F0700394
:1037A00043EAC213227802F00F0213438DF804306B
:1037B000E2789DF8053002F0030223F0030313437F
:1037C0008DF8053002222B4601A94020FFF732FF79
:1037D00010B92846FFF7A0FE03B0F0BD73B50D4643
:1037E00005F1080604460021334601220230ADF8F7
:1037F0000410FFF73EFE002857D101460322601C4B
:10380000FFF737FE002850D101460122601DFFF767
:1038100030FE002849D10D2206212046FFF729FE5F
:10382000002842D101460122E01CFFF722FE0028B9
:103830003BD104220146A018FFF71BFEA8BB9DF850
:103840000430A27803F07F0343EAC2136279920145
:1038500002F0400223F0400313436278120102F0A9
:10386000300223F030031343227823F00F0302F0D9
:103870000F0213438DF80430E378DB0003F00802F5
:103880009DF8053003F0F0031343227902F007029C
:1038900013438DF8053002222B4601A94220FFF781
:1038A000C9FE10B92846FFF737FE02B070BD37B524
:1038B0000023054608460C468DF80730FFF7CBFD80
:1038C000F0B90B4601220DF107017C20FFF7E8FD5E
:1038D000B0B99DF8070005F0010520F0010028436C
:1038E0008DF80700234601220DF107017C20FFF728
:1038F000A1FE38B99DF8073003F0010384F8473082
:1039000003B030BD6FF00C00FAE773B50023044636
:1039100008460D46ADF804308DF80630FFF79BFDE4
:1039200000285ED1002C5CD02678731E022B5BD859
:103930000B46032201A95320FFF7B2FD00284ED108
:1039400006F0FD03012B1BD1A3785B0003F00202FC
:103950009DF8043003F0F9031343E278920002F07B
:10396000040213432279D20002F0080203F0E703B5
:1039700013436279120102F0100213438DF80430F0
:10398000023E012E1BD8A3795B0003F002029DF8D2
:10399000053003F0F9031343E279920002F00402C8
:1039A0001343227AD20002F0080203F0E703134324
:1039B000627A120102F0100213438DF805309DF86F
:1039C0000630627823F0010302F0010213438DF800
:1039D000063003222B4601A95320FFF72BFE02B02D
:1039E00070BD4FF0FF30FAE76FF00B00F7E713B54B
:1039F000002304460846ADF80430FFF72CFD80B9DB
:103A00007CB10B46022201A91C20FFF749FD30B909
:103A10009DF805209DF8043043EA0223238002B07C
:103A200010BD4FF0FF30FAE7F8B5044610460D46DA
:103A30001746FFF710FD0646002858D1002956D03A
:103A400001F1170322461F3112F8010F03F8010F8D
:103A50008B42F9D1A27A637A43EA02232B80227B3C
:103A6000E37A43EA02236B80A27B637B43EA02236F
:103A7000AB8039462846FFF7B7FC227CE37B43EA5C
:103A800002231BB2AB81A17C627C42EA0122EA8163
:103A9000227DE17C41EA02210AB22A82B7F8441071
:103AA00011FB02F14FF4007291FBF2F109B25B1AC3
:103AB000B3F5004F05F10C0014DA13F5004F14DBD9
:103AC0001BB2AB813946FFF78FFCA37DE27D1B0261
:103AD00043EA0243627D13432B62237885F8243046
:103AE0003046F8BD47F6FF73EBE7024BE9E74FF0CE
:103AF000FF36F5E70080FFFF30B50D4687B004467E
:103B000068B10B46182269460320FFF7C9FC20B9AB
:103B10002A4621466846FFF787FF07B030BD4FF0C1
:103B2000FF30FAE710B504460846FFF794FC40B9A9
:103B30003CB10B46012221460320BDE81040FFF7AF
:103B4000AFBC4FF0FF3010BDF7B50023064610465E
:103B50000D461446ADF80430FFF77DFC00284CD12B
:103B6000134601A902225620FFF79AFC00283CD1F7
:103B700094F86010C3B28B4201D3002008E04300E8
:103B8000E26DD718D35CB34200F10100F2D178782E
:103B9000032D35D8022D9DF805109DF804300ED068
:103BA000032D24D0012D6FEA00021ABF52B2134038
:103BB00003438DF804300A408DF8052007E041EA00
:103BC000000223EA00038DF805208DF80430234617
:103BD000012201A95620FFF72DFD30B9234601220D
:103BE0000DF105015720FFF725FD03B0F0BD03439C
:103BF0008DF8043041EA0002DEE74FF0FF30F4E7D1
:103C00006FF00B00F1E7F7B502AC002304F8013DBB
:103C100006460F4615461346214601225820FFF757
:103C20003FFCB0B9032F19D83301022FD8B29DF849
:103C3000073011D0032F0ED0012F1ABF304383431A
:103C400033438DF8073001222B4621465820FFF7D9
:103C5000F1FC03B0F0BD33430343F2E76FF00B0018
:103C6000F7E770B5054608460C46FFF7F4FB68B960
:103C700065B10B6C496844F6206098472346294695
:103C800001222120BDE87040FFF70ABC4FF0FF3051
:103C900070BDF7B5002304468DF80730FFF7DBFB56
:103CA00000287FD1B4F84A60002E7BD0E389DA0780
:103CB00044BF03F1FF33E381E389012B9CBF02235F
:103CC000E38121460020E789FFF7F1FD034660BB51
:103CD0002146FFF71CFD034638BBB6FBF7F507FB93
:103CE000156515F0FF0523D0751BADB20746BD4223
:103CF00020D9D3B96069E289234639463844FFF7B1
:103D0000E9FCE28917440346BFB2F0E76069E28943
:103D1000234629462844FFF7DDFCE2891544034683
:103D2000ADB2AE420ED9002BF0D0184603B0F0BDB4
:103D30000546F6E7002BF8D10222E789E281AE4280
:103D400022D8E781002BF0D121460120FFF7DFFCCC
:103D500003460028E9D121460120FFF7A8FD0346CC
:103D60000028E2D121460DF10700FFF77AFF9DF808
:103D7000072002F00F02227403460028D5D1012A41
:103D800018BF6FF00803D0E7002BDAD16069E28931
:103D9000234629462844FFF79DFCE2891544034643
:103DA000ADB2CCE74FF0FF33BFE737B5B6238DF8A0
:103DB0000630002305468DF80730FFF74CFB04461C
:103DC000B8B901222B460DF106017E20FFF732FC27
:103DD0002B6C696804464FF4FA609847012285F815
:103DE000472034B96B7A3BB12846FFF752FF0446AF
:103DF00060B1204603B030BD20462B460DF10701CF
:103E0000FFF74EFB04460028F3D1EDE70022002324
:103E1000C5E90C23EDE7000013B500238DF807304A
:103E20000446FFF718FB034668B9637A012284F859
:103E300047205BB1234601220DF107010020FFF767
:103E40002FFB034658B1184602B010BD23460DF1B2
:103E50000701FFF725FB03460028F4D1EAE79DF8A8
:103E60000720217891420BD1102222730122E276A1
:103E7000054AA085A2622046FFF797FF0346E2E7C6
:103E800022706FF00203DEE7000102002DE9F74324
:103E900014468DF807008946002942D0002A40D0F8
:103EA000127EC3B29A423FD9234601220DF1070187
:103EB0002F20FFF7BFFB30BBE3890F2B2AD8DA078F
:103EC00048BF03F1FF334FF0000648BFE3813027BE
:103ED000B0461025E089AAB2824209EB08012346C8
:103EE00014D302463846FFF7DBFAA57BA8442F44DB
:103EF0005FFA88F8FFB22E44F6B2C6F11005EDB2B3
:103F000008B9002DE6D103B0BDE8F0833846FFF7CD
:103F1000C7FAF0E72346102249463020FFF7C0FADF
:103F2000F1E74FF0FF30EEE76FF00900EBE77FB508
:103F30000E46044610220021684618F0D9FBB57ED3
:103F40000023DAB2AA4202D36FF007000FE003EBBE
:103F50004302716A88188A5C092A03F10103F0D1CF
:103F60008578407832466946FFF790FF08B104B083
:103F700070BD04AB1D4415F8103C03F00102227023
:103F8000C3F340026270C3F38002C3F3C203A270A2
:103F9000E370ECE72DE9F043074687B0104616467C
:103FA000FFF759FA044600286ED1002F6CD03D1D52
:103FB00092F8478007EB01170437BD4203D1204632
:103FC00007B0BDE8F08315F8043C032B07D9B8F11E
:103FD000010F04D131460020FFF769FC044674BB91
:103FE00015F8043C092B48D0292B0ED1102221466C
:103FF00002A818F07DFBB6F848309B0608D496F866
:104000001AC02346DAB294451BD86FF00704D6E7EE
:10401000334601220DF107011E20FFF741FA08BBCC
:104020009DF8073013F0400F18BF803B2B80B8F18C
:10403000010F04D131464046FFF739FC04461035E4
:10404000BBE703EB4302716A88188A5C292A03F1F3
:104050000103D7D190F802904078324602A9FFF7C9
:1040600015FF08B10446AAE706AB994419F8102CCD
:1040700002F07F0312F0400FD6E731462846FFF7E3
:1040800056FF0028D3D0EDE74FF0FF3497E71FB578
:10409000B0F848309B07044611D5FFF7DCF988B922
:1040A00004A8292300F8103D22460121FFF772FFE2
:1040B00018B9BDF80430A4F8443004B010BD6FF056
:1040C0000700FAE74FF0FF30F7E7F0B5577E00231F
:1040D000DCB2A74201D800200DE003EB4305166ACD
:1040E0007419755D8D4203F10103F1D123880380BA
:1040F000A37883700120F0BD2DE9F04F044687B00E
:1041000010461546FFF7A7F9002840F05681002C0D
:1041100000F053814FF0380818FB014892F847A08F
:10412000DFF89CB2261D08F10408814602AFB045B5
:1041300005D1BAF1010F00F03A8100241AE0BAF17A
:10414000010F10D016F8043C092B00F2EA80DFE8DA
:1041500013F015001B002000E800E800E800E8006C
:10416000E800E800D90029460020FFF7A0FB04463C
:104170000028E7D0204607B0BDE8F08F294630463A
:10418000FFF7E2FA0446A7E029463046FFF726FB90
:10419000F8E705F108030B220121701DFFF769F90B
:1041A00004460028E6D12B46012239466B20FFF752
:1041B00077F904460028DDD133789DF808205B01AB
:1041C00022F0200203F0200313438DF8083001226F
:1041D0002B4639466B20FFF72DFA04460028C9D13B
:1041E000ADF808008DF804002B46022239464B201A
:1041F000FFF756F904460028BCD19DF80830F27943
:1042000003F0010343EA42038DF808309DF80930BA
:10421000727803F07F0343EAC213B278920102F08E
:10422000400223F040031343F278920002F00C02A4
:1042300023F00C031343327923F0030302F003024B
:1042400013438DF809301524294601A8FFF76AFCAD
:1042500000284BD19DF804305B0747D42B463946E4
:1042600002224B20FFF7E6F92B6C696804464FF4F5
:104270007A709847002C7FF47DAF73788BBBEC7617
:104280002B4606F1080101224D20FFF7D3F92B6CD4
:10429000696804464FF47A709847002C7FF46AAF3F
:1042A0002B46012239464420FFF7FAF8044698B914
:1042B0007379B27903F00F0343EA02138DF80830E3
:1042C00039462B4601224420FFF7B4F92B6C69686C
:1042D00004464FF47A7098473836002C3FF427AFE5
:1042E00048E70123EB76F3782B77D9E72B6C6968E5
:1042F00042F21070013C984714F0FF04A4D16FF013
:104300000E0437E710220021384618F0F1F92A464A
:10431000092101A8ADF804908DF80690FFF7D5FEAD
:1043200010B96FF0070425E739469DF80500FFF73F
:10433000ADFD04460028CFD19DF80630B6F800C088
:104340005A0810B2CCF30A0C37F8101001EA0B012E
:1043500041EA0C0127F81010501CB6F802C037F8DB
:104360001010CCF30A0C01EA0B0141EA0C0127F80A
:104370001010901CB6F804C037F81010CCF30A0CDB
:1043800001EA0B0141EA0C010332C3EB420327F8B7
:10439000101003F0FF03E2B2934206D82B4610221E
:1043A00039463020FFF746F9ECE60134F3E72946B9
:1043B0005046FFF77CFA0446DCE64FF0FF34D9E6BE
:1043C00000F8FFFF2DE9F041804686B01046154603
:1043D000FFF741F820B14FF0FF3006B0BDE8F081A3
:1043E000B8F1000FF7D0382616FB018692F8477017
:1043F00008F104040436A64203D1012F73D0002033
:10440000EBE714F8043C032B0CD8022B73D014F800
:10441000043C092B6CD8DFE803F00E16706B6B6B55
:104420006B6B6B1B012FF2D129460020FFF73FFA7F
:104430000028D2D1EBE729462046FFF785F800286F
:1044400000F08680C9E729462046FFF7A1F8F6E785
:104450001022002102A818F04BF900232A46092156
:1044600001A8ADF804308DF80630FFF72EFE0028C5
:104470003ED002A99DF80500FFF708FD0028ACD149
:104480009DF8063006A95A1C51FA82F212F8101C47
:1044900006AA1A4412F8102C42EA0122C2F30A02B8
:1044A00006A92280DA1C51FA82F2991C12F8100C2B
:1044B00006AA52FA81F111F8102C42EA0022C2F346
:1044C0000A0206A962805A1D043351FA82F251FA97
:1044D00083F312F8102C13F8103C43EA0223C3F3C1
:1044E0000A03A38034E029463846FFF7E0F974E771
:1044F0006FF0070071E7012F96D02846FEF7ABFF5B
:1045000000287FF468AF2B46012202A96B20FEF73A
:10451000C7FF00287FF461AF9DF80830C3F3401354
:10452000237029462046FFF75DF800287FF455AF39
:104530002B46012202A94420FEF7B2FF00287FF497
:104540004CAF9DF808301A0903F00F03A271637194
:10455000383450E748B1836B3BB1C36B2BB1006C6F
:10456000B0FA80F04009404270474FF0FF3070478A
:104570002DE97048034604460E460025191BC9B2B2
:104580008E4202D82846BDE8708813F8011B222904
:104590005ED8DFE801F012181D2A2F34393E434857
:1045A0005D5D5D5D5D5D5D5D5D53585D5D5D5D5D4A
:1045B0005D5D5D5D5D5D225D4D00D2E9000140F015
:1045C000010B8C460EE0D2E9000140F0020BF8E747
:1045D000D2E9000140F0040BF3E7D2E90001834681
:1045E00041F0010CC2E900BCC8E7D2E9000140F08B
:1045F000080BE6E7D2E9000140F0100BE1E7D2E951
:10460000000140F0200BDCE7D2E9000140F0400B54
:10461000D7E7D2E9000140F0800BD2E7D2E90001F0
:1046200040F4807BCDE7D2E9000140F4007BC8E78D
:10463000D2E90001834641F0040CD3E7D2E900013E
:1046400040F4002BBDE7D2E9000140F4801BB8E73D
:104650006FF0070592E72DE9304886B00C4610222E
:104660000021054602A818F043F800232246032142
:1046700001A8ADF804308DF80630FFF726FD48B3E9
:10468000224602A99DF80500FFF700FCE0B99DF85D
:10469000063006AA0A3352FA83F302A913F8102C43
:1046A00022F001022A4303F8102C30202346102266
:1046B000FEF7C0FFD4E90CBC48B9012D07D14BF07F
:1046C00008026346C4E90C2306B0BDE830882BF02D
:1046D0000802F6E76FF00700F6E72DE9304886B0EC
:1046E0000C4610220021054602A818F001F804210A
:1046F000002322460DEB0100ADF804308DF80630A2
:10470000FFF7E3FC50B3224602A99DF80500FFF72E
:10471000BDFBE8B99DF8063006AA033352FA83F3CD
:1047200002A913F8102C02F07F0242EAC51203F826
:10473000102C302023461022FEF77CFFD4E90CBC5D
:1047400048B9012D07D14BF010026346C4E90C2390
:1047500006B0BDE830882BF01002F6E76FF00700D6
:10476000F6E72DE9304886B00C46102200210546B8
:1047700002A817F0BDFF00232246052101A8ADF8CD
:1047800004308DF80630FFF7A0FC50B3224602A992
:104790009DF80500FFF77AFBE8B99DF8063006AAF8
:1047A000033352FA83F302A913F8102C02F07F02AC
:1047B00042EAC51203F8102C302023461022FEF7DF
:1047C00039FFD4E90CBC48B9012D07D14BF02002C8
:1047D0006346C4E90C2306B0BDE830882BF0200204
:1047E000F6E76FF00700F6E72DE9304886B00C4693
:1047F00010220021054602A817F07AFF0023224666
:10480000062101A8ADF804308DF80630FFF75DFCF5
:1048100050B3224602A99DF80500FFF737FBE8B91F
:104820009DF8063006AA013352FA83F302A913F861
:10483000102C22F0080242EAC50203F8102C3020A6
:1048400023461022FEF7F6FED4E90CBC48B9012D30
:1048500007D14BF040026346C4E90C2306B0BDE823
:1048600030882BF04002F6E76FF00700F6E72DE9FD
:10487000304886B00C4610220021054602A817F0E9
:1048800037FF00232246072101A8ADF804308DF838
:104890000630FFF71AFC50B3224602A99DF8050026
:1048A000FFF7F4FAE8B99DF8063006AA013352FA88
:1048B00083F302A913F8102C22F0100242EA051229
:1048C00003F8102C302023461022FEF7B3FED4E963
:1048D0000CBC48B9012D07D14BF080026346C4E9F6
:1048E0000C2306B0BDE830882BF08002F6E76FF0AD
:1048F0000700F6E72DE9304886B00C46102200216B
:10490000054602A817F0F4FE00232246082101A85C
:10491000ADF804308DF80630FFF7D7FB50B32246D0
:1049200002A99DF80500FFF7B1FAE8B99DF8063035
:1049300006AA013352FA83F302A913F8102C22F0CD
:10494000200242EA451203F8102C302023461022A0
:10495000FEF770FED4E90CBC48B9012D07D14BF429
:1049600080726346C4E90C2306B0BDE830882BF49E
:104970008072F6E76FF00700F6E72DE9304886B061
:104980000C4610220021054602A817F0B1FE0023B4
:104990002246092101A8ADF804308DF80630FFF752
:1049A00094FB50B3224602A99DF80500FFF76EFA6A
:1049B000E8B99DF8063006AA053352FA83F302A936
:1049C00013F8102C22F0080242EAC50203F8102C5A
:1049D000302023461022FEF72DFED4E90CBC48B946
:1049E000012D07D14BF400726346C4E90C2306B0D5
:1049F000BDE830882BF40072F6E76FF00700F6E7A9
:104A00002DE9304886B00C4610220021054602A848
:104A100017F06EFE00232246222101A8ADF80430D3
:104A20008DF80630FFF751FB40B3224602A99DF8EE
:104A30000500FFF72BFAD8B99DF8062006AB1A44FB
:104A400002A912F8103C23F0020343EA450302F8DE
:104A5000103C302010222346FEF7ECFDD4E90CBCBC
:104A60005A4640B9012D06D14CF00403C4E90C2389
:104A700006B0BDE830882CF00403F7E76FF00700BC
:104A8000F6E72DE9304886B00C4610220021054695
:104A900002A817F02DFE00232246132101A8ADF82D
:104AA00004308DF80630FFF710FB40B3224602A910
:104AB0009DF80500FFF7EAF9D8B99DF8062006AB86
:104AC0001A4402A912F8103C23F0200343EA4513CC
:104AD00002F8103C302023461022FEF7ABFDD4E94B
:104AE0000CBC48B9012D07D14BF400226346C4E940
:104AF0000C2306B0BDE830882BF40022F6E76FF0F7
:104B00000700F6E72DE9304886B00C461022002158
:104B1000054602A817F0ECFD00232246142101A847
:104B2000ADF804308DF80630FFF7CFFA40B32246D7
:104B300002A99DF80500FFF7A9F9D8B99DF806204C
:104B400006AB1A4402A912F8103C23F0100343EA02
:104B5000051302F8103C302023461022FEF76AFDB0
:104B6000D4E90CBC48B9012D07D14BF4801263463F
:104B7000C4E90C2306B0BDE830882BF48012F6E7B8
:104B80006FF00700F6E7000010B50446FFF7E2FCFF
:104B9000034610BB24222270104AA264627A02B932
:104BA0000123E37263690BB90D4B63612046FFF784
:104BB00033F990B90B4B23620B4B636241F208133C
:104BC00023830723A376094BE365082384F8603029
:104BD0002046BDE81040FFF75ABA10BD0300002080
:104BE0002C1B03002C3B03005F3B0300040200204E
:104BF0002DE9FF4715460446002200232846CDE94B
:104C00000223FFF7A7FC002840F0D480002C00F01E
:104C1000D180204602AAFFF7ABFC0446002840F0F2
:104C2000CB802B4601220DF107017D20DDE9029AA0
:104C3000FEF736FC0446002840F0BE80002309F051
:104C4000010213431EBF9DF8073043F004038DF8A3
:104C5000073009F00202002313431EBF9DF80730FE
:104C600043F002038DF8073009F0040200231343D8
:104C70001EBF9DF8073043F001038DF80730002276
:104C80000AF0010313431EBF9DF8073043F00803E9
:104C90008DF8073009F007020AF00103134308D02A
:104CA0002B4601220DF107017D20FEF7C3FC0028F1
:104CB0007ED129F007022AF0010313437CD095F836
:104CC0004780B8F1010F6DD009F0080200231343AB
:104CD00004D029460120FFF7BEFC044609F010026B
:104CE0000023134304D029460120FFF7F6FC0446B5
:104CF00009F020020023134304D029460120FFF7C6
:104D000030FD044609F040020023134304D0294635
:104D10000120FFF769FD044609F0800200231343D8
:104D200004D029460120FFF7A2FD044609F4807251
:104D30000023134304D029460120FFF7DBFD04467E
:104D400009F400720023134304D029460120FFF721
:104D500014FE044600220AF00403134304D029463B
:104D60000120FFF74DFE044609F4002200231343FF
:104D700004D029460120FFF784FE044609F480167A
:104D8000002756EA070304D029460120FFF7BAFEA0
:104D90000446B8F1010F0FD174B929464046FEF719
:104DA00086FD05E029460020FEF781FD00288BD016
:104DB000044601E04FF0FF34204604B0BDE8F08720
:104DC0002DE9F04F06468DB010461546FFF7C2FBA1
:104DD0008246002840F04882002E00F0458292F87A
:104DE00047300193382212FB01610B1D341D0593DE
:104DF000059B9C420ED1019B012B07D1BAF1000FFC
:104E000004D129461846FEF752FD824650460DB0A1
:104E1000BDE8F08F14F8042C022AA4F1040001D993
:104E2000092A06D12A460121FFF766F9824638345D
:104E3000DEE7019B012B04D129460020FEF737FD58
:104E40008246BAF1000FE1D114F8046C082E0CD898
:104E5000062E80F08A81042E50D000F2A080032E0E
:104E600000F0F2806FF0070AE1E7142E00F0BD8138
:104E70001D2E00F01C81132EF4D108AF10225146D4
:104E8000384617F035FC2A46314607A8ADF81CA075
:104E90008DF81EA0FFF719F90028E3D02A463946FD
:104EA0009DF81D00FEF7F2FF82460028BFD19DF855
:104EB0001E002188420816B2090137F816C001F019
:104EC00010012CF0100C41EA0C010CAB27F8161065
:104ED00003EB4201668821F80E6C0432A68821F8A3
:104EE0000C6CC0EB4202E68821F80A6C02F0FF026B
:104EF0005346D9B291424CD20133FAE708AF10229F
:104F00005146384617F0F4FB2A46314607A8ADF85B
:104F10001CA08DF81EA0FFF7D8F80028A2D02A46C2
:104F200039469DF81D00FEF7B1FF824600287FF448
:104F30007EAFB4F804C02288E6889DF81E104FEAC0
:104F40004C3C0CF4005CC2F30C02B60306F4804641
:104F500042EA0C0232432689B4F802C0480842EA09
:104F6000C63227F81020461CCCF30A0C37F816205E
:104F700022F4FF6222F0070242EA0C020230C1EB87
:104F8000400127F8162001F0FF015346DAB29142A2
:104F900003D82B461022394650E00133F6E708AE1D
:104FA00010225146304617F0A3FB2A46052107A8D8
:104FB000ADF81CA08DF81EA0FFF787F800283FF47D
:104FC00051AF2A4631469DF81D00FEF75FFF82462D
:104FD00000287FF42CAFB4F804C02288E7889DF83D
:104FE0001E104FEA4C3C0CF4005CC2F30C02BF03F1
:104FF00007F4804742EA0C023A432789B4F802C01A
:10500000480842EAC73226F81020471CCCF30A0CA5
:1050100036F8172022F4FF6222F0070242EA0C025F
:105020000230C1EB400126F8172001F0FF01534682
:10503000DAB2914206D82B46102231463020FEF7D4
:10504000F9FAF3E60133F3E71022514608A817F006
:105050004FFB2A46314607A8ADF81CA08DF81EA0CC
:10506000FFF733F800283FF4FDAE2A4608A99DF863
:105070001D00FEF70BFF824600287FF4D8AE9DF896
:105080001E20268851080CAB03EB41000131C2EB16
:10509000410220F8106C02F0FF025346D9B291424F
:1050A00003D32B46102208A9C8E70133F6E708AF5F
:1050B00010225146384617F01BFB2A46314607A8F6
:1050C000ADF81CA08DF81EA0FEF7FFFF00283FF4EE
:1050D000C9AE9DF81D309DF81E800293DA1CD3B234
:1050E00008F102020393029EC2F346030493D146E1
:1050F0004FF0080B039BB342FFF499AE2A463946A2
:105100003046FEF7C3FE824620BB029BB34238BF47
:105110004FF00008DDE90323B24208BF9B46C8F305
:105120004702A9EB0200D1B20B1859455FFA83F987
:1051300013D39DF81E30C3EB410303F0FF0300229D
:10514000D1B299420FD32B46102239463020FEF7B8
:1051500071FA82460136F6B2CCE734F8193027F8F6
:1051600012300132DFE70132EAE708AE1022514681
:10517000304617F0BDFA2A46072107A8ADF81CA053
:105180008DF81EA0FEF7A1FF00283FF46BAE2A4663
:1051900031469DF81D00FEF779FE824600287FF417
:1051A00046AE9DF81E1020884F080FFA87FCC0F30A
:1051B000090036F81C2022F47F7222F00302024319
:1051C0006088800222F4806200F48060024301372C
:1051D000C1EB470126F81C2001F0FF015346DAB26B
:1051E00091427FF628AF0133F9E71022514608A813
:1051F00017F07EFA2A46314607A8ADF81CA08DF8B4
:105200001EA0FEF762FF00283FF42CAE2A4608A934
:105210009DF81D00FEF73AFE824600287FF407AE97
:105220009DF81E1026884A080CAB03EB420007329B
:1052300020F80E6C668820F80C6CA68820F80A6CA2
:10524000E68820F8086C268920F8066CC1EB42023B
:10525000668920F8046C02F0FF025346D9B29142ED
:10526000BFF41FAF0133F9E74FF0FF3ACEE52DE968
:10527000F04F07468DB010461646FFF76BF904460F
:10528000002840F0CE81002F00F0CB81382313FBA3
:1052900001710B1D92F847B003933D1D039B9D4286
:1052A0000CD1BBF1010F05D124B931465846FEF7A8
:1052B000FEFA044620460DB0BDE8F08F15F8043C18
:1052C000022BA5F1040001D9092B06D13246012198
:1052D000FFF778F804463835E0E7032B00F0A481A7
:1052E000BBF1010F04D131460020FEF7E0FA04467D
:1052F000002CDFD115F8047C082F34D8062F80F05D
:105300001E81042F70D000F2B480032F40F08681FC
:105310001022002108A817F0EBF94FF000033246E5
:10532000032107A8ADF81C308DF81E30FEF7CDFE26
:10533000002800F07381324608A99DF81D00FEF791
:10534000A5FD04460028C6D19DF81E300CA95A1CA4
:1053500051FA82F20B4412F8102C13F8103C43EA75
:1053600002232B80B7E7142F00F017811D2F00F0C8
:105370008C80132F40F052811022214608A817F08C
:10538000B7F93246394607A8ADF81C408DF81E40E3
:10539000FEF79BFE002800F04181324608A99DF8E7
:1053A0001D00FEF773FD0446002894D19DF81E30C1
:1053B0000CAA5B0802EB430232F8102CC2F3001275
:1053C0002A800CAA02EB430232F80E2C6A800CAA47
:1053D00002EB430232F80C2CAA800CAA02EB430326
:1053E00033F80A3CEB8076E71022214608A817F034
:1053F0007FF9ADF81C408DF81E403246394607A8AB
:10540000FEF763FE002800F00981324608A99DF8E6
:105410001D00FEF73BFD044600287FF45CAF9DF8BD
:105420001E300CA95A1C51FA82F212F8101C0CAA58
:105430001A4412F8102C42EA0122C2F30C0129800E
:10544000C2F34031A980C2F38031D20BE9802A81B6
:105450000CA9DA1C023351FA82F251FA83F312F8E2
:10546000102C13F8103C43EA0223C3F30A036B80A9
:1054700031E71022214608A817F03AF9ADF81C4090
:105480008DF81E4032460521B9E71022214608A8B2
:1054900017F02EF93246394607A8ADF81C408DF8B2
:1054A0001E40FEF712FE002800F0B8809DF81D3067
:1054B0009DF81EA00194DA1CD2B200920AF10202F9
:1054C000D2B2029208AA1F46A0464FF010090492D9
:1054D000009ABA42FFF4FFAE32460499059338466B
:1054E000FEF7D4FC059B044658B90099029ABB42CA
:1054F00038BF4FF0000AB94208BF914651464945AE
:1055000002D30137FFB2E3E74A1C0CA8D2B2084429
:105510004A4510F8100C08D20DF1300C62440231EB
:1055200012F8102C12020192CAB20199014325F817
:10553000181008F101085FFA88F81146DFE7102219
:10554000214608A817F0D4F83246072107A8ADF87D
:105550001C408DF81E40FEF7B8FD00285ED0324694
:1055600008A99DF81D00FEF791FC044600287FF471
:10557000B2AE9DF81E200CA9531C51FA83F313F808
:10558000101C0CAB1A4412F8103C43EA0123C3F37D
:1055900009022A80C3F3802369E71022214608A864
:1055A00017F0A6F83246394607A8ADF81C408DF82A
:1055B0001E40FEF78AFD88B3324608A99DF81D00FB
:1055C000FEF764FC044600287FF485AE9DF81E308B
:1055D0000CAA5B0802EB430232F80E2C2A800CAABC
:1055E00002EB430232F80C2C6A800CAA02EB430255
:1055F00032F80A2CAA800CAA02EB430232F8082CDB
:10560000EA800CAA02EB430232F8062C2A810CAA8B
:1056100002EB430333F8043C6B815CE66FF0070454
:1056200059E64FF0FF3445E6002C7FF443AE6FE6B9
:105630000020704770470368C9B21B6818474900CB
:105640000023C161C0F82C327047036801211B6B35
:10565000184710B403689C6B0123A4465DF8044B03
:105660006047D0F82C32B3F5807F1FBF5A1CC0F8BA
:105670002C22C01880F82C1114BF01200020704784
:10568000D0F8280170477047C0F830127047C0F852
:1056900034127047D0F82831A3B1D0F828318BB13B
:1056A000D0F82431D0F8242103440132D2B293F847
:1056B0002030C0F82421D0F82821013AC0F8282150
:1056C000184670474FF0FF307047D0F828312BB1A3
:1056D000D0F82431184490F8200070474FF0FF3084
:1056E000704738B503685B6A04469847A82009F0FC
:1056F000EDF894F9192094F91810054605F028F8EA
:10570000656138BD0B6803604B6843608B688360DC
:10571000704738B5D0F82C3214461A44B2F5807F61
:1057200088BFC3F58074054600F59670224618447C
:1057300016F0E0FED5F82C322344C5F82C32204672
:1057400038BD38B5044640690D4608B104F0FCFE8A
:10575000206920B12946BDE8384005F04FB838BD72
:1057600010B50446406920B10368DB689847002300
:10577000636123699BB1D4F8380209F054FBD4F873
:10578000380209F071FBD4F8380210B103685B6885
:1057900098474821206909F0B1F80023236110BD22
:1057A0001FB50246D0F82C32D469406981F001015E
:1057B00000913BB9012303AA214604F0F6FEC0B2D2
:1057C00004B010BD02F59672214604F0CFFE002809
:1057D00014BF02200020F3E770B5C2B0B2F5807F9D
:1057E00083F0010328BF4FF48072009302AE044699
:1057F0001546134649003246406904F0D6FEC8B942
:10580000A84218D0D4F82831B3F5807F10D0D4F84E
:105810002031325C234483F82020D4F82031013336
:10582000DBB2C4F82031D4F828310133C4F8283170
:105830000130E5E70025284642B070BD30B504468A
:10584000BDB00025206904F0E2FF0328FAD8DFE8A4
:1058500000F04A021212D4F8343203B19847D4F857
:105860002C22002AEED004F59671206904F0D3FFB3
:10587000C4F82C52E6E7C4F82051F022C4F82451B1
:105880006946C4F82851206904F0C3FF002282420F
:105890001DDAD4F82831B3F5807F18D0D4F8283138
:1058A000B3F5807F11D0D4F820311DF802102344C5
:1058B00083F82010D4F820310133DBB2C4F8203152
:1058C000D4F828310133C4F828310132DFE7D4F8A5
:1058D0002831002BB6DDD4F83032002BB2D0D4F80A
:1058E00028019847AEE702F0D7F9ABE70022C26083
:1058F0007047C3680BB19B681847704738B50025DF
:105900004FF47A730446C0E901530D4B0360C0E9BC
:1059100004550176427629464FF48072203016F005
:10592000E7FEC4F82051C4F82C52C4F82451C4F83E
:105930003052C4F82851C4F83452204638BD00BF54
:10594000943B030010B500210446FFF7CFFF20462B
:1059500010BD10B50446FFF7CCFF204610BD10B4B3
:10596000D0E9003409686210E40701EB020048BF87
:105970008A585DF8044B48BFD358184708B501460C
:105980000430FFF7ECFF08BD034AC260034607C9B5
:1059900083E80700704700BF743B030010B586B072
:1059A00004460391684606A980E80C0001E90C0052
:1059B000204603A9FFF7E8FF204606B010BD37B523
:1059C0006C4684E80C0094E80C000546FFF7E6FFFF
:1059D000284603B030BD000070B5036888B05B6A2C
:1059E00005460E469847482008F070FF95F91920A3
:1059F00095F91810044604F0E7FE71002C6120466A
:105A000004F0FEFEBC2008F061FF164B044640F88F
:105A1000043BFFF797FF002104F1400009F07EF9F5
:105A200004F1540009F018F90F4B009320460023AD
:105A30004FF40062182109F0EBF90C4B029300239C
:105A4000039302AB0CCB294604A8C5F83842FFF7F4
:105A5000B6FF04A9204609F043FA04A8FFF779FF2E
:105A600008B070BDF4550300803B03003D580100B1
:105A700008B5FFF783FF08BD08B5FFF7F9FF08BDBC
:105A800010B5122002F0BEF80446132002F0BAF856
:105A9000214602460848FFF731FF1E2002F0B2F807
:105AA00004461F2002F0AEF821460246BDE8104031
:105AB0000248FFF723BF00BFEC1300202816002088
:105AC00010B586B0C3688DF80F10186801220368FE
:105AD0000092DC680DF10F010DF11703A0479DF84E
